{
	"supplychain.sol": {
		"SypplyChain": {
			"abi": [
				{
					"constant": true,
					"inputs": [
						{
							"name": "_address",
							"type": "address"
						}
					],
					"name": "getSelfOrdersLength",
					"outputs": [
						{
							"name": "",
							"type": "uint256"
						}
					],
					"payable": false,
					"stateMutability": "view",
					"type": "function"
				},
				{
					"constant": false,
					"inputs": [
						{
							"name": "_index",
							"type": "uint256"
						}
					],
					"name": "stopDeliveringOrder",
					"outputs": [],
					"payable": false,
					"stateMutability": "nonpayable",
					"type": "function"
				},
				{
					"constant": false,
					"inputs": [
						{
							"name": "_index",
							"type": "uint256"
						}
					],
					"name": "startDeliveringOrder",
					"outputs": [],
					"payable": false,
					"stateMutability": "nonpayable",
					"type": "function"
				},
				{
					"constant": true,
					"inputs": [],
					"name": "getOrderLength",
					"outputs": [
						{
							"name": "",
							"type": "uint256"
						}
					],
					"payable": false,
					"stateMutability": "view",
					"type": "function"
				},
				{
					"constant": true,
					"inputs": [
						{
							"name": "",
							"type": "address"
						},
						{
							"name": "",
							"type": "uint256"
						}
					],
					"name": "selfOrders",
					"outputs": [
						{
							"name": "",
							"type": "uint256"
						}
					],
					"payable": false,
					"stateMutability": "view",
					"type": "function"
				},
				{
					"constant": false,
					"inputs": [
						{
							"name": "_title",
							"type": "string"
						},
						{
							"name": "_description",
							"type": "string"
						},
						{
							"name": "_deliveryCompany",
							"type": "address"
						},
						{
							"name": "_customer",
							"type": "address"
						}
					],
					"name": "createOrder",
					"outputs": [
						{
							"name": "",
							"type": "uint256"
						}
					],
					"payable": false,
					"stateMutability": "nonpayable",
					"type": "function"
				},
				{
					"constant": false,
					"inputs": [
						{
							"name": "_index",
							"type": "uint256"
						}
					],
					"name": "declineOrder",
					"outputs": [],
					"payable": false,
					"stateMutability": "nonpayable",
					"type": "function"
				},
				{
					"constant": true,
					"inputs": [
						{
							"name": "_index",
							"type": "uint256"
						}
					],
					"name": "getOrder",
					"outputs": [
						{
							"name": "",
							"type": "string"
						},
						{
							"name": "",
							"type": "string"
						},
						{
							"name": "",
							"type": "address"
						},
						{
							"name": "",
							"type": "address"
						},
						{
							"name": "",
							"type": "address"
						},
						{
							"name": "",
							"type": "uint8"
						}
					],
					"payable": false,
					"stateMutability": "view",
					"type": "function"
				},
				{
					"constant": false,
					"inputs": [
						{
							"name": "_index",
							"type": "uint256"
						}
					],
					"name": "acceptOrder",
					"outputs": [],
					"payable": false,
					"stateMutability": "nonpayable",
					"type": "function"
				},
				{
					"anonymous": false,
					"inputs": [
						{
							"indexed": false,
							"name": "index",
							"type": "uint256"
						},
						{
							"indexed": true,
							"name": "deliveryCompany",
							"type": "address"
						},
						{
							"indexed": true,
							"name": "customer",
							"type": "address"
						}
					],
					"name": "OrderCreated",
					"type": "event"
				},
				{
					"anonymous": false,
					"inputs": [
						{
							"indexed": false,
							"name": "index",
							"type": "uint256"
						},
						{
							"indexed": true,
							"name": "deliveryCompany",
							"type": "address"
						},
						{
							"indexed": true,
							"name": "customer",
							"type": "address"
						}
					],
					"name": "OrderDelivering",
					"type": "event"
				},
				{
					"anonymous": false,
					"inputs": [
						{
							"indexed": false,
							"name": "index",
							"type": "uint256"
						},
						{
							"indexed": true,
							"name": "deliveryCompany",
							"type": "address"
						},
						{
							"indexed": true,
							"name": "customer",
							"type": "address"
						}
					],
					"name": "OrderDelivered",
					"type": "event"
				},
				{
					"anonymous": false,
					"inputs": [
						{
							"indexed": false,
							"name": "index",
							"type": "uint256"
						},
						{
							"indexed": true,
							"name": "supplier",
							"type": "address"
						},
						{
							"indexed": true,
							"name": "deliveryCompany",
							"type": "address"
						}
					],
					"name": "OrderAccepted",
					"type": "event"
				},
				{
					"anonymous": false,
					"inputs": [
						{
							"indexed": false,
							"name": "index",
							"type": "uint256"
						},
						{
							"indexed": true,
							"name": "supplier",
							"type": "address"
						},
						{
							"indexed": true,
							"name": "deliveryCompany",
							"type": "address"
						}
					],
					"name": "OrderDecliened",
					"type": "event"
				}
			],
			"devdoc": {
				"methods": {}
			},
			"evm": {
				"assembly": "    /* \"supplychain.sol\":29:4393  contract SypplyChain{\r... */\n  mstore(0x40, 0x80)\n  callvalue\n    /* \"--CODEGEN--\":8:17   */\n  dup1\n    /* \"--CODEGEN--\":5:7   */\n  iszero\n  tag_1\n  jumpi\n    /* \"--CODEGEN--\":30:31   */\n  0x0\n    /* \"--CODEGEN--\":27:28   */\n  dup1\n    /* \"--CODEGEN--\":20:32   */\n  revert\n    /* \"--CODEGEN--\":5:7   */\ntag_1:\n    /* \"supplychain.sol\":29:4393  contract SypplyChain{\r... */\n  pop\n  dataSize(sub_0)\n  dup1\n  dataOffset(sub_0)\n  0x0\n  codecopy\n  0x0\n  return\nstop\n\nsub_0: assembly {\n        /* \"supplychain.sol\":29:4393  contract SypplyChain{\r... */\n      mstore(0x40, 0x80)\n      jumpi(tag_1, lt(calldatasize, 0x4))\n      and(div(calldataload(0x0), 0x100000000000000000000000000000000000000000000000000000000), 0xffffffff)\n      0x3ad14ed2\n      dup2\n      eq\n      tag_2\n      jumpi\n      dup1\n      0x6c484042\n      eq\n      tag_3\n      jumpi\n      dup1\n      0x84e9d538\n      eq\n      tag_4\n      jumpi\n      dup1\n      0x9d4971b7\n      eq\n      tag_5\n      jumpi\n      dup1\n      0xa9d1af88\n      eq\n      tag_6\n      jumpi\n      dup1\n      0xaa6e2a72\n      eq\n      tag_7\n      jumpi\n      dup1\n      0xccbdb85c\n      eq\n      tag_8\n      jumpi\n      dup1\n      0xd09ef241\n      eq\n      tag_9\n      jumpi\n      dup1\n      0xef18e9ed\n      eq\n      tag_10\n      jumpi\n    tag_1:\n      0x0\n      dup1\n      revert\n        /* \"supplychain.sol\":2214:2344  function getSelfOrdersLength(address _address) public view returns(uint256){\r... */\n    tag_2:\n      callvalue\n        /* \"--CODEGEN--\":8:17   */\n      dup1\n        /* \"--CODEGEN--\":5:7   */\n      iszero\n      tag_11\n      jumpi\n        /* \"--CODEGEN--\":30:31   */\n      0x0\n        /* \"--CODEGEN--\":27:28   */\n      dup1\n        /* \"--CODEGEN--\":20:32   */\n      revert\n        /* \"--CODEGEN--\":5:7   */\n    tag_11:\n      pop\n        /* \"supplychain.sol\":2214:2344  function getSelfOrdersLength(address _address) public view returns(uint256){\r... */\n      tag_12\n      and(calldataload(0x4), sub(exp(0x2, 0xa0), 0x1))\n      jump(tag_13)\n    tag_12:\n      0x40\n      dup1\n      mload\n      swap2\n      dup3\n      mstore\n      mload\n      swap1\n      dup2\n      swap1\n      sub\n      0x20\n      add\n      swap1\n      return\n        /* \"supplychain.sol\":3531:3818  function stopDeliveringOrder(uint256 _index) public onlyOrderDeliveringCompany(_index) orderDelivering(_index){\r... */\n    tag_3:\n      callvalue\n        /* \"--CODEGEN--\":8:17   */\n      dup1\n        /* \"--CODEGEN--\":5:7   */\n      iszero\n      tag_14\n      jumpi\n        /* \"--CODEGEN--\":30:31   */\n      0x0\n        /* \"--CODEGEN--\":27:28   */\n      dup1\n        /* \"--CODEGEN--\":20:32   */\n      revert\n        /* \"--CODEGEN--\":5:7   */\n    tag_14:\n      pop\n        /* \"supplychain.sol\":3531:3818  function stopDeliveringOrder(uint256 _index) public onlyOrderDeliveringCompany(_index) orderDelivering(_index){\r... */\n      tag_15\n      calldataload(0x4)\n      jump(tag_16)\n    tag_15:\n      stop\n        /* \"supplychain.sol\":3238:3522  function startDeliveringOrder(uint256 _index) public onlyOrderDeliveringCompany(_index) orderCreated(_index) {\r... */\n    tag_4:\n      callvalue\n        /* \"--CODEGEN--\":8:17   */\n      dup1\n        /* \"--CODEGEN--\":5:7   */\n      iszero\n      tag_17\n      jumpi\n        /* \"--CODEGEN--\":30:31   */\n      0x0\n        /* \"--CODEGEN--\":27:28   */\n      dup1\n        /* \"--CODEGEN--\":20:32   */\n      revert\n        /* \"--CODEGEN--\":5:7   */\n    tag_17:\n      pop\n        /* \"supplychain.sol\":3238:3522  function startDeliveringOrder(uint256 _index) public onlyOrderDeliveringCompany(_index) orderCreated(_index) {\r... */\n      tag_15\n      calldataload(0x4)\n      jump(tag_19)\n        /* \"supplychain.sol\":1818:1913  function getOrderLength() public view returns(uint256){\r... */\n    tag_5:\n      callvalue\n        /* \"--CODEGEN--\":8:17   */\n      dup1\n        /* \"--CODEGEN--\":5:7   */\n      iszero\n      tag_20\n      jumpi\n        /* \"--CODEGEN--\":30:31   */\n      0x0\n        /* \"--CODEGEN--\":27:28   */\n      dup1\n        /* \"--CODEGEN--\":20:32   */\n      revert\n        /* \"--CODEGEN--\":5:7   */\n    tag_20:\n        /* \"supplychain.sol\":1818:1913  function getOrderLength() public view returns(uint256){\r... */\n      pop\n      tag_12\n      jump(tag_22)\n        /* \"supplychain.sol\":186:233  mapping(address => uint256[]) public selfOrders */\n    tag_6:\n      callvalue\n        /* \"--CODEGEN--\":8:17   */\n      dup1\n        /* \"--CODEGEN--\":5:7   */\n      iszero\n      tag_23\n      jumpi\n        /* \"--CODEGEN--\":30:31   */\n      0x0\n        /* \"--CODEGEN--\":27:28   */\n      dup1\n        /* \"--CODEGEN--\":20:32   */\n      revert\n        /* \"--CODEGEN--\":5:7   */\n    tag_23:\n      pop\n        /* \"supplychain.sol\":186:233  mapping(address => uint256[]) public selfOrders */\n      tag_12\n      and(calldataload(0x4), sub(exp(0x2, 0xa0), 0x1))\n      calldataload(0x24)\n      jump(tag_25)\n        /* \"supplychain.sol\":2353:3224  function createOrder(string _title, string _description, address _deliveryCompany, address _customer) public returns(uint256){\r... */\n    tag_7:\n      callvalue\n        /* \"--CODEGEN--\":8:17   */\n      dup1\n        /* \"--CODEGEN--\":5:7   */\n      iszero\n      tag_26\n      jumpi\n        /* \"--CODEGEN--\":30:31   */\n      0x0\n        /* \"--CODEGEN--\":27:28   */\n      dup1\n        /* \"--CODEGEN--\":20:32   */\n      revert\n        /* \"--CODEGEN--\":5:7   */\n    tag_26:\n      pop\n        /* \"supplychain.sol\":2353:3224  function createOrder(string _title, string _description, address _deliveryCompany, address _customer) public returns(uint256){\r... */\n      0x40\n      dup1\n      mload\n      0x20\n      0x4\n      dup1\n      calldataload\n      dup1\n      dup3\n      add\n      calldataload\n      0x1f\n      dup2\n      add\n      dup5\n      swap1\n      div\n      dup5\n      mul\n      dup6\n      add\n      dup5\n      add\n      swap1\n      swap6\n      mstore\n      dup5\n      dup5\n      mstore\n      tag_12\n      swap5\n      calldatasize\n      swap5\n      swap3\n      swap4\n      0x24\n      swap4\n      swap3\n      dup5\n      add\n      swap2\n      swap1\n      dup2\n      swap1\n      dup5\n      add\n      dup4\n      dup3\n      dup1\n      dup3\n      dup5\n      calldatacopy\n      pop\n      pop\n      0x40\n      dup1\n      mload\n      0x20\n      0x1f\n      dup10\n      calldataload\n      dup12\n      add\n      dup1\n      calldataload\n      swap2\n      dup3\n      add\n      dup4\n      swap1\n      div\n      dup4\n      mul\n      dup5\n      add\n      dup4\n      add\n      swap1\n      swap5\n      mstore\n      dup1\n      dup4\n      mstore\n      swap8\n      swap11\n      swap10\n      swap9\n      dup2\n      add\n      swap8\n      swap2\n      swap7\n      pop\n      swap2\n      dup3\n      add\n      swap5\n      pop\n      swap3\n      pop\n      dup3\n      swap2\n      pop\n      dup5\n      add\n      dup4\n      dup3\n      dup1\n      dup3\n      dup5\n      calldatacopy\n      pop\n      swap5\n      swap8\n      pop\n      pop\n      sub(exp(0x2, 0xa0), 0x1)\n      dup6\n      calldataload\n      dup2\n      and\n      swap7\n      pop\n      0x20\n      swap1\n      swap6\n      add\n      calldataload\n      swap1\n      swap5\n      and\n      swap4\n      pop\n      tag_28\n      swap3\n      pop\n      pop\n      pop\n      jump\n        /* \"supplychain.sol\":4108:4384  function declineOrder(uint256 _index) public onlyCustomer(_index) orderDelivered(_index){\r... */\n    tag_8:\n      callvalue\n        /* \"--CODEGEN--\":8:17   */\n      dup1\n        /* \"--CODEGEN--\":5:7   */\n      iszero\n      tag_29\n      jumpi\n        /* \"--CODEGEN--\":30:31   */\n      0x0\n        /* \"--CODEGEN--\":27:28   */\n      dup1\n        /* \"--CODEGEN--\":20:32   */\n      revert\n        /* \"--CODEGEN--\":5:7   */\n    tag_29:\n      pop\n        /* \"supplychain.sol\":4108:4384  function declineOrder(uint256 _index) public onlyCustomer(_index) orderDelivered(_index){\r... */\n      tag_15\n      calldataload(0x4)\n      jump(tag_31)\n        /* \"supplychain.sol\":1923:2206  function getOrder(uint256 _index) public view returns (string, string, address, address, address, Status){\r... */\n    tag_9:\n      callvalue\n        /* \"--CODEGEN--\":8:17   */\n      dup1\n        /* \"--CODEGEN--\":5:7   */\n      iszero\n      tag_32\n      jumpi\n        /* \"--CODEGEN--\":30:31   */\n      0x0\n        /* \"--CODEGEN--\":27:28   */\n      dup1\n        /* \"--CODEGEN--\":20:32   */\n      revert\n        /* \"--CODEGEN--\":5:7   */\n    tag_32:\n      pop\n        /* \"supplychain.sol\":1923:2206  function getOrder(uint256 _index) public view returns (string, string, address, address, address, Status){\r... */\n      tag_33\n      calldataload(0x4)\n      jump(tag_34)\n    tag_33:\n      0x40\n      dup1\n      mload\n      sub(exp(0x2, 0xa0), 0x1)\n      dup1\n      dup8\n      and\n      swap3\n      dup3\n      add\n      swap3\n      swap1\n      swap3\n      mstore\n      dup5\n      dup3\n      and\n      0x60\n      dup3\n      add\n      mstore\n      swap1\n      dup4\n      and\n      0x80\n      dup3\n      add\n      mstore\n      dup1\n      0x20\n      dup2\n      add\n      0xa0\n      dup3\n      add\n      dup5\n      0x4\n      dup2\n      gt\n      iszero\n      tag_35\n      jumpi\n      invalid\n    tag_35:\n      0xff\n      and\n      dup2\n      mstore\n      0x20\n      add\n      dup4\n      dup2\n      sub\n      dup4\n      mstore\n      dup10\n      dup2\n      dup2\n      mload\n      dup2\n      mstore\n      0x20\n      add\n      swap2\n      pop\n      dup1\n      mload\n      swap1\n      0x20\n      add\n      swap1\n      dup1\n      dup4\n      dup4\n        /* \"--CODEGEN--\":23:24   */\n      0x0\n        /* \"--CODEGEN--\":8:108   */\n    tag_36:\n        /* \"--CODEGEN--\":33:36   */\n      dup4\n        /* \"--CODEGEN--\":30:31   */\n      dup2\n        /* \"--CODEGEN--\":27:37   */\n      lt\n        /* \"--CODEGEN--\":8:108   */\n      iszero\n      tag_37\n      jumpi\n        /* \"--CODEGEN--\":90:101   */\n      dup2\n      dup2\n      add\n        /* \"--CODEGEN--\":84:102   */\n      mload\n        /* \"--CODEGEN--\":71:82   */\n      dup4\n      dup3\n      add\n        /* \"--CODEGEN--\":64:103   */\n      mstore\n        /* \"--CODEGEN--\":52:54   */\n      0x20\n        /* \"--CODEGEN--\":45:55   */\n      add\n        /* \"--CODEGEN--\":8:108   */\n      jump(tag_36)\n    tag_37:\n        /* \"--CODEGEN--\":12:26   */\n      pop\n        /* \"supplychain.sol\":1923:2206  function getOrder(uint256 _index) public view returns (string, string, address, address, address, Status){\r... */\n      pop\n      pop\n      pop\n      swap1\n      pop\n      swap1\n      dup2\n      add\n      swap1\n      0x1f\n      and\n      dup1\n      iszero\n      tag_39\n      jumpi\n      dup1\n      dup3\n      sub\n      dup1\n      mload\n      0x1\n      dup4\n      0x20\n      sub\n      0x100\n      exp\n      sub\n      not\n      and\n      dup2\n      mstore\n      0x20\n      add\n      swap2\n      pop\n    tag_39:\n      pop\n      dup4\n      dup2\n      sub\n      dup3\n      mstore\n      dup9\n      mload\n      dup2\n      mstore\n      dup9\n      mload\n      0x20\n      swap2\n      dup3\n      add\n      swap2\n      dup11\n      add\n      swap1\n      dup1\n      dup4\n      dup4\n        /* \"--CODEGEN--\":23:24   */\n      0x0\n        /* \"--CODEGEN--\":8:108   */\n    tag_40:\n        /* \"--CODEGEN--\":33:36   */\n      dup4\n        /* \"--CODEGEN--\":30:31   */\n      dup2\n        /* \"--CODEGEN--\":27:37   */\n      lt\n        /* \"--CODEGEN--\":8:108   */\n      iszero\n      tag_41\n      jumpi\n        /* \"--CODEGEN--\":90:101   */\n      dup2\n      dup2\n      add\n        /* \"--CODEGEN--\":84:102   */\n      mload\n        /* \"--CODEGEN--\":71:82   */\n      dup4\n      dup3\n      add\n        /* \"--CODEGEN--\":64:103   */\n      mstore\n        /* \"--CODEGEN--\":52:54   */\n      0x20\n        /* \"--CODEGEN--\":45:55   */\n      add\n        /* \"--CODEGEN--\":8:108   */\n      jump(tag_40)\n    tag_41:\n        /* \"--CODEGEN--\":12:26   */\n      pop\n        /* \"supplychain.sol\":1923:2206  function getOrder(uint256 _index) public view returns (string, string, address, address, address, Status){\r... */\n      pop\n      pop\n      pop\n      swap1\n      pop\n      swap1\n      dup2\n      add\n      swap1\n      0x1f\n      and\n      dup1\n      iszero\n      tag_43\n      jumpi\n      dup1\n      dup3\n      sub\n      dup1\n      mload\n      0x1\n      dup4\n      0x20\n      sub\n      0x100\n      exp\n      sub\n      not\n      and\n      dup2\n      mstore\n      0x20\n      add\n      swap2\n      pop\n    tag_43:\n      pop\n      swap9\n      pop\n      pop\n      pop\n      pop\n      pop\n      pop\n      pop\n      pop\n      pop\n      mload(0x40)\n      dup1\n      swap2\n      sub\n      swap1\n      return\n        /* \"supplychain.sol\":3827:4099  function acceptOrder(uint256 _index) public onlyCustomer(_index) orderDelivered(_index){\r... */\n    tag_10:\n      callvalue\n        /* \"--CODEGEN--\":8:17   */\n      dup1\n        /* \"--CODEGEN--\":5:7   */\n      iszero\n      tag_44\n      jumpi\n        /* \"--CODEGEN--\":30:31   */\n      0x0\n        /* \"--CODEGEN--\":27:28   */\n      dup1\n        /* \"--CODEGEN--\":20:32   */\n      revert\n        /* \"--CODEGEN--\":5:7   */\n    tag_44:\n      pop\n        /* \"supplychain.sol\":3827:4099  function acceptOrder(uint256 _index) public onlyCustomer(_index) orderDelivered(_index){\r... */\n      tag_15\n      calldataload(0x4)\n      jump(tag_46)\n        /* \"supplychain.sol\":2214:2344  function getSelfOrdersLength(address _address) public view returns(uint256){\r... */\n    tag_13:\n      sub(exp(0x2, 0xa0), 0x1)\n        /* \"supplychain.sol\":2307:2327  selfOrders[_address] */\n      and\n        /* \"supplychain.sol\":2281:2288  uint256 */\n      0x0\n        /* \"supplychain.sol\":2307:2327  selfOrders[_address] */\n      swap1\n      dup2\n      mstore\n        /* \"supplychain.sol\":2307:2317  selfOrders */\n      0x1\n        /* \"supplychain.sol\":2307:2327  selfOrders[_address] */\n      0x20\n      mstore\n      0x40\n      swap1\n      keccak256\n        /* \"supplychain.sol\":2307:2334  selfOrders[_address].length */\n      sload\n      swap1\n        /* \"supplychain.sol\":2214:2344  function getSelfOrdersLength(address _address) public view returns(uint256){\r... */\n      jump\t// out\n        /* \"supplychain.sol\":3531:3818  function stopDeliveringOrder(uint256 _index) public onlyOrderDeliveringCompany(_index) orderDelivering(_index){\r... */\n    tag_16:\n        /* \"supplychain.sol\":3655:3674  Order storage order */\n      0x0\n        /* \"supplychain.sol\":3610:3616  _index */\n      dup2\n        /* \"supplychain.sol\":1244:1254  msg.sender */\n      caller\n      sub(exp(0x2, 0xa0), 0x1)\n        /* \"supplychain.sol\":1210:1254  orders[_index].deliveryCompany == msg.sender */\n      and\n        /* \"supplychain.sol\":1210:1216  orders */\n      0x0\n        /* \"supplychain.sol\":1217:1223  _index */\n      dup3\n        /* \"supplychain.sol\":1210:1224  orders[_index] */\n      dup2\n      sload\n      dup2\n      lt\n      iszero\n      iszero\n      tag_49\n      jumpi\n      invalid\n    tag_49:\n      0x0\n      swap2\n      dup3\n      mstore\n      0x20\n      swap1\n      swap2\n      keccak256\n        /* \"supplychain.sol\":1210:1240  orders[_index].deliveryCompany */\n      0x3\n        /* \"supplychain.sol\":1210:1224  orders[_index] */\n      0x5\n      swap1\n      swap3\n      mul\n      add\n        /* \"supplychain.sol\":1210:1240  orders[_index].deliveryCompany */\n      add\n      sload\n      sub(exp(0x2, 0xa0), 0x1)\n      and\n        /* \"supplychain.sol\":1210:1254  orders[_index].deliveryCompany == msg.sender */\n      eq\n        /* \"supplychain.sol\":1202:1255  require(orders[_index].deliveryCompany == msg.sender) */\n      tag_51\n      jumpi\n      0x0\n      dup1\n      revert\n    tag_51:\n        /* \"supplychain.sol\":3634:3640  _index */\n      dup3\n        /* \"supplychain.sol\":1505:1522  Status.Delivering */\n      0x1\n        /* \"supplychain.sol\":1480:1486  orders */\n      0x0\n        /* \"supplychain.sol\":1480:1494  orders[_index] */\n      dup1\n      sload\n        /* \"supplychain.sol\":1487:1493  _index */\n      dup4\n      swap1\n        /* \"supplychain.sol\":1480:1494  orders[_index] */\n      dup2\n      lt\n      tag_54\n      jumpi\n      invalid\n    tag_54:\n      swap1\n      0x0\n      mstore\n      keccak256(0x0, 0x20)\n      swap1\n      0x5\n      mul\n      add\n        /* \"supplychain.sol\":1480:1501  orders[_index].status */\n      0x4\n      add\n      0x14\n      swap1\n      sload\n      swap1\n      0x100\n      exp\n      swap1\n      div\n      0xff\n      and\n        /* \"supplychain.sol\":1480:1522  orders[_index].status == Status.Delivering */\n      0x4\n      dup2\n      gt\n      iszero\n      tag_56\n      jumpi\n      invalid\n    tag_56:\n      eq\n        /* \"supplychain.sol\":1472:1523  require(orders[_index].status == Status.Delivering) */\n      tag_57\n      jumpi\n      0x0\n      dup1\n      revert\n    tag_57:\n        /* \"supplychain.sol\":3677:3683  orders */\n      0x0\n        /* \"supplychain.sol\":3677:3691  orders[_index] */\n      dup1\n      sload\n        /* \"supplychain.sol\":3684:3690  _index */\n      dup6\n      swap1\n        /* \"supplychain.sol\":3677:3691  orders[_index] */\n      dup2\n      lt\n      tag_59\n      jumpi\n      invalid\n    tag_59:\n      0x0\n      swap2\n      dup3\n      mstore\n      0x20\n      swap2\n      dup3\n      swap1\n      keccak256\n        /* \"supplychain.sol\":3748:3762  order.customer */\n      0x4\n        /* \"supplychain.sol\":3677:3691  orders[_index] */\n      0x5\n      swap1\n      swap3\n      mul\n      add\n        /* \"supplychain.sol\":3748:3762  order.customer */\n      swap1\n      dup2\n      add\n      sload\n        /* \"supplychain.sol\":3732:3746  order.supplier */\n      0x2\n      dup3\n      add\n      sload\n        /* \"supplychain.sol\":3709:3763  OrderDelivered(_index, order.supplier, order.customer) */\n      0x40\n      dup1\n      mload\n      dup10\n      dup2\n      mstore\n      swap1\n      mload\n        /* \"supplychain.sol\":3677:3691  orders[_index] */\n      swap4\n      swap8\n      pop\n      sub(exp(0x2, 0xa0), 0x1)\n        /* \"supplychain.sol\":3748:3762  order.customer */\n      swap3\n      dup4\n      and\n      swap5\n        /* \"supplychain.sol\":3732:3746  order.supplier */\n      swap2\n      swap1\n      swap3\n      and\n      swap3\n        /* \"supplychain.sol\":3709:3763  OrderDelivered(_index, order.supplier, order.customer) */\n      0xdc1e5c46473f967c85111ae5c5574dd672193f524398a75ee01ff59586c224a6\n      swap3\n      dup2\n      swap1\n      sub\n      swap1\n      swap2\n      add\n      swap1\n      log3\n        /* \"supplychain.sol\":3776:3788  order.status */\n      0x4\n      dup4\n      add\n        /* \"supplychain.sol\":3776:3807  order.status = Status.Delivered */\n      dup1\n      sload\n        /* \"supplychain.sol\":3791:3807  Status.Delivered */\n      0x2\n      swap2\n        /* \"supplychain.sol\":3776:3788  order.status */\n      swap1\n      not(0xff0000000000000000000000000000000000000000)\n        /* \"supplychain.sol\":3776:3807  order.status = Status.Delivered */\n      and\n      0x10000000000000000000000000000000000000000\n        /* \"supplychain.sol\":3791:3807  Status.Delivered */\n      dup4\n        /* \"supplychain.sol\":3776:3807  order.status = Status.Delivered */\n    tag_61:\n      mul\n      or\n      swap1\n      sstore\n      pop\n        /* \"supplychain.sol\":1266:1267  _ */\n      pop\n        /* \"supplychain.sol\":3531:3818  function stopDeliveringOrder(uint256 _index) public onlyOrderDeliveringCompany(_index) orderDelivering(_index){\r... */\n      pop\n      pop\n      pop\n      jump\t// out\n        /* \"supplychain.sol\":3238:3522  function startDeliveringOrder(uint256 _index) public onlyOrderDeliveringCompany(_index) orderCreated(_index) {\r... */\n    tag_19:\n        /* \"supplychain.sol\":3361:3380  Order storage order */\n      0x0\n        /* \"supplychain.sol\":3318:3324  _index */\n      dup2\n        /* \"supplychain.sol\":1244:1254  msg.sender */\n      caller\n      sub(exp(0x2, 0xa0), 0x1)\n        /* \"supplychain.sol\":1210:1254  orders[_index].deliveryCompany == msg.sender */\n      and\n        /* \"supplychain.sol\":1210:1216  orders */\n      0x0\n        /* \"supplychain.sol\":1217:1223  _index */\n      dup3\n        /* \"supplychain.sol\":1210:1224  orders[_index] */\n      dup2\n      sload\n      dup2\n      lt\n      iszero\n      iszero\n      tag_63\n      jumpi\n      invalid\n    tag_63:\n      0x0\n      swap2\n      dup3\n      mstore\n      0x20\n      swap1\n      swap2\n      keccak256\n        /* \"supplychain.sol\":1210:1240  orders[_index].deliveryCompany */\n      0x3\n        /* \"supplychain.sol\":1210:1224  orders[_index] */\n      0x5\n      swap1\n      swap3\n      mul\n      add\n        /* \"supplychain.sol\":1210:1240  orders[_index].deliveryCompany */\n      add\n      sload\n      sub(exp(0x2, 0xa0), 0x1)\n      and\n        /* \"supplychain.sol\":1210:1254  orders[_index].deliveryCompany == msg.sender */\n      eq\n        /* \"supplychain.sol\":1202:1255  require(orders[_index].deliveryCompany == msg.sender) */\n      tag_65\n      jumpi\n      0x0\n      dup1\n      revert\n    tag_65:\n        /* \"supplychain.sol\":3339:3345  _index */\n      dup3\n        /* \"supplychain.sol\":1371:1385  Status.Created */\n      0x0\n        /* \"supplychain.sol\":1346:1352  orders */\n      dup1\n        /* \"supplychain.sol\":1346:1360  orders[_index] */\n      dup1\n      sload\n        /* \"supplychain.sol\":1353:1359  _index */\n      dup4\n      swap1\n        /* \"supplychain.sol\":1346:1360  orders[_index] */\n      dup2\n      lt\n      tag_68\n      jumpi\n      invalid\n    tag_68:\n      swap1\n      0x0\n      mstore\n      keccak256(0x0, 0x20)\n      swap1\n      0x5\n      mul\n      add\n        /* \"supplychain.sol\":1346:1367  orders[_index].status */\n      0x4\n      add\n      0x14\n      swap1\n      sload\n      swap1\n      0x100\n      exp\n      swap1\n      div\n      0xff\n      and\n        /* \"supplychain.sol\":1346:1385  orders[_index].status == Status.Created */\n      0x4\n      dup2\n      gt\n      iszero\n      tag_70\n      jumpi\n      invalid\n    tag_70:\n      eq\n        /* \"supplychain.sol\":1338:1386  require(orders[_index].status == Status.Created) */\n      tag_71\n      jumpi\n      0x0\n      dup1\n      revert\n    tag_71:\n        /* \"supplychain.sol\":3383:3389  orders */\n      0x0\n        /* \"supplychain.sol\":3383:3397  orders[_index] */\n      dup1\n      sload\n        /* \"supplychain.sol\":3390:3396  _index */\n      dup6\n      swap1\n        /* \"supplychain.sol\":3383:3397  orders[_index] */\n      dup2\n      lt\n      tag_73\n      jumpi\n      invalid\n    tag_73:\n      0x0\n      swap2\n      dup3\n      mstore\n      0x20\n      swap2\n      dup3\n      swap1\n      keccak256\n        /* \"supplychain.sol\":3453:3467  order.customer */\n      0x4\n        /* \"supplychain.sol\":3383:3397  orders[_index] */\n      0x5\n      swap1\n      swap3\n      mul\n      add\n        /* \"supplychain.sol\":3453:3467  order.customer */\n      swap1\n      dup2\n      add\n      sload\n        /* \"supplychain.sol\":3437:3451  order.supplier */\n      0x2\n      dup3\n      add\n      sload\n        /* \"supplychain.sol\":3413:3468  OrderDelivering(_index, order.supplier, order.customer) */\n      0x40\n      dup1\n      mload\n      dup10\n      dup2\n      mstore\n      swap1\n      mload\n        /* \"supplychain.sol\":3383:3397  orders[_index] */\n      swap4\n      swap8\n      pop\n      sub(exp(0x2, 0xa0), 0x1)\n        /* \"supplychain.sol\":3453:3467  order.customer */\n      swap3\n      dup4\n      and\n      swap5\n        /* \"supplychain.sol\":3437:3451  order.supplier */\n      swap2\n      swap1\n      swap3\n      and\n      swap3\n        /* \"supplychain.sol\":3413:3468  OrderDelivering(_index, order.supplier, order.customer) */\n      0x8f3a13f55e685e5c9e7796435daa54d081fdc930d7079309a7b178fc4fb3cc2f\n      swap3\n      dup2\n      swap1\n      sub\n      swap1\n      swap2\n      add\n      swap1\n      log3\n        /* \"supplychain.sol\":3479:3491  order.status */\n      0x4\n      dup4\n      add\n        /* \"supplychain.sol\":3479:3511  order.status = Status.Delivering */\n      dup1\n      sload\n        /* \"supplychain.sol\":3494:3511  Status.Delivering */\n      0x1\n      swap2\n        /* \"supplychain.sol\":3479:3491  order.status */\n      swap1\n      not(0xff0000000000000000000000000000000000000000)\n        /* \"supplychain.sol\":3479:3511  order.status = Status.Delivering */\n      and\n      0x10000000000000000000000000000000000000000\n        /* \"supplychain.sol\":3494:3511  Status.Delivering */\n      dup4\n        /* \"supplychain.sol\":3479:3511  order.status = Status.Delivering */\n      jump(tag_61)\n        /* \"supplychain.sol\":1818:1913  function getOrderLength() public view returns(uint256){\r... */\n    tag_22:\n        /* \"supplychain.sol\":1864:1871  uint256 */\n      0x0\n        /* \"supplychain.sol\":1890:1903  orders.length */\n      sload\n        /* \"supplychain.sol\":1818:1913  function getOrderLength() public view returns(uint256){\r... */\n    tag_76:\n      swap1\n      jump\t// out\n        /* \"supplychain.sol\":186:233  mapping(address => uint256[]) public selfOrders */\n    tag_25:\n      mstore(0x20, 0x1)\n      dup2\n      0x0\n      mstore\n      keccak256(0x0, 0x40)\n      dup2\n      dup2\n      sload\n      dup2\n      lt\n      iszero\n      iszero\n      tag_77\n      jumpi\n      invalid\n    tag_77:\n      swap1\n      0x0\n      mstore\n      keccak256(0x0, 0x20)\n      add\n      0x0\n      swap2\n      pop\n      swap2\n      pop\n      pop\n      sload\n      dup2\n      jump\t// out\n        /* \"supplychain.sol\":2353:3224  function createOrder(string _title, string _description, address _deliveryCompany, address _customer) public returns(uint256){\r... */\n    tag_28:\n        /* \"supplychain.sol\":2470:2477  uint256 */\n      0x0\n        /* \"supplychain.sol\":2501:2519  Order memory order */\n      tag_79\n      jump\t// in(tag_80)\n    tag_79:\n      pop\n        /* \"supplychain.sol\":2522:2815  Order ({\r... */\n      0x40\n      dup1\n      mload\n      0xc0\n      dup2\n      add\n      dup3\n      mstore\n      dup7\n      dup2\n      mstore\n      0x20\n      dup1\n      dup3\n      add\n      dup8\n      swap1\n      mstore\n        /* \"supplychain.sol\":2649:2659  msg.sender */\n      caller\n        /* \"supplychain.sol\":2522:2815  Order ({\r... */\n      dup3\n      dup5\n      add\n      mstore\n      sub(exp(0x2, 0xa0), 0x1)\n      dup7\n      dup2\n      and\n      0x60\n      dup5\n      add\n      dup2\n      swap1\n      mstore\n      swap1\n      dup7\n      and\n      0x80\n      dup5\n      add\n      dup2\n      swap1\n      mstore\n      0x0\n      0xa0\n      dup6\n      add\n      dup2\n      swap1\n      mstore\n        /* \"supplychain.sol\":2957:2970  orders.length */\n      sload\n        /* \"supplychain.sol\":2987:3035  OrderCreated(index, _deliveryCompany, _customer) */\n      dup6\n      mload\n      dup2\n      dup2\n      mstore\n      swap6\n      mload\n        /* \"supplychain.sol\":2522:2815  Order ({\r... */\n      swap5\n      swap6\n        /* \"supplychain.sol\":2957:2970  orders.length */\n      swap1\n      swap5\n        /* \"supplychain.sol\":2522:2815  Order ({\r... */\n      swap2\n      swap4\n        /* \"supplychain.sol\":2987:3035  OrderCreated(index, _deliveryCompany, _customer) */\n      0xd4e0aaf5be9b8773c644dfebba8b63f878965712ad8589d85ca4bc9d1b671e2c\n      swap3\n      swap2\n      dup3\n      swap1\n      sub\n      add\n      swap1\n      log3\n        /* \"supplychain.sol\":3050:3056  orders */\n      0x0\n        /* \"--CODEGEN--\":27:37   */\n      dup1\n      sload\n        /* \"--CODEGEN--\":39:40   */\n      0x1\n        /* \"--CODEGEN--\":23:41   */\n      dup2\n      add\n        /* \"--CODEGEN--\":45:68   */\n      dup1\n      dup4\n      sstore\n        /* \"supplychain.sol\":3050:3068  orders.push(order) */\n      swap2\n      dup1\n      mstore\n      dup4\n      mload\n      dup1\n      mload\n        /* \"supplychain.sol\":3062:3067  order */\n      dup6\n      swap3\n        /* \"supplychain.sol\":3050:3068  orders.push(order) */\n      0x5\n      mul\n      0x290decd9548b62a8d60345a988386fc84ba6bc95484008f6362f93160ef3e563\n      add\n      swap2\n      tag_84\n      swap2\n      dup4\n      swap2\n      0x20\n      add\n      swap1\n      jump\t// in(tag_85)\n    tag_84:\n      pop\n      0x20\n      dup3\n      dup2\n      add\n      mload\n      dup1\n      mload\n      tag_86\n      swap3\n      0x1\n      dup6\n      add\n      swap3\n      add\n      swap1\n      jump\t// in(tag_85)\n    tag_86:\n      pop\n      0x40\n      dup3\n      add\n      mload\n      0x2\n      dup3\n      add\n      dup1\n      sload\n      not(0xffffffffffffffffffffffffffffffffffffffff)\n      swap1\n      dup2\n      and\n      sub(exp(0x2, 0xa0), 0x1)\n      swap4\n      dup5\n      and\n      or\n      swap1\n      swap2\n      sstore\n      0x60\n      dup5\n      add\n      mload\n      0x3\n      dup5\n      add\n      dup1\n      sload\n      dup4\n      and\n      swap2\n      dup5\n      and\n      swap2\n      swap1\n      swap2\n      or\n      swap1\n      sstore\n      0x80\n      dup5\n      add\n      mload\n      0x4\n      dup1\n      dup6\n      add\n      dup1\n      sload\n      swap1\n      swap4\n      and\n      swap2\n      swap1\n      swap4\n      and\n      or\n      dup1\n      dup3\n      sstore\n      0xa0\n      dup6\n      add\n      mload\n      swap3\n      not(0xff0000000000000000000000000000000000000000)\n      swap1\n      swap2\n      and\n      swap1\n      0x10000000000000000000000000000000000000000\n      swap1\n      dup5\n      swap1\n      dup2\n      gt\n      iszero\n      tag_87\n      jumpi\n      invalid\n    tag_87:\n      mul\n      or\n      swap1\n      sstore\n      pop\n      pop\n        /* \"supplychain.sol\":3094:3104  msg.sender */\n      caller\n        /* \"supplychain.sol\":3083:3105  selfOrders[msg.sender] */\n      0x0\n      swap1\n      dup2\n      mstore\n        /* \"supplychain.sol\":3083:3093  selfOrders */\n      0x1\n        /* \"supplychain.sol\":3083:3105  selfOrders[msg.sender] */\n      0x20\n      dup2\n      dup2\n      mstore\n      0x40\n      dup1\n      dup5\n      keccak256\n        /* \"--CODEGEN--\":27:37   */\n      dup1\n      sload\n        /* \"--CODEGEN--\":23:41   */\n      dup1\n      dup6\n      add\n        /* \"--CODEGEN--\":45:68   */\n      dup3\n      sstore\n        /* \"supplychain.sol\":3083:3117  selfOrders[msg.sender].push(index) */\n      swap1\n      dup6\n      mstore\n      dup3\n      dup6\n      keccak256\n      add\n      dup8\n      swap1\n      sstore\n      sub(exp(0x2, 0xa0), 0x1)\n        /* \"supplychain.sol\":3130:3158  selfOrders[_deliveryCompany] */\n      swap11\n      dup12\n      and\n      dup5\n      mstore\n      dup1\n      dup5\n      keccak256\n        /* \"--CODEGEN--\":27:37   */\n      dup1\n      sload\n        /* \"--CODEGEN--\":23:41   */\n      dup1\n      dup6\n      add\n        /* \"--CODEGEN--\":45:68   */\n      dup3\n      sstore\n        /* \"supplychain.sol\":3130:3170  selfOrders[_deliveryCompany].push(index) */\n      swap1\n      dup6\n      mstore\n      dup3\n      dup6\n      keccak256\n      add\n      dup8\n      swap1\n      sstore\n        /* \"supplychain.sol\":3183:3204  selfOrders[_customer] */\n      swap9\n      swap1\n      swap10\n      and\n      dup3\n      mstore\n      swap7\n      dup2\n      keccak256\n        /* \"--CODEGEN--\":27:37   */\n      dup1\n      sload\n        /* \"--CODEGEN--\":23:41   */\n      swap8\n      dup9\n      add\n        /* \"--CODEGEN--\":45:68   */\n      dup2\n      sstore\n        /* \"supplychain.sol\":3183:3216  selfOrders[_customer].push(index) */\n      dup2\n      mstore\n      swap7\n      swap1\n      swap7\n      keccak256\n      swap1\n      swap5\n      add\n      sstore\n      pop\n        /* \"supplychain.sol\":2353:3224  function createOrder(string _title, string _description, address _deliveryCompany, address _customer) public returns(uint256){\r... */\n      swap5\n      swap4\n      pop\n      pop\n      pop\n      pop\n      jump\t// out\n        /* \"supplychain.sol\":4108:4384  function declineOrder(uint256 _index) public onlyCustomer(_index) orderDelivered(_index){\r... */\n    tag_31:\n        /* \"supplychain.sol\":4209:4228  Order storage order */\n      0x0\n        /* \"supplychain.sol\":4166:4172  _index */\n      dup2\n        /* \"supplychain.sol\":1775:1785  msg.sender */\n      caller\n      sub(exp(0x2, 0xa0), 0x1)\n        /* \"supplychain.sol\":1748:1785  orders[_index].customer == msg.sender */\n      and\n        /* \"supplychain.sol\":1748:1754  orders */\n      0x0\n        /* \"supplychain.sol\":1755:1761  _index */\n      dup3\n        /* \"supplychain.sol\":1748:1762  orders[_index] */\n      dup2\n      sload\n      dup2\n      lt\n      iszero\n      iszero\n      tag_92\n      jumpi\n      invalid\n    tag_92:\n      0x0\n      swap2\n      dup3\n      mstore\n      0x20\n      swap1\n      swap2\n      keccak256\n        /* \"supplychain.sol\":1748:1771  orders[_index].customer */\n      0x4\n        /* \"supplychain.sol\":1748:1762  orders[_index] */\n      0x5\n      swap1\n      swap3\n      mul\n      add\n        /* \"supplychain.sol\":1748:1771  orders[_index].customer */\n      add\n      sload\n      sub(exp(0x2, 0xa0), 0x1)\n      and\n        /* \"supplychain.sol\":1748:1785  orders[_index].customer == msg.sender */\n      eq\n        /* \"supplychain.sol\":1740:1786  require(orders[_index].customer == msg.sender) */\n      tag_94\n      jumpi\n      0x0\n      dup1\n      revert\n    tag_94:\n        /* \"supplychain.sol\":4189:4195  _index */\n      dup3\n        /* \"supplychain.sol\":1642:1658  Status.Delivered */\n      0x2\n        /* \"supplychain.sol\":1617:1623  orders */\n      0x0\n        /* \"supplychain.sol\":1617:1631  orders[_index] */\n      dup1\n      sload\n        /* \"supplychain.sol\":1624:1630  _index */\n      dup4\n      swap1\n        /* \"supplychain.sol\":1617:1631  orders[_index] */\n      dup2\n      lt\n      tag_97\n      jumpi\n      invalid\n    tag_97:\n      swap1\n      0x0\n      mstore\n      keccak256(0x0, 0x20)\n      swap1\n      0x5\n      mul\n      add\n        /* \"supplychain.sol\":1617:1638  orders[_index].status */\n      0x4\n      add\n      0x14\n      swap1\n      sload\n      swap1\n      0x100\n      exp\n      swap1\n      div\n      0xff\n      and\n        /* \"supplychain.sol\":1617:1658  orders[_index].status == Status.Delivered */\n      0x4\n      dup2\n      gt\n      iszero\n      tag_99\n      jumpi\n      invalid\n    tag_99:\n      eq\n        /* \"supplychain.sol\":1609:1659  require(orders[_index].status == Status.Delivered) */\n      tag_100\n      jumpi\n      0x0\n      dup1\n      revert\n    tag_100:\n        /* \"supplychain.sol\":4231:4237  orders */\n      0x0\n        /* \"supplychain.sol\":4231:4245  orders[_index] */\n      dup1\n      sload\n        /* \"supplychain.sol\":4238:4244  _index */\n      dup6\n      swap1\n        /* \"supplychain.sol\":4231:4245  orders[_index] */\n      dup2\n      lt\n      tag_102\n      jumpi\n      invalid\n    tag_102:\n      0x0\n      swap2\n      dup3\n      mstore\n      0x20\n      swap2\n      dup3\n      swap1\n      keccak256\n        /* \"supplychain.sol\":4300:4321  order.deliveryCompany */\n      0x3\n        /* \"supplychain.sol\":4231:4245  orders[_index] */\n      0x5\n      swap1\n      swap3\n      mul\n      add\n        /* \"supplychain.sol\":4300:4321  order.deliveryCompany */\n      swap1\n      dup2\n      add\n      sload\n        /* \"supplychain.sol\":4284:4298  order.supplier */\n      0x2\n      dup3\n      add\n      sload\n        /* \"supplychain.sol\":4261:4322  OrderDecliened(_index, order.supplier, order.deliveryCompany) */\n      0x40\n      dup1\n      mload\n      dup10\n      dup2\n      mstore\n      swap1\n      mload\n        /* \"supplychain.sol\":4231:4245  orders[_index] */\n      swap4\n      swap8\n      pop\n      sub(exp(0x2, 0xa0), 0x1)\n        /* \"supplychain.sol\":4300:4321  order.deliveryCompany */\n      swap3\n      dup4\n      and\n      swap5\n        /* \"supplychain.sol\":4284:4298  order.supplier */\n      swap2\n      swap1\n      swap3\n      and\n      swap3\n        /* \"supplychain.sol\":4261:4322  OrderDecliened(_index, order.supplier, order.deliveryCompany) */\n      0xbd40f997bcc363e9241a0a564e708e94c5a972d06e12431d657f8c1f6aa36383\n      swap3\n      dup2\n      swap1\n      sub\n      swap1\n      swap2\n      add\n      swap1\n      log3\n        /* \"supplychain.sol\":4357:4373  Status.Decliened */\n      0x4\n        /* \"supplychain.sol\":4333:4339  orders */\n      0x0\n        /* \"supplychain.sol\":4340:4346  _index */\n      dup6\n        /* \"supplychain.sol\":4333:4347  orders[_index] */\n      dup2\n      sload\n      dup2\n      lt\n      iszero\n      iszero\n      tag_104\n      jumpi\n      invalid\n    tag_104:\n      swap1\n      0x0\n      mstore\n      keccak256(0x0, 0x20)\n      swap1\n      0x5\n      mul\n      add\n        /* \"supplychain.sol\":4333:4354  orders[_index].status */\n      0x4\n      add\n      0x14\n        /* \"supplychain.sol\":4333:4373  orders[_index].status = Status.Decliened */\n      0x100\n      exp\n      dup2\n      sload\n      dup2\n      0xff\n      mul\n      not\n      and\n      swap1\n      dup4\n      0x4\n      dup2\n      gt\n      iszero\n      tag_61\n      jumpi\n      invalid\n        /* \"supplychain.sol\":1923:2206  function getOrder(uint256 _index) public view returns (string, string, address, address, address, Status){\r... */\n    tag_34:\n        /* \"supplychain.sol\":1978:1984  string */\n      0x60\n        /* \"supplychain.sol\":1986:1992  string */\n      dup1\n        /* \"supplychain.sol\":1994:2001  address */\n      0x0\n        /* \"supplychain.sol\":2003:2010  address */\n      dup1\n        /* \"supplychain.sol\":2012:2019  address */\n      0x0\n        /* \"supplychain.sol\":2021:2027  Status */\n      dup1\n        /* \"supplychain.sol\":2041:2059  Order memory order */\n      tag_107\n      jump\t// in(tag_80)\n    tag_107:\n        /* \"supplychain.sol\":2062:2068  orders */\n      0x0\n        /* \"supplychain.sol\":2062:2076  orders[_index] */\n      dup1\n      sload\n        /* \"supplychain.sol\":2069:2075  _index */\n      dup10\n      swap1\n        /* \"supplychain.sol\":2062:2076  orders[_index] */\n      dup2\n      lt\n      tag_109\n      jumpi\n      invalid\n    tag_109:\n      0x0\n      swap2\n      dup3\n      mstore\n      0x20\n      swap2\n      dup3\n      swap1\n      keccak256\n        /* \"supplychain.sol\":2041:2076  Order memory order = orders[_index] */\n      0x40\n      dup1\n      mload\n        /* \"supplychain.sol\":2062:2076  orders[_index] */\n      0x5\n      swap4\n      swap1\n      swap4\n      mul\n      swap1\n      swap2\n      add\n        /* \"supplychain.sol\":2041:2076  Order memory order = orders[_index] */\n      dup1\n      sload\n      0x2\n      0x1\n      dup3\n      and\n      iszero\n      0x100\n      mul\n      not(0x0)\n      add\n      swap1\n      swap2\n      and\n      div\n      0x1f\n      dup2\n      add\n      dup6\n      swap1\n      div\n      swap1\n      swap5\n      mul\n      dup4\n      add\n      0xe0\n      swap1\n      dup2\n      add\n      swap1\n      swap3\n      mstore\n      0xc0\n      dup4\n      add\n      dup5\n      dup2\n      mstore\n      swap3\n      swap4\n        /* \"supplychain.sol\":2062:2076  orders[_index] */\n      swap1\n      swap3\n        /* \"supplychain.sol\":2041:2076  Order memory order = orders[_index] */\n      dup5\n      swap3\n      swap1\n      swap2\n        /* \"supplychain.sol\":2062:2076  orders[_index] */\n      dup5\n      swap2\n        /* \"supplychain.sol\":2041:2076  Order memory order = orders[_index] */\n      dup5\n      add\n        /* \"supplychain.sol\":2062:2076  orders[_index] */\n      dup3\n        /* \"supplychain.sol\":2041:2076  Order memory order = orders[_index] */\n      dup3\n      dup1\n      iszero\n      tag_111\n      jumpi\n      dup1\n      0x1f\n      lt\n      tag_112\n      jumpi\n      0x100\n      dup1\n      dup4\n      sload\n      div\n      mul\n      dup4\n      mstore\n      swap2\n      0x20\n      add\n      swap2\n      jump(tag_111)\n    tag_112:\n      dup3\n      add\n      swap2\n      swap1\n      0x0\n      mstore\n      keccak256(0x0, 0x20)\n      swap1\n    tag_113:\n      dup2\n      sload\n      dup2\n      mstore\n      swap1\n      0x1\n      add\n      swap1\n      0x20\n      add\n      dup1\n      dup4\n      gt\n      tag_113\n      jumpi\n      dup3\n      swap1\n      sub\n      0x1f\n      and\n      dup3\n      add\n      swap2\n    tag_111:\n      pop\n      pop\n      pop\n      pop\n      pop\n      dup2\n      mstore\n      0x20\n      add\n      0x1\n      dup3\n      add\n      dup1\n      sload\n      0x1\n      dup2\n      0x1\n      and\n      iszero\n      0x100\n      mul\n      sub\n      and\n      0x2\n      swap1\n      div\n      dup1\n      0x1f\n      add\n      0x20\n      dup1\n      swap2\n      div\n      mul\n      0x20\n      add\n      mload(0x40)\n      swap1\n      dup2\n      add\n      0x40\n      mstore\n      dup1\n      swap3\n      swap2\n      swap1\n      dup2\n      dup2\n      mstore\n      0x20\n      add\n      dup3\n      dup1\n      sload\n      0x1\n      dup2\n      0x1\n      and\n      iszero\n      0x100\n      mul\n      sub\n      and\n      0x2\n      swap1\n      div\n      dup1\n      iszero\n      tag_114\n      jumpi\n      dup1\n      0x1f\n      lt\n      tag_115\n      jumpi\n      0x100\n      dup1\n      dup4\n      sload\n      div\n      mul\n      dup4\n      mstore\n      swap2\n      0x20\n      add\n      swap2\n      jump(tag_114)\n    tag_115:\n      dup3\n      add\n      swap2\n      swap1\n      0x0\n      mstore\n      keccak256(0x0, 0x20)\n      swap1\n    tag_116:\n      dup2\n      sload\n      dup2\n      mstore\n      swap1\n      0x1\n      add\n      swap1\n      0x20\n      add\n      dup1\n      dup4\n      gt\n      tag_116\n      jumpi\n      dup3\n      swap1\n      sub\n      0x1f\n      and\n      dup3\n      add\n      swap2\n    tag_114:\n      pop\n      pop\n      pop\n      swap2\n      dup4\n      mstore\n      pop\n      pop\n      0x2\n      dup3\n      add\n      sload\n      sub(exp(0x2, 0xa0), 0x1)\n      swap1\n      dup2\n      and\n      0x20\n      dup4\n      add\n      mstore\n      0x3\n      dup4\n      add\n      sload\n      dup2\n      and\n      0x40\n      dup4\n      add\n      mstore\n      0x4\n      dup1\n      dup5\n      add\n      sload\n      swap2\n      dup3\n      and\n      0x60\n      dup5\n      add\n      mstore\n      0x80\n      swap1\n      swap3\n      add\n      swap2\n      0x10000000000000000000000000000000000000000\n      swap1\n      swap2\n      div\n      0xff\n      and\n      swap1\n      dup2\n      gt\n      iszero\n      tag_117\n      jumpi\n      invalid\n    tag_117:\n      0x4\n      dup2\n      gt\n      iszero\n      tag_118\n      jumpi\n      invalid\n    tag_118:\n      swap1\n      mstore\n      pop\n        /* \"supplychain.sol\":2096:2107  order.title */\n      dup1\n      mload\n        /* \"supplychain.sol\":2109:2126  order.description */\n      0x20\n      dup3\n      add\n      mload\n        /* \"supplychain.sol\":2128:2142  order.supplier */\n      0x40\n      dup4\n      add\n      mload\n        /* \"supplychain.sol\":2144:2165  order.deliveryCompany */\n      0x60\n      dup5\n      add\n      mload\n        /* \"supplychain.sol\":2167:2181  order.customer */\n      0x80\n      dup6\n      add\n      mload\n        /* \"supplychain.sol\":2183:2195  order.status */\n      0xa0\n      swap1\n      swap6\n      add\n      mload\n        /* \"supplychain.sol\":2096:2107  order.title */\n      swap4\n      swap14\n        /* \"supplychain.sol\":2109:2126  order.description */\n      swap3\n      swap13\n      pop\n        /* \"supplychain.sol\":2128:2142  order.supplier */\n      swap1\n      swap11\n      pop\n        /* \"supplychain.sol\":2144:2165  order.deliveryCompany */\n      swap9\n      pop\n        /* \"supplychain.sol\":2167:2181  order.customer */\n      swap2\n      swap7\n      pop\n        /* \"supplychain.sol\":2183:2195  order.status */\n      swap5\n      pop\n        /* \"supplychain.sol\":1923:2206  function getOrder(uint256 _index) public view returns (string, string, address, address, address, Status){\r... */\n      swap3\n      pop\n      pop\n      pop\n      jump\t// out\n        /* \"supplychain.sol\":3827:4099  function acceptOrder(uint256 _index) public onlyCustomer(_index) orderDelivered(_index){\r... */\n    tag_46:\n        /* \"supplychain.sol\":3926:3945  Order storage order */\n      0x0\n        /* \"supplychain.sol\":3884:3890  _index */\n      dup2\n        /* \"supplychain.sol\":1775:1785  msg.sender */\n      caller\n      sub(exp(0x2, 0xa0), 0x1)\n        /* \"supplychain.sol\":1748:1785  orders[_index].customer == msg.sender */\n      and\n        /* \"supplychain.sol\":1748:1754  orders */\n      0x0\n        /* \"supplychain.sol\":1755:1761  _index */\n      dup3\n        /* \"supplychain.sol\":1748:1762  orders[_index] */\n      dup2\n      sload\n      dup2\n      lt\n      iszero\n      iszero\n      tag_120\n      jumpi\n      invalid\n    tag_120:\n      0x0\n      swap2\n      dup3\n      mstore\n      0x20\n      swap1\n      swap2\n      keccak256\n        /* \"supplychain.sol\":1748:1771  orders[_index].customer */\n      0x4\n        /* \"supplychain.sol\":1748:1762  orders[_index] */\n      0x5\n      swap1\n      swap3\n      mul\n      add\n        /* \"supplychain.sol\":1748:1771  orders[_index].customer */\n      add\n      sload\n      sub(exp(0x2, 0xa0), 0x1)\n      and\n        /* \"supplychain.sol\":1748:1785  orders[_index].customer == msg.sender */\n      eq\n        /* \"supplychain.sol\":1740:1786  require(orders[_index].customer == msg.sender) */\n      tag_122\n      jumpi\n      0x0\n      dup1\n      revert\n    tag_122:\n        /* \"supplychain.sol\":3907:3913  _index */\n      dup3\n        /* \"supplychain.sol\":1642:1658  Status.Delivered */\n      0x2\n        /* \"supplychain.sol\":1617:1623  orders */\n      0x0\n        /* \"supplychain.sol\":1617:1631  orders[_index] */\n      dup1\n      sload\n        /* \"supplychain.sol\":1624:1630  _index */\n      dup4\n      swap1\n        /* \"supplychain.sol\":1617:1631  orders[_index] */\n      dup2\n      lt\n      tag_125\n      jumpi\n      invalid\n    tag_125:\n      swap1\n      0x0\n      mstore\n      keccak256(0x0, 0x20)\n      swap1\n      0x5\n      mul\n      add\n        /* \"supplychain.sol\":1617:1638  orders[_index].status */\n      0x4\n      add\n      0x14\n      swap1\n      sload\n      swap1\n      0x100\n      exp\n      swap1\n      div\n      0xff\n      and\n        /* \"supplychain.sol\":1617:1658  orders[_index].status == Status.Delivered */\n      0x4\n      dup2\n      gt\n      iszero\n      tag_127\n      jumpi\n      invalid\n    tag_127:\n      eq\n        /* \"supplychain.sol\":1609:1659  require(orders[_index].status == Status.Delivered) */\n      tag_128\n      jumpi\n      0x0\n      dup1\n      revert\n    tag_128:\n        /* \"supplychain.sol\":3948:3954  orders */\n      0x0\n        /* \"supplychain.sol\":3948:3962  orders[_index] */\n      dup1\n      sload\n        /* \"supplychain.sol\":3955:3961  _index */\n      dup6\n      swap1\n        /* \"supplychain.sol\":3948:3962  orders[_index] */\n      dup2\n      lt\n      tag_130\n      jumpi\n      invalid\n    tag_130:\n      0x0\n      swap2\n      dup3\n      mstore\n      0x20\n      swap2\n      dup3\n      swap1\n      keccak256\n        /* \"supplychain.sol\":4016:4037  order.deliveryCompany */\n      0x3\n        /* \"supplychain.sol\":3948:3962  orders[_index] */\n      0x5\n      swap1\n      swap3\n      mul\n      add\n        /* \"supplychain.sol\":4016:4037  order.deliveryCompany */\n      swap1\n      dup2\n      add\n      sload\n        /* \"supplychain.sol\":4000:4014  order.supplier */\n      0x2\n      dup3\n      add\n      sload\n        /* \"supplychain.sol\":3978:4038  OrderAccepted(_index, order.supplier, order.deliveryCompany) */\n      0x40\n      dup1\n      mload\n      dup10\n      dup2\n      mstore\n      swap1\n      mload\n        /* \"supplychain.sol\":3948:3962  orders[_index] */\n      swap4\n      swap8\n      pop\n      sub(exp(0x2, 0xa0), 0x1)\n        /* \"supplychain.sol\":4016:4037  order.deliveryCompany */\n      swap3\n      dup4\n      and\n      swap5\n        /* \"supplychain.sol\":4000:4014  order.supplier */\n      swap2\n      swap1\n      swap3\n      and\n      swap3\n        /* \"supplychain.sol\":3978:4038  OrderAccepted(_index, order.supplier, order.deliveryCompany) */\n      0x8ae2f67332c70e85a9bd2dc029a84b58b0e0b37eed94bb01fe19283e259f8592\n      swap3\n      dup2\n      swap1\n      sub\n      swap1\n      swap2\n      add\n      swap1\n      log3\n        /* \"supplychain.sol\":4073:4088  Status.Accepted */\n      0x3\n        /* \"supplychain.sol\":4049:4055  orders */\n      0x0\n        /* \"supplychain.sol\":4056:4062  _index */\n      dup6\n        /* \"supplychain.sol\":4049:4063  orders[_index] */\n      dup2\n      sload\n      dup2\n      lt\n      iszero\n      iszero\n      tag_104\n      jumpi\n      invalid\n        /* \"supplychain.sol\":29:4393  contract SypplyChain{\r... */\n    tag_80:\n      0x40\n      dup1\n      mload\n      0xc0\n      dup2\n      add\n      dup3\n      mstore\n      0x60\n      dup1\n      dup3\n      mstore\n      0x20\n      dup3\n      add\n      dup2\n      swap1\n      mstore\n      0x0\n      swap3\n      dup3\n      add\n      dup4\n      swap1\n      mstore\n      dup2\n      add\n      dup3\n      swap1\n      mstore\n      0x80\n      dup2\n      add\n      dup3\n      swap1\n      mstore\n      swap1\n      0xa0\n      dup3\n      add\n      mstore\n      swap1\n      jump\t// out\n    tag_85:\n      dup3\n      dup1\n      sload\n      0x1\n      dup2\n      0x1\n      and\n      iszero\n      0x100\n      mul\n      sub\n      and\n      0x2\n      swap1\n      div\n      swap1\n      0x0\n      mstore\n      keccak256(0x0, 0x20)\n      swap1\n      0x1f\n      add\n      0x20\n      swap1\n      div\n      dup2\n      add\n      swap3\n      dup3\n      0x1f\n      lt\n      tag_137\n      jumpi\n      dup1\n      mload\n      not(0xff)\n      and\n      dup4\n      dup1\n      add\n      or\n      dup6\n      sstore\n      jump(tag_139)\n    tag_137:\n      dup3\n      dup1\n      add\n      0x1\n      add\n      dup6\n      sstore\n      dup3\n      iszero\n      tag_139\n      jumpi\n      swap2\n      dup3\n      add\n    tag_138:\n      dup3\n      dup2\n      gt\n      iszero\n      tag_139\n      jumpi\n      dup3\n      mload\n      dup3\n      sstore\n      swap2\n      0x20\n      add\n      swap2\n      swap1\n      0x1\n      add\n      swap1\n      jump(tag_138)\n    tag_139:\n      pop\n      tag_140\n      swap3\n      swap2\n      pop\n      jump\t// in(tag_141)\n    tag_140:\n      pop\n      swap1\n      jump\t// out\n    tag_141:\n      tag_76\n      swap2\n      swap1\n    tag_143:\n      dup1\n      dup3\n      gt\n      iszero\n      tag_140\n      jumpi\n      0x0\n      dup2\n      sstore\n      0x1\n      add\n      jump(tag_143)\n\n    auxdata: 0xa165627a7a72305820150cb19346513c46e8ca2b23a2d6344b9c5fc7940fc8af8da567ab6f9847b3e60029\n}\n",
				"bytecode": {
					"linkReferences": {},
					"object": "608060405234801561001057600080fd5b50610d40806100206000396000f3006080604052600436106100985763ffffffff7c01000000000000000000000000000000000000000000000000000000006000350416633ad14ed2811461009d5780636c484042146100d057806384e9d538146100ea5780639d4971b714610102578063a9d1af8814610117578063aa6e2a721461013b578063ccbdb85c146101e8578063d09ef24114610200578063ef18e9ed14610331575b600080fd5b3480156100a957600080fd5b506100be600160a060020a0360043516610349565b60408051918252519081900360200190f35b3480156100dc57600080fd5b506100e8600435610364565b005b3480156100f657600080fd5b506100e86004356104a2565b34801561010e57600080fd5b506100be6105d8565b34801561012357600080fd5b506100be600160a060020a03600435166024356105df565b34801561014757600080fd5b506040805160206004803580820135601f81018490048402850184019095528484526100be94369492936024939284019190819084018382808284375050604080516020601f89358b018035918201839004830284018301909452808352979a99988101979196509182019450925082915084018382808284375094975050600160a060020a03853581169650602090950135909416935061060f92505050565b3480156101f457600080fd5b506100e8600435610803565b34801561020c57600080fd5b50610218600435610939565b60408051600160a060020a038087169282019290925284821660608201529083166080820152806020810160a0820184600481111561025357fe5b60ff168152602001838103835289818151815260200191508051906020019080838360005b83811015610290578181015183820152602001610278565b50505050905090810190601f1680156102bd5780820380516001836020036101000a031916815260200191505b5083810382528851815288516020918201918a019080838360005b838110156102f05781810151838201526020016102d8565b50505050905090810190601f16801561031d5780820380516001836020036101000a031916815260200191505b509850505050505050505060405180910390f35b34801561033d57600080fd5b506100e8600435610b3f565b600160a060020a031660009081526001602052604090205490565b60008133600160a060020a031660008281548110151561038057fe5b6000918252602090912060036005909202010154600160a060020a0316146103a757600080fd5b82600160008054839081106103b857fe5b906000526020600020906005020160040160149054906101000a900460ff1660048111156103e257fe5b146103ec57600080fd5b60008054859081106103fa57fe5b60009182526020918290206004600590920201908101546002820154604080518981529051939750600160a060020a039283169491909216927fdc1e5c46473f967c85111ae5c5574dd672193f524398a75ee01ff59586c224a69281900390910190a36004830180546002919074ff0000000000000000000000000000000000000000191674010000000000000000000000000000000000000000835b021790555050505050565b60008133600160a060020a03166000828154811015156104be57fe5b6000918252602090912060036005909202010154600160a060020a0316146104e557600080fd5b826000808054839081106104f557fe5b906000526020600020906005020160040160149054906101000a900460ff16600481111561051f57fe5b1461052957600080fd5b600080548590811061053757fe5b60009182526020918290206004600590920201908101546002820154604080518981529051939750600160a060020a039283169491909216927f8f3a13f55e685e5c9e7796435daa54d081fdc930d7079309a7b178fc4fb3cc2f9281900390910190a36004830180546001919074ff000000000000000000000000000000000000000019167401000000000000000000000000000000000000000083610497565b6000545b90565b6001602052816000526040600020818154811015156105fa57fe5b90600052602060002001600091509150505481565b6000610619610c49565b506040805160c08101825286815260208082018790523382840152600160a060020a038681166060840181905290861660808401819052600060a0850181905254855181815295519495909491937fd4e0aaf5be9b8773c644dfebba8b63f878965712ad8589d85ca4bc9d1b671e2c92918290030190a360008054600181018083559180528351805185926005027f290decd9548b62a8d60345a988386fc84ba6bc95484008f6362f93160ef3e56301916106d991839160200190610c7c565b5060208281015180516106f29260018501920190610c7c565b50604082015160028201805473ffffffffffffffffffffffffffffffffffffffff19908116600160a060020a039384161790915560608401516003840180548316918416919091179055608084015160048085018054909316919093161780825560a08501519274ff000000000000000000000000000000000000000019909116907401000000000000000000000000000000000000000090849081111561079657fe5b0217905550503360009081526001602081815260408084208054808501825590855282852001879055600160a060020a039a8b1684528084208054808501825590855282852001879055989099168252968120805497880181558152969096209094015550949350505050565b60008133600160a060020a031660008281548110151561081f57fe5b6000918252602090912060046005909202010154600160a060020a03161461084657600080fd5b826002600080548390811061085757fe5b906000526020600020906005020160040160149054906101000a900460ff16600481111561088157fe5b1461088b57600080fd5b600080548590811061089957fe5b60009182526020918290206003600590920201908101546002820154604080518981529051939750600160a060020a039283169491909216927fbd40f997bcc363e9241a0a564e708e94c5a972d06e12431d657f8c1f6aa363839281900390910190a3600460008581548110151561090d57fe5b906000526020600020906005020160040160146101000a81548160ff0219169083600481111561049757fe5b60608060008060008061094a610c49565b600080548990811061095857fe5b600091825260209182902060408051600593909302909101805460026001821615610100026000190190911604601f8101859004909402830160e090810190925260c08301848152929390928492909184918401828280156109fb5780601f106109d0576101008083540402835291602001916109fb565b820191906000526020600020905b8154815290600101906020018083116109de57829003601f168201915b50505050508152602001600182018054600181600116156101000203166002900480601f016020809104026020016040519081016040528092919081815260200182805460018160011615610100020316600290048015610a9d5780601f10610a7257610100808354040283529160200191610a9d565b820191906000526020600020905b815481529060010190602001808311610a8057829003601f168201915b50505091835250506002820154600160a060020a03908116602083015260038301548116604083015260048084015491821660608401526080909201917401000000000000000000000000000000000000000090910460ff1690811115610b0057fe5b6004811115610b0b57fe5b9052508051602082015160408301516060840151608085015160a090950151939d929c50909a509850919650945092505050565b60008133600160a060020a0316600082815481101515610b5b57fe5b6000918252602090912060046005909202010154600160a060020a031614610b8257600080fd5b8260026000805483908110610b9357fe5b906000526020600020906005020160040160149054906101000a900460ff166004811115610bbd57fe5b14610bc757600080fd5b6000805485908110610bd557fe5b60009182526020918290206003600590920201908101546002820154604080518981529051939750600160a060020a039283169491909216927f8ae2f67332c70e85a9bd2dc029a84b58b0e0b37eed94bb01fe19283e259f85929281900390910190a3600360008581548110151561090d57fe5b6040805160c08101825260608082526020820181905260009282018390528101829052608081018290529060a082015290565b828054600181600116156101000203166002900490600052602060002090601f016020900481019282601f10610cbd57805160ff1916838001178555610cea565b82800160010185558215610cea579182015b82811115610cea578251825591602001919060010190610ccf565b50610cf6929150610cfa565b5090565b6105dc91905b80821115610cf65760008155600101610d005600a165627a7a72305820150cb19346513c46e8ca2b23a2d6344b9c5fc7940fc8af8da567ab6f9847b3e60029",
					"opcodes": "PUSH1 0x80 PUSH1 0x40 MSTORE CALLVALUE DUP1 ISZERO PUSH2 0x10 JUMPI PUSH1 0x0 DUP1 REVERT JUMPDEST POP PUSH2 0xD40 DUP1 PUSH2 0x20 PUSH1 0x0 CODECOPY PUSH1 0x0 RETURN STOP PUSH1 0x80 PUSH1 0x40 MSTORE PUSH1 0x4 CALLDATASIZE LT PUSH2 0x98 JUMPI PUSH4 0xFFFFFFFF PUSH29 0x100000000000000000000000000000000000000000000000000000000 PUSH1 0x0 CALLDATALOAD DIV AND PUSH4 0x3AD14ED2 DUP2 EQ PUSH2 0x9D JUMPI DUP1 PUSH4 0x6C484042 EQ PUSH2 0xD0 JUMPI DUP1 PUSH4 0x84E9D538 EQ PUSH2 0xEA JUMPI DUP1 PUSH4 0x9D4971B7 EQ PUSH2 0x102 JUMPI DUP1 PUSH4 0xA9D1AF88 EQ PUSH2 0x117 JUMPI DUP1 PUSH4 0xAA6E2A72 EQ PUSH2 0x13B JUMPI DUP1 PUSH4 0xCCBDB85C EQ PUSH2 0x1E8 JUMPI DUP1 PUSH4 0xD09EF241 EQ PUSH2 0x200 JUMPI DUP1 PUSH4 0xEF18E9ED EQ PUSH2 0x331 JUMPI JUMPDEST PUSH1 0x0 DUP1 REVERT JUMPDEST CALLVALUE DUP1 ISZERO PUSH2 0xA9 JUMPI PUSH1 0x0 DUP1 REVERT JUMPDEST POP PUSH2 0xBE PUSH1 0x1 PUSH1 0xA0 PUSH1 0x2 EXP SUB PUSH1 0x4 CALLDATALOAD AND PUSH2 0x349 JUMP JUMPDEST PUSH1 0x40 DUP1 MLOAD SWAP2 DUP3 MSTORE MLOAD SWAP1 DUP2 SWAP1 SUB PUSH1 0x20 ADD SWAP1 RETURN JUMPDEST CALLVALUE DUP1 ISZERO PUSH2 0xDC JUMPI PUSH1 0x0 DUP1 REVERT JUMPDEST POP PUSH2 0xE8 PUSH1 0x4 CALLDATALOAD PUSH2 0x364 JUMP JUMPDEST STOP JUMPDEST CALLVALUE DUP1 ISZERO PUSH2 0xF6 JUMPI PUSH1 0x0 DUP1 REVERT JUMPDEST POP PUSH2 0xE8 PUSH1 0x4 CALLDATALOAD PUSH2 0x4A2 JUMP JUMPDEST CALLVALUE DUP1 ISZERO PUSH2 0x10E JUMPI PUSH1 0x0 DUP1 REVERT JUMPDEST POP PUSH2 0xBE PUSH2 0x5D8 JUMP JUMPDEST CALLVALUE DUP1 ISZERO PUSH2 0x123 JUMPI PUSH1 0x0 DUP1 REVERT JUMPDEST POP PUSH2 0xBE PUSH1 0x1 PUSH1 0xA0 PUSH1 0x2 EXP SUB PUSH1 0x4 CALLDATALOAD AND PUSH1 0x24 CALLDATALOAD PUSH2 0x5DF JUMP JUMPDEST CALLVALUE DUP1 ISZERO PUSH2 0x147 JUMPI PUSH1 0x0 DUP1 REVERT JUMPDEST POP PUSH1 0x40 DUP1 MLOAD PUSH1 0x20 PUSH1 0x4 DUP1 CALLDATALOAD DUP1 DUP3 ADD CALLDATALOAD PUSH1 0x1F DUP2 ADD DUP5 SWAP1 DIV DUP5 MUL DUP6 ADD DUP5 ADD SWAP1 SWAP6 MSTORE DUP5 DUP5 MSTORE PUSH2 0xBE SWAP5 CALLDATASIZE SWAP5 SWAP3 SWAP4 PUSH1 0x24 SWAP4 SWAP3 DUP5 ADD SWAP2 SWAP1 DUP2 SWAP1 DUP5 ADD DUP4 DUP3 DUP1 DUP3 DUP5 CALLDATACOPY POP POP PUSH1 0x40 DUP1 MLOAD PUSH1 0x20 PUSH1 0x1F DUP10 CALLDATALOAD DUP12 ADD DUP1 CALLDATALOAD SWAP2 DUP3 ADD DUP4 SWAP1 DIV DUP4 MUL DUP5 ADD DUP4 ADD SWAP1 SWAP5 MSTORE DUP1 DUP4 MSTORE SWAP8 SWAP11 SWAP10 SWAP9 DUP2 ADD SWAP8 SWAP2 SWAP7 POP SWAP2 DUP3 ADD SWAP5 POP SWAP3 POP DUP3 SWAP2 POP DUP5 ADD DUP4 DUP3 DUP1 DUP3 DUP5 CALLDATACOPY POP SWAP5 SWAP8 POP POP PUSH1 0x1 PUSH1 0xA0 PUSH1 0x2 EXP SUB DUP6 CALLDATALOAD DUP2 AND SWAP7 POP PUSH1 0x20 SWAP1 SWAP6 ADD CALLDATALOAD SWAP1 SWAP5 AND SWAP4 POP PUSH2 0x60F SWAP3 POP POP POP JUMP JUMPDEST CALLVALUE DUP1 ISZERO PUSH2 0x1F4 JUMPI PUSH1 0x0 DUP1 REVERT JUMPDEST POP PUSH2 0xE8 PUSH1 0x4 CALLDATALOAD PUSH2 0x803 JUMP JUMPDEST CALLVALUE DUP1 ISZERO PUSH2 0x20C JUMPI PUSH1 0x0 DUP1 REVERT JUMPDEST POP PUSH2 0x218 PUSH1 0x4 CALLDATALOAD PUSH2 0x939 JUMP JUMPDEST PUSH1 0x40 DUP1 MLOAD PUSH1 0x1 PUSH1 0xA0 PUSH1 0x2 EXP SUB DUP1 DUP8 AND SWAP3 DUP3 ADD SWAP3 SWAP1 SWAP3 MSTORE DUP5 DUP3 AND PUSH1 0x60 DUP3 ADD MSTORE SWAP1 DUP4 AND PUSH1 0x80 DUP3 ADD MSTORE DUP1 PUSH1 0x20 DUP2 ADD PUSH1 0xA0 DUP3 ADD DUP5 PUSH1 0x4 DUP2 GT ISZERO PUSH2 0x253 JUMPI INVALID JUMPDEST PUSH1 0xFF AND DUP2 MSTORE PUSH1 0x20 ADD DUP4 DUP2 SUB DUP4 MSTORE DUP10 DUP2 DUP2 MLOAD DUP2 MSTORE PUSH1 0x20 ADD SWAP2 POP DUP1 MLOAD SWAP1 PUSH1 0x20 ADD SWAP1 DUP1 DUP4 DUP4 PUSH1 0x0 JUMPDEST DUP4 DUP2 LT ISZERO PUSH2 0x290 JUMPI DUP2 DUP2 ADD MLOAD DUP4 DUP3 ADD MSTORE PUSH1 0x20 ADD PUSH2 0x278 JUMP JUMPDEST POP POP POP POP SWAP1 POP SWAP1 DUP2 ADD SWAP1 PUSH1 0x1F AND DUP1 ISZERO PUSH2 0x2BD JUMPI DUP1 DUP3 SUB DUP1 MLOAD PUSH1 0x1 DUP4 PUSH1 0x20 SUB PUSH2 0x100 EXP SUB NOT AND DUP2 MSTORE PUSH1 0x20 ADD SWAP2 POP JUMPDEST POP DUP4 DUP2 SUB DUP3 MSTORE DUP9 MLOAD DUP2 MSTORE DUP9 MLOAD PUSH1 0x20 SWAP2 DUP3 ADD SWAP2 DUP11 ADD SWAP1 DUP1 DUP4 DUP4 PUSH1 0x0 JUMPDEST DUP4 DUP2 LT ISZERO PUSH2 0x2F0 JUMPI DUP2 DUP2 ADD MLOAD DUP4 DUP3 ADD MSTORE PUSH1 0x20 ADD PUSH2 0x2D8 JUMP JUMPDEST POP POP POP POP SWAP1 POP SWAP1 DUP2 ADD SWAP1 PUSH1 0x1F AND DUP1 ISZERO PUSH2 0x31D JUMPI DUP1 DUP3 SUB DUP1 MLOAD PUSH1 0x1 DUP4 PUSH1 0x20 SUB PUSH2 0x100 EXP SUB NOT AND DUP2 MSTORE PUSH1 0x20 ADD SWAP2 POP JUMPDEST POP SWAP9 POP POP POP POP POP POP POP POP POP PUSH1 0x40 MLOAD DUP1 SWAP2 SUB SWAP1 RETURN JUMPDEST CALLVALUE DUP1 ISZERO PUSH2 0x33D JUMPI PUSH1 0x0 DUP1 REVERT JUMPDEST POP PUSH2 0xE8 PUSH1 0x4 CALLDATALOAD PUSH2 0xB3F JUMP JUMPDEST PUSH1 0x1 PUSH1 0xA0 PUSH1 0x2 EXP SUB AND PUSH1 0x0 SWAP1 DUP2 MSTORE PUSH1 0x1 PUSH1 0x20 MSTORE PUSH1 0x40 SWAP1 KECCAK256 SLOAD SWAP1 JUMP JUMPDEST PUSH1 0x0 DUP2 CALLER PUSH1 0x1 PUSH1 0xA0 PUSH1 0x2 EXP SUB AND PUSH1 0x0 DUP3 DUP2 SLOAD DUP2 LT ISZERO ISZERO PUSH2 0x380 JUMPI INVALID JUMPDEST PUSH1 0x0 SWAP2 DUP3 MSTORE PUSH1 0x20 SWAP1 SWAP2 KECCAK256 PUSH1 0x3 PUSH1 0x5 SWAP1 SWAP3 MUL ADD ADD SLOAD PUSH1 0x1 PUSH1 0xA0 PUSH1 0x2 EXP SUB AND EQ PUSH2 0x3A7 JUMPI PUSH1 0x0 DUP1 REVERT JUMPDEST DUP3 PUSH1 0x1 PUSH1 0x0 DUP1 SLOAD DUP4 SWAP1 DUP2 LT PUSH2 0x3B8 JUMPI INVALID JUMPDEST SWAP1 PUSH1 0x0 MSTORE PUSH1 0x20 PUSH1 0x0 KECCAK256 SWAP1 PUSH1 0x5 MUL ADD PUSH1 0x4 ADD PUSH1 0x14 SWAP1 SLOAD SWAP1 PUSH2 0x100 EXP SWAP1 DIV PUSH1 0xFF AND PUSH1 0x4 DUP2 GT ISZERO PUSH2 0x3E2 JUMPI INVALID JUMPDEST EQ PUSH2 0x3EC JUMPI PUSH1 0x0 DUP1 REVERT JUMPDEST PUSH1 0x0 DUP1 SLOAD DUP6 SWAP1 DUP2 LT PUSH2 0x3FA JUMPI INVALID JUMPDEST PUSH1 0x0 SWAP2 DUP3 MSTORE PUSH1 0x20 SWAP2 DUP3 SWAP1 KECCAK256 PUSH1 0x4 PUSH1 0x5 SWAP1 SWAP3 MUL ADD SWAP1 DUP2 ADD SLOAD PUSH1 0x2 DUP3 ADD SLOAD PUSH1 0x40 DUP1 MLOAD DUP10 DUP2 MSTORE SWAP1 MLOAD SWAP4 SWAP8 POP PUSH1 0x1 PUSH1 0xA0 PUSH1 0x2 EXP SUB SWAP3 DUP4 AND SWAP5 SWAP2 SWAP1 SWAP3 AND SWAP3 PUSH32 0xDC1E5C46473F967C85111AE5C5574DD672193F524398A75EE01FF59586C224A6 SWAP3 DUP2 SWAP1 SUB SWAP1 SWAP2 ADD SWAP1 LOG3 PUSH1 0x4 DUP4 ADD DUP1 SLOAD PUSH1 0x2 SWAP2 SWAP1 PUSH21 0xFF0000000000000000000000000000000000000000 NOT AND PUSH21 0x10000000000000000000000000000000000000000 DUP4 JUMPDEST MUL OR SWAP1 SSTORE POP POP POP POP POP JUMP JUMPDEST PUSH1 0x0 DUP2 CALLER PUSH1 0x1 PUSH1 0xA0 PUSH1 0x2 EXP SUB AND PUSH1 0x0 DUP3 DUP2 SLOAD DUP2 LT ISZERO ISZERO PUSH2 0x4BE JUMPI INVALID JUMPDEST PUSH1 0x0 SWAP2 DUP3 MSTORE PUSH1 0x20 SWAP1 SWAP2 KECCAK256 PUSH1 0x3 PUSH1 0x5 SWAP1 SWAP3 MUL ADD ADD SLOAD PUSH1 0x1 PUSH1 0xA0 PUSH1 0x2 EXP SUB AND EQ PUSH2 0x4E5 JUMPI PUSH1 0x0 DUP1 REVERT JUMPDEST DUP3 PUSH1 0x0 DUP1 DUP1 SLOAD DUP4 SWAP1 DUP2 LT PUSH2 0x4F5 JUMPI INVALID JUMPDEST SWAP1 PUSH1 0x0 MSTORE PUSH1 0x20 PUSH1 0x0 KECCAK256 SWAP1 PUSH1 0x5 MUL ADD PUSH1 0x4 ADD PUSH1 0x14 SWAP1 SLOAD SWAP1 PUSH2 0x100 EXP SWAP1 DIV PUSH1 0xFF AND PUSH1 0x4 DUP2 GT ISZERO PUSH2 0x51F JUMPI INVALID JUMPDEST EQ PUSH2 0x529 JUMPI PUSH1 0x0 DUP1 REVERT JUMPDEST PUSH1 0x0 DUP1 SLOAD DUP6 SWAP1 DUP2 LT PUSH2 0x537 JUMPI INVALID JUMPDEST PUSH1 0x0 SWAP2 DUP3 MSTORE PUSH1 0x20 SWAP2 DUP3 SWAP1 KECCAK256 PUSH1 0x4 PUSH1 0x5 SWAP1 SWAP3 MUL ADD SWAP1 DUP2 ADD SLOAD PUSH1 0x2 DUP3 ADD SLOAD PUSH1 0x40 DUP1 MLOAD DUP10 DUP2 MSTORE SWAP1 MLOAD SWAP4 SWAP8 POP PUSH1 0x1 PUSH1 0xA0 PUSH1 0x2 EXP SUB SWAP3 DUP4 AND SWAP5 SWAP2 SWAP1 SWAP3 AND SWAP3 PUSH32 0x8F3A13F55E685E5C9E7796435DAA54D081FDC930D7079309A7B178FC4FB3CC2F SWAP3 DUP2 SWAP1 SUB SWAP1 SWAP2 ADD SWAP1 LOG3 PUSH1 0x4 DUP4 ADD DUP1 SLOAD PUSH1 0x1 SWAP2 SWAP1 PUSH21 0xFF0000000000000000000000000000000000000000 NOT AND PUSH21 0x10000000000000000000000000000000000000000 DUP4 PUSH2 0x497 JUMP JUMPDEST PUSH1 0x0 SLOAD JUMPDEST SWAP1 JUMP JUMPDEST PUSH1 0x1 PUSH1 0x20 MSTORE DUP2 PUSH1 0x0 MSTORE PUSH1 0x40 PUSH1 0x0 KECCAK256 DUP2 DUP2 SLOAD DUP2 LT ISZERO ISZERO PUSH2 0x5FA JUMPI INVALID JUMPDEST SWAP1 PUSH1 0x0 MSTORE PUSH1 0x20 PUSH1 0x0 KECCAK256 ADD PUSH1 0x0 SWAP2 POP SWAP2 POP POP SLOAD DUP2 JUMP JUMPDEST PUSH1 0x0 PUSH2 0x619 PUSH2 0xC49 JUMP JUMPDEST POP PUSH1 0x40 DUP1 MLOAD PUSH1 0xC0 DUP2 ADD DUP3 MSTORE DUP7 DUP2 MSTORE PUSH1 0x20 DUP1 DUP3 ADD DUP8 SWAP1 MSTORE CALLER DUP3 DUP5 ADD MSTORE PUSH1 0x1 PUSH1 0xA0 PUSH1 0x2 EXP SUB DUP7 DUP2 AND PUSH1 0x60 DUP5 ADD DUP2 SWAP1 MSTORE SWAP1 DUP7 AND PUSH1 0x80 DUP5 ADD DUP2 SWAP1 MSTORE PUSH1 0x0 PUSH1 0xA0 DUP6 ADD DUP2 SWAP1 MSTORE SLOAD DUP6 MLOAD DUP2 DUP2 MSTORE SWAP6 MLOAD SWAP5 SWAP6 SWAP1 SWAP5 SWAP2 SWAP4 PUSH32 0xD4E0AAF5BE9B8773C644DFEBBA8B63F878965712AD8589D85CA4BC9D1B671E2C SWAP3 SWAP2 DUP3 SWAP1 SUB ADD SWAP1 LOG3 PUSH1 0x0 DUP1 SLOAD PUSH1 0x1 DUP2 ADD DUP1 DUP4 SSTORE SWAP2 DUP1 MSTORE DUP4 MLOAD DUP1 MLOAD DUP6 SWAP3 PUSH1 0x5 MUL PUSH32 0x290DECD9548B62A8D60345A988386FC84BA6BC95484008F6362F93160EF3E563 ADD SWAP2 PUSH2 0x6D9 SWAP2 DUP4 SWAP2 PUSH1 0x20 ADD SWAP1 PUSH2 0xC7C JUMP JUMPDEST POP PUSH1 0x20 DUP3 DUP2 ADD MLOAD DUP1 MLOAD PUSH2 0x6F2 SWAP3 PUSH1 0x1 DUP6 ADD SWAP3 ADD SWAP1 PUSH2 0xC7C JUMP JUMPDEST POP PUSH1 0x40 DUP3 ADD MLOAD PUSH1 0x2 DUP3 ADD DUP1 SLOAD PUSH20 0xFFFFFFFFFFFFFFFFFFFFFFFFFFFFFFFFFFFFFFFF NOT SWAP1 DUP2 AND PUSH1 0x1 PUSH1 0xA0 PUSH1 0x2 EXP SUB SWAP4 DUP5 AND OR SWAP1 SWAP2 SSTORE PUSH1 0x60 DUP5 ADD MLOAD PUSH1 0x3 DUP5 ADD DUP1 SLOAD DUP4 AND SWAP2 DUP5 AND SWAP2 SWAP1 SWAP2 OR SWAP1 SSTORE PUSH1 0x80 DUP5 ADD MLOAD PUSH1 0x4 DUP1 DUP6 ADD DUP1 SLOAD SWAP1 SWAP4 AND SWAP2 SWAP1 SWAP4 AND OR DUP1 DUP3 SSTORE PUSH1 0xA0 DUP6 ADD MLOAD SWAP3 PUSH21 0xFF0000000000000000000000000000000000000000 NOT SWAP1 SWAP2 AND SWAP1 PUSH21 0x10000000000000000000000000000000000000000 SWAP1 DUP5 SWAP1 DUP2 GT ISZERO PUSH2 0x796 JUMPI INVALID JUMPDEST MUL OR SWAP1 SSTORE POP POP CALLER PUSH1 0x0 SWAP1 DUP2 MSTORE PUSH1 0x1 PUSH1 0x20 DUP2 DUP2 MSTORE PUSH1 0x40 DUP1 DUP5 KECCAK256 DUP1 SLOAD DUP1 DUP6 ADD DUP3 SSTORE SWAP1 DUP6 MSTORE DUP3 DUP6 KECCAK256 ADD DUP8 SWAP1 SSTORE PUSH1 0x1 PUSH1 0xA0 PUSH1 0x2 EXP SUB SWAP11 DUP12 AND DUP5 MSTORE DUP1 DUP5 KECCAK256 DUP1 SLOAD DUP1 DUP6 ADD DUP3 SSTORE SWAP1 DUP6 MSTORE DUP3 DUP6 KECCAK256 ADD DUP8 SWAP1 SSTORE SWAP9 SWAP1 SWAP10 AND DUP3 MSTORE SWAP7 DUP2 KECCAK256 DUP1 SLOAD SWAP8 DUP9 ADD DUP2 SSTORE DUP2 MSTORE SWAP7 SWAP1 SWAP7 KECCAK256 SWAP1 SWAP5 ADD SSTORE POP SWAP5 SWAP4 POP POP POP POP JUMP JUMPDEST PUSH1 0x0 DUP2 CALLER PUSH1 0x1 PUSH1 0xA0 PUSH1 0x2 EXP SUB AND PUSH1 0x0 DUP3 DUP2 SLOAD DUP2 LT ISZERO ISZERO PUSH2 0x81F JUMPI INVALID JUMPDEST PUSH1 0x0 SWAP2 DUP3 MSTORE PUSH1 0x20 SWAP1 SWAP2 KECCAK256 PUSH1 0x4 PUSH1 0x5 SWAP1 SWAP3 MUL ADD ADD SLOAD PUSH1 0x1 PUSH1 0xA0 PUSH1 0x2 EXP SUB AND EQ PUSH2 0x846 JUMPI PUSH1 0x0 DUP1 REVERT JUMPDEST DUP3 PUSH1 0x2 PUSH1 0x0 DUP1 SLOAD DUP4 SWAP1 DUP2 LT PUSH2 0x857 JUMPI INVALID JUMPDEST SWAP1 PUSH1 0x0 MSTORE PUSH1 0x20 PUSH1 0x0 KECCAK256 SWAP1 PUSH1 0x5 MUL ADD PUSH1 0x4 ADD PUSH1 0x14 SWAP1 SLOAD SWAP1 PUSH2 0x100 EXP SWAP1 DIV PUSH1 0xFF AND PUSH1 0x4 DUP2 GT ISZERO PUSH2 0x881 JUMPI INVALID JUMPDEST EQ PUSH2 0x88B JUMPI PUSH1 0x0 DUP1 REVERT JUMPDEST PUSH1 0x0 DUP1 SLOAD DUP6 SWAP1 DUP2 LT PUSH2 0x899 JUMPI INVALID JUMPDEST PUSH1 0x0 SWAP2 DUP3 MSTORE PUSH1 0x20 SWAP2 DUP3 SWAP1 KECCAK256 PUSH1 0x3 PUSH1 0x5 SWAP1 SWAP3 MUL ADD SWAP1 DUP2 ADD SLOAD PUSH1 0x2 DUP3 ADD SLOAD PUSH1 0x40 DUP1 MLOAD DUP10 DUP2 MSTORE SWAP1 MLOAD SWAP4 SWAP8 POP PUSH1 0x1 PUSH1 0xA0 PUSH1 0x2 EXP SUB SWAP3 DUP4 AND SWAP5 SWAP2 SWAP1 SWAP3 AND SWAP3 PUSH32 0xBD40F997BCC363E9241A0A564E708E94C5A972D06E12431D657F8C1F6AA36383 SWAP3 DUP2 SWAP1 SUB SWAP1 SWAP2 ADD SWAP1 LOG3 PUSH1 0x4 PUSH1 0x0 DUP6 DUP2 SLOAD DUP2 LT ISZERO ISZERO PUSH2 0x90D JUMPI INVALID JUMPDEST SWAP1 PUSH1 0x0 MSTORE PUSH1 0x20 PUSH1 0x0 KECCAK256 SWAP1 PUSH1 0x5 MUL ADD PUSH1 0x4 ADD PUSH1 0x14 PUSH2 0x100 EXP DUP2 SLOAD DUP2 PUSH1 0xFF MUL NOT AND SWAP1 DUP4 PUSH1 0x4 DUP2 GT ISZERO PUSH2 0x497 JUMPI INVALID JUMPDEST PUSH1 0x60 DUP1 PUSH1 0x0 DUP1 PUSH1 0x0 DUP1 PUSH2 0x94A PUSH2 0xC49 JUMP JUMPDEST PUSH1 0x0 DUP1 SLOAD DUP10 SWAP1 DUP2 LT PUSH2 0x958 JUMPI INVALID JUMPDEST PUSH1 0x0 SWAP2 DUP3 MSTORE PUSH1 0x20 SWAP2 DUP3 SWAP1 KECCAK256 PUSH1 0x40 DUP1 MLOAD PUSH1 0x5 SWAP4 SWAP1 SWAP4 MUL SWAP1 SWAP2 ADD DUP1 SLOAD PUSH1 0x2 PUSH1 0x1 DUP3 AND ISZERO PUSH2 0x100 MUL PUSH1 0x0 NOT ADD SWAP1 SWAP2 AND DIV PUSH1 0x1F DUP2 ADD DUP6 SWAP1 DIV SWAP1 SWAP5 MUL DUP4 ADD PUSH1 0xE0 SWAP1 DUP2 ADD SWAP1 SWAP3 MSTORE PUSH1 0xC0 DUP4 ADD DUP5 DUP2 MSTORE SWAP3 SWAP4 SWAP1 SWAP3 DUP5 SWAP3 SWAP1 SWAP2 DUP5 SWAP2 DUP5 ADD DUP3 DUP3 DUP1 ISZERO PUSH2 0x9FB JUMPI DUP1 PUSH1 0x1F LT PUSH2 0x9D0 JUMPI PUSH2 0x100 DUP1 DUP4 SLOAD DIV MUL DUP4 MSTORE SWAP2 PUSH1 0x20 ADD SWAP2 PUSH2 0x9FB JUMP JUMPDEST DUP3 ADD SWAP2 SWAP1 PUSH1 0x0 MSTORE PUSH1 0x20 PUSH1 0x0 KECCAK256 SWAP1 JUMPDEST DUP2 SLOAD DUP2 MSTORE SWAP1 PUSH1 0x1 ADD SWAP1 PUSH1 0x20 ADD DUP1 DUP4 GT PUSH2 0x9DE JUMPI DUP3 SWAP1 SUB PUSH1 0x1F AND DUP3 ADD SWAP2 JUMPDEST POP POP POP POP POP DUP2 MSTORE PUSH1 0x20 ADD PUSH1 0x1 DUP3 ADD DUP1 SLOAD PUSH1 0x1 DUP2 PUSH1 0x1 AND ISZERO PUSH2 0x100 MUL SUB AND PUSH1 0x2 SWAP1 DIV DUP1 PUSH1 0x1F ADD PUSH1 0x20 DUP1 SWAP2 DIV MUL PUSH1 0x20 ADD PUSH1 0x40 MLOAD SWAP1 DUP2 ADD PUSH1 0x40 MSTORE DUP1 SWAP3 SWAP2 SWAP1 DUP2 DUP2 MSTORE PUSH1 0x20 ADD DUP3 DUP1 SLOAD PUSH1 0x1 DUP2 PUSH1 0x1 AND ISZERO PUSH2 0x100 MUL SUB AND PUSH1 0x2 SWAP1 DIV DUP1 ISZERO PUSH2 0xA9D JUMPI DUP1 PUSH1 0x1F LT PUSH2 0xA72 JUMPI PUSH2 0x100 DUP1 DUP4 SLOAD DIV MUL DUP4 MSTORE SWAP2 PUSH1 0x20 ADD SWAP2 PUSH2 0xA9D JUMP JUMPDEST DUP3 ADD SWAP2 SWAP1 PUSH1 0x0 MSTORE PUSH1 0x20 PUSH1 0x0 KECCAK256 SWAP1 JUMPDEST DUP2 SLOAD DUP2 MSTORE SWAP1 PUSH1 0x1 ADD SWAP1 PUSH1 0x20 ADD DUP1 DUP4 GT PUSH2 0xA80 JUMPI DUP3 SWAP1 SUB PUSH1 0x1F AND DUP3 ADD SWAP2 JUMPDEST POP POP POP SWAP2 DUP4 MSTORE POP POP PUSH1 0x2 DUP3 ADD SLOAD PUSH1 0x1 PUSH1 0xA0 PUSH1 0x2 EXP SUB SWAP1 DUP2 AND PUSH1 0x20 DUP4 ADD MSTORE PUSH1 0x3 DUP4 ADD SLOAD DUP2 AND PUSH1 0x40 DUP4 ADD MSTORE PUSH1 0x4 DUP1 DUP5 ADD SLOAD SWAP2 DUP3 AND PUSH1 0x60 DUP5 ADD MSTORE PUSH1 0x80 SWAP1 SWAP3 ADD SWAP2 PUSH21 0x10000000000000000000000000000000000000000 SWAP1 SWAP2 DIV PUSH1 0xFF AND SWAP1 DUP2 GT ISZERO PUSH2 0xB00 JUMPI INVALID JUMPDEST PUSH1 0x4 DUP2 GT ISZERO PUSH2 0xB0B JUMPI INVALID JUMPDEST SWAP1 MSTORE POP DUP1 MLOAD PUSH1 0x20 DUP3 ADD MLOAD PUSH1 0x40 DUP4 ADD MLOAD PUSH1 0x60 DUP5 ADD MLOAD PUSH1 0x80 DUP6 ADD MLOAD PUSH1 0xA0 SWAP1 SWAP6 ADD MLOAD SWAP4 SWAP14 SWAP3 SWAP13 POP SWAP1 SWAP11 POP SWAP9 POP SWAP2 SWAP7 POP SWAP5 POP SWAP3 POP POP POP JUMP JUMPDEST PUSH1 0x0 DUP2 CALLER PUSH1 0x1 PUSH1 0xA0 PUSH1 0x2 EXP SUB AND PUSH1 0x0 DUP3 DUP2 SLOAD DUP2 LT ISZERO ISZERO PUSH2 0xB5B JUMPI INVALID JUMPDEST PUSH1 0x0 SWAP2 DUP3 MSTORE PUSH1 0x20 SWAP1 SWAP2 KECCAK256 PUSH1 0x4 PUSH1 0x5 SWAP1 SWAP3 MUL ADD ADD SLOAD PUSH1 0x1 PUSH1 0xA0 PUSH1 0x2 EXP SUB AND EQ PUSH2 0xB82 JUMPI PUSH1 0x0 DUP1 REVERT JUMPDEST DUP3 PUSH1 0x2 PUSH1 0x0 DUP1 SLOAD DUP4 SWAP1 DUP2 LT PUSH2 0xB93 JUMPI INVALID JUMPDEST SWAP1 PUSH1 0x0 MSTORE PUSH1 0x20 PUSH1 0x0 KECCAK256 SWAP1 PUSH1 0x5 MUL ADD PUSH1 0x4 ADD PUSH1 0x14 SWAP1 SLOAD SWAP1 PUSH2 0x100 EXP SWAP1 DIV PUSH1 0xFF AND PUSH1 0x4 DUP2 GT ISZERO PUSH2 0xBBD JUMPI INVALID JUMPDEST EQ PUSH2 0xBC7 JUMPI PUSH1 0x0 DUP1 REVERT JUMPDEST PUSH1 0x0 DUP1 SLOAD DUP6 SWAP1 DUP2 LT PUSH2 0xBD5 JUMPI INVALID JUMPDEST PUSH1 0x0 SWAP2 DUP3 MSTORE PUSH1 0x20 SWAP2 DUP3 SWAP1 KECCAK256 PUSH1 0x3 PUSH1 0x5 SWAP1 SWAP3 MUL ADD SWAP1 DUP2 ADD SLOAD PUSH1 0x2 DUP3 ADD SLOAD PUSH1 0x40 DUP1 MLOAD DUP10 DUP2 MSTORE SWAP1 MLOAD SWAP4 SWAP8 POP PUSH1 0x1 PUSH1 0xA0 PUSH1 0x2 EXP SUB SWAP3 DUP4 AND SWAP5 SWAP2 SWAP1 SWAP3 AND SWAP3 PUSH32 0x8AE2F67332C70E85A9BD2DC029A84B58B0E0B37EED94BB01FE19283E259F8592 SWAP3 DUP2 SWAP1 SUB SWAP1 SWAP2 ADD SWAP1 LOG3 PUSH1 0x3 PUSH1 0x0 DUP6 DUP2 SLOAD DUP2 LT ISZERO ISZERO PUSH2 0x90D JUMPI INVALID JUMPDEST PUSH1 0x40 DUP1 MLOAD PUSH1 0xC0 DUP2 ADD DUP3 MSTORE PUSH1 0x60 DUP1 DUP3 MSTORE PUSH1 0x20 DUP3 ADD DUP2 SWAP1 MSTORE PUSH1 0x0 SWAP3 DUP3 ADD DUP4 SWAP1 MSTORE DUP2 ADD DUP3 SWAP1 MSTORE PUSH1 0x80 DUP2 ADD DUP3 SWAP1 MSTORE SWAP1 PUSH1 0xA0 DUP3 ADD MSTORE SWAP1 JUMP JUMPDEST DUP3 DUP1 SLOAD PUSH1 0x1 DUP2 PUSH1 0x1 AND ISZERO PUSH2 0x100 MUL SUB AND PUSH1 0x2 SWAP1 DIV SWAP1 PUSH1 0x0 MSTORE PUSH1 0x20 PUSH1 0x0 KECCAK256 SWAP1 PUSH1 0x1F ADD PUSH1 0x20 SWAP1 DIV DUP2 ADD SWAP3 DUP3 PUSH1 0x1F LT PUSH2 0xCBD JUMPI DUP1 MLOAD PUSH1 0xFF NOT AND DUP4 DUP1 ADD OR DUP6 SSTORE PUSH2 0xCEA JUMP JUMPDEST DUP3 DUP1 ADD PUSH1 0x1 ADD DUP6 SSTORE DUP3 ISZERO PUSH2 0xCEA JUMPI SWAP2 DUP3 ADD JUMPDEST DUP3 DUP2 GT ISZERO PUSH2 0xCEA JUMPI DUP3 MLOAD DUP3 SSTORE SWAP2 PUSH1 0x20 ADD SWAP2 SWAP1 PUSH1 0x1 ADD SWAP1 PUSH2 0xCCF JUMP JUMPDEST POP PUSH2 0xCF6 SWAP3 SWAP2 POP PUSH2 0xCFA JUMP JUMPDEST POP SWAP1 JUMP JUMPDEST PUSH2 0x5DC SWAP2 SWAP1 JUMPDEST DUP1 DUP3 GT ISZERO PUSH2 0xCF6 JUMPI PUSH1 0x0 DUP2 SSTORE PUSH1 0x1 ADD PUSH2 0xD00 JUMP STOP LOG1 PUSH6 0x627A7A723058 KECCAK256 ISZERO 0xc 0xb1 SWAP4 0x46 MLOAD EXTCODECOPY 0x46 0xe8 0xca 0x2b 0x23 LOG2 0xd6 CALLVALUE 0x4b SWAP13 0x5f 0xc7 SWAP5 0xf 0xc8 0xaf DUP14 0xa5 PUSH8 0xAB6F9847B3E60029 "
				},
				"gasEstimates": {
					"creation": {
						"codeDepositCost": "678400",
						"executionCost": "708",
						"totalCost": "679108"
					},
					"external": {
						"acceptOrder(uint256)": "24938",
						"createOrder(string,string,address,address)": "infinite",
						"declineOrder(uint256)": "24894",
						"getOrder(uint256)": "infinite",
						"getOrderLength()": "451",
						"getSelfOrdersLength(address)": "606",
						"selfOrders(address,uint256)": "923",
						"startDeliveringOrder(uint256)": "24427",
						"stopDeliveringOrder(uint256)": "24394"
					}
				},
				"methodIdentifiers": {
					"acceptOrder(uint256)": "ef18e9ed",
					"createOrder(string,string,address,address)": "aa6e2a72",
					"declineOrder(uint256)": "ccbdb85c",
					"getOrder(uint256)": "d09ef241",
					"getOrderLength()": "9d4971b7",
					"getSelfOrdersLength(address)": "3ad14ed2",
					"selfOrders(address,uint256)": "a9d1af88",
					"startDeliveringOrder(uint256)": "84e9d538",
					"stopDeliveringOrder(uint256)": "6c484042"
				}
			},
			"userdoc": {
				"methods": {}
			}
		}
	}
}