{
	"supplychain.sol": {
		"SypplyChain": {
			"abi": [
				{
					"constant": false,
					"inputs": [
						{
							"name": "_index",
							"type": "uint256"
						}
					],
					"name": "stopDeliveringOrder",
					"outputs": [],
					"payable": false,
					"stateMutability": "nonpayable",
					"type": "function"
				},
				{
					"constant": false,
					"inputs": [
						{
							"name": "_index",
							"type": "uint256"
						}
					],
					"name": "startDeliveringOrder",
					"outputs": [],
					"payable": false,
					"stateMutability": "nonpayable",
					"type": "function"
				},
				{
					"constant": false,
					"inputs": [
						{
							"name": "_title",
							"type": "string"
						},
						{
							"name": "_description",
							"type": "string"
						},
						{
							"name": "_deliveryCompany",
							"type": "address"
						},
						{
							"name": "_customer",
							"type": "address"
						}
					],
					"name": "createOrder",
					"outputs": [
						{
							"name": "",
							"type": "uint256"
						}
					],
					"payable": false,
					"stateMutability": "nonpayable",
					"type": "function"
				},
				{
					"constant": false,
					"inputs": [
						{
							"name": "_index",
							"type": "uint256"
						}
					],
					"name": "declineOrder",
					"outputs": [],
					"payable": false,
					"stateMutability": "nonpayable",
					"type": "function"
				},
				{
					"constant": false,
					"inputs": [
						{
							"name": "_index",
							"type": "uint256"
						}
					],
					"name": "acceptOrder",
					"outputs": [],
					"payable": false,
					"stateMutability": "nonpayable",
					"type": "function"
				}
			],
			"devdoc": {
				"methods": {}
			},
			"evm": {
				"assembly": "    /* \"supplychain.sol\":29:2381  contract SypplyChain{\r... */\n  mstore(0x40, 0x80)\n  callvalue\n    /* \"--CODEGEN--\":8:17   */\n  dup1\n    /* \"--CODEGEN--\":5:7   */\n  iszero\n  tag_1\n  jumpi\n    /* \"--CODEGEN--\":30:31   */\n  0x0\n    /* \"--CODEGEN--\":27:28   */\n  dup1\n    /* \"--CODEGEN--\":20:32   */\n  revert\n    /* \"--CODEGEN--\":5:7   */\ntag_1:\n    /* \"supplychain.sol\":29:2381  contract SypplyChain{\r... */\n  pop\n  dataSize(sub_0)\n  dup1\n  dataOffset(sub_0)\n  0x0\n  codecopy\n  0x0\n  return\nstop\n\nsub_0: assembly {\n        /* \"supplychain.sol\":29:2381  contract SypplyChain{\r... */\n      mstore(0x40, 0x80)\n      jumpi(tag_1, lt(calldatasize, 0x4))\n      and(div(calldataload(0x0), 0x100000000000000000000000000000000000000000000000000000000), 0xffffffff)\n      0x6c484042\n      dup2\n      eq\n      tag_2\n      jumpi\n      dup1\n      0x84e9d538\n      eq\n      tag_3\n      jumpi\n      dup1\n      0xaa6e2a72\n      eq\n      tag_4\n      jumpi\n      dup1\n      0xccbdb85c\n      eq\n      tag_5\n      jumpi\n      dup1\n      0xef18e9ed\n      eq\n      tag_6\n      jumpi\n    tag_1:\n      0x0\n      dup1\n      revert\n        /* \"supplychain.sol\":1863:2078  function stopDeliveringOrder(uint256 _index) public onlyOrderDeliveringCompany(_index) orderDelivering(_index){\r... */\n    tag_2:\n      callvalue\n        /* \"--CODEGEN--\":8:17   */\n      dup1\n        /* \"--CODEGEN--\":5:7   */\n      iszero\n      tag_7\n      jumpi\n        /* \"--CODEGEN--\":30:31   */\n      0x0\n        /* \"--CODEGEN--\":27:28   */\n      dup1\n        /* \"--CODEGEN--\":20:32   */\n      revert\n        /* \"--CODEGEN--\":5:7   */\n    tag_7:\n      pop\n        /* \"supplychain.sol\":1863:2078  function stopDeliveringOrder(uint256 _index) public onlyOrderDeliveringCompany(_index) orderDelivering(_index){\r... */\n      tag_8\n      calldataload(0x4)\n      jump(tag_9)\n    tag_8:\n      stop\n        /* \"supplychain.sol\":1641:1854  function startDeliveringOrder(uint256 _index) public onlyOrderDeliveringCompany(_index) orderCreated(_index) {\r... */\n    tag_3:\n      callvalue\n        /* \"--CODEGEN--\":8:17   */\n      dup1\n        /* \"--CODEGEN--\":5:7   */\n      iszero\n      tag_10\n      jumpi\n        /* \"--CODEGEN--\":30:31   */\n      0x0\n        /* \"--CODEGEN--\":27:28   */\n      dup1\n        /* \"--CODEGEN--\":20:32   */\n      revert\n        /* \"--CODEGEN--\":5:7   */\n    tag_10:\n      pop\n        /* \"supplychain.sol\":1641:1854  function startDeliveringOrder(uint256 _index) public onlyOrderDeliveringCompany(_index) orderCreated(_index) {\r... */\n      tag_8\n      calldataload(0x4)\n      jump(tag_12)\n        /* \"supplychain.sol\":1054:1632  function createOrder(string _title, string _description, address _deliveryCompany, address _customer) public returns(uint256){\r... */\n    tag_4:\n      callvalue\n        /* \"--CODEGEN--\":8:17   */\n      dup1\n        /* \"--CODEGEN--\":5:7   */\n      iszero\n      tag_13\n      jumpi\n        /* \"--CODEGEN--\":30:31   */\n      0x0\n        /* \"--CODEGEN--\":27:28   */\n      dup1\n        /* \"--CODEGEN--\":20:32   */\n      revert\n        /* \"--CODEGEN--\":5:7   */\n    tag_13:\n      pop\n        /* \"supplychain.sol\":1054:1632  function createOrder(string _title, string _description, address _deliveryCompany, address _customer) public returns(uint256){\r... */\n      0x40\n      dup1\n      mload\n      0x20\n      0x4\n      dup1\n      calldataload\n      dup1\n      dup3\n      add\n      calldataload\n      0x1f\n      dup2\n      add\n      dup5\n      swap1\n      div\n      dup5\n      mul\n      dup6\n      add\n      dup5\n      add\n      swap1\n      swap6\n      mstore\n      dup5\n      dup5\n      mstore\n      tag_14\n      swap5\n      calldatasize\n      swap5\n      swap3\n      swap4\n      0x24\n      swap4\n      swap3\n      dup5\n      add\n      swap2\n      swap1\n      dup2\n      swap1\n      dup5\n      add\n      dup4\n      dup3\n      dup1\n      dup3\n      dup5\n      calldatacopy\n      pop\n      pop\n      0x40\n      dup1\n      mload\n      0x20\n      0x1f\n      dup10\n      calldataload\n      dup12\n      add\n      dup1\n      calldataload\n      swap2\n      dup3\n      add\n      dup4\n      swap1\n      div\n      dup4\n      mul\n      dup5\n      add\n      dup4\n      add\n      swap1\n      swap5\n      mstore\n      dup1\n      dup4\n      mstore\n      swap8\n      swap11\n      swap10\n      swap9\n      dup2\n      add\n      swap8\n      swap2\n      swap7\n      pop\n      swap2\n      dup3\n      add\n      swap5\n      pop\n      swap3\n      pop\n      dup3\n      swap2\n      pop\n      dup5\n      add\n      dup4\n      dup3\n      dup1\n      dup3\n      dup5\n      calldatacopy\n      pop\n      swap5\n      swap8\n      pop\n      pop\n      sub(exp(0x2, 0xa0), 0x1)\n      dup6\n      calldataload\n      dup2\n      and\n      swap7\n      pop\n      0x20\n      swap1\n      swap6\n      add\n      calldataload\n      swap1\n      swap5\n      and\n      swap4\n      pop\n      tag_15\n      swap3\n      pop\n      pop\n      pop\n      jump\n    tag_14:\n      0x40\n      dup1\n      mload\n      swap2\n      dup3\n      mstore\n      mload\n      swap1\n      dup2\n      swap1\n      sub\n      0x20\n      add\n      swap1\n      return\n        /* \"supplychain.sol\":2244:2372  function declineOrder(uint256 _index) public onlyCustomer(_index) {\r... */\n    tag_5:\n      callvalue\n        /* \"--CODEGEN--\":8:17   */\n      dup1\n        /* \"--CODEGEN--\":5:7   */\n      iszero\n      tag_16\n      jumpi\n        /* \"--CODEGEN--\":30:31   */\n      0x0\n        /* \"--CODEGEN--\":27:28   */\n      dup1\n        /* \"--CODEGEN--\":20:32   */\n      revert\n        /* \"--CODEGEN--\":5:7   */\n    tag_16:\n      pop\n        /* \"supplychain.sol\":2244:2372  function declineOrder(uint256 _index) public onlyCustomer(_index) {\r... */\n      tag_8\n      calldataload(0x4)\n      jump(tag_18)\n        /* \"supplychain.sol\":2087:2235  function acceptOrder(uint256 _index) public onlyCustomer(_index) orderDelivered(_index){\r... */\n    tag_6:\n      callvalue\n        /* \"--CODEGEN--\":8:17   */\n      dup1\n        /* \"--CODEGEN--\":5:7   */\n      iszero\n      tag_19\n      jumpi\n        /* \"--CODEGEN--\":30:31   */\n      0x0\n        /* \"--CODEGEN--\":27:28   */\n      dup1\n        /* \"--CODEGEN--\":20:32   */\n      revert\n        /* \"--CODEGEN--\":5:7   */\n    tag_19:\n      pop\n        /* \"supplychain.sol\":2087:2235  function acceptOrder(uint256 _index) public onlyCustomer(_index) orderDelivered(_index){\r... */\n      tag_8\n      calldataload(0x4)\n      jump(tag_21)\n        /* \"supplychain.sol\":1863:2078  function stopDeliveringOrder(uint256 _index) public onlyOrderDeliveringCompany(_index) orderDelivering(_index){\r... */\n    tag_9:\n        /* \"supplychain.sol\":1987:2006  Order storage order */\n      0x0\n        /* \"supplychain.sol\":1942:1948  _index */\n      dup2\n        /* \"supplychain.sol\":484:494  msg.sender */\n      caller\n      sub(exp(0x2, 0xa0), 0x1)\n        /* \"supplychain.sol\":450:494  orders[_index].deliveryCompany == msg.sender */\n      and\n        /* \"supplychain.sol\":450:456  orders */\n      0x0\n        /* \"supplychain.sol\":457:463  _index */\n      dup3\n        /* \"supplychain.sol\":450:464  orders[_index] */\n      dup2\n      sload\n      dup2\n      lt\n      iszero\n      iszero\n      tag_23\n      jumpi\n      invalid\n    tag_23:\n      0x0\n      swap2\n      dup3\n      mstore\n      0x20\n      swap1\n      swap2\n      keccak256\n        /* \"supplychain.sol\":450:480  orders[_index].deliveryCompany */\n      0x3\n        /* \"supplychain.sol\":450:464  orders[_index] */\n      0x5\n      swap1\n      swap3\n      mul\n      add\n        /* \"supplychain.sol\":450:480  orders[_index].deliveryCompany */\n      add\n      sload\n      sub(exp(0x2, 0xa0), 0x1)\n      and\n        /* \"supplychain.sol\":450:494  orders[_index].deliveryCompany == msg.sender */\n      eq\n        /* \"supplychain.sol\":442:495  require(orders[_index].deliveryCompany == msg.sender) */\n      tag_25\n      jumpi\n      0x0\n      dup1\n      revert\n    tag_25:\n        /* \"supplychain.sol\":1966:1972  _index */\n      dup3\n        /* \"supplychain.sol\":745:762  Status.Delivering */\n      0x1\n        /* \"supplychain.sol\":720:726  orders */\n      0x0\n        /* \"supplychain.sol\":720:734  orders[_index] */\n      dup1\n      sload\n        /* \"supplychain.sol\":727:733  _index */\n      dup4\n      swap1\n        /* \"supplychain.sol\":720:734  orders[_index] */\n      dup2\n      lt\n      tag_28\n      jumpi\n      invalid\n    tag_28:\n      swap1\n      0x0\n      mstore\n      keccak256(0x0, 0x20)\n      swap1\n      0x5\n      mul\n      add\n        /* \"supplychain.sol\":720:741  orders[_index].status */\n      0x4\n      add\n      0x14\n      swap1\n      sload\n      swap1\n      0x100\n      exp\n      swap1\n      div\n      0xff\n      and\n        /* \"supplychain.sol\":720:762  orders[_index].status == Status.Delivering */\n      0x4\n      dup2\n      gt\n      iszero\n      tag_30\n      jumpi\n      invalid\n    tag_30:\n      eq\n        /* \"supplychain.sol\":712:763  require(orders[_index].status == Status.Delivering) */\n      tag_31\n      jumpi\n      0x0\n      dup1\n      revert\n    tag_31:\n        /* \"supplychain.sol\":2009:2015  orders */\n      0x0\n        /* \"supplychain.sol\":2009:2023  orders[_index] */\n      dup1\n      sload\n        /* \"supplychain.sol\":2016:2022  _index */\n      dup6\n      swap1\n        /* \"supplychain.sol\":2009:2023  orders[_index] */\n      dup2\n      lt\n      tag_33\n      jumpi\n      invalid\n    tag_33:\n      0x0\n      swap2\n      dup3\n      mstore\n      0x20\n      swap1\n      swap2\n      keccak256\n      0x5\n      swap1\n      swap2\n      mul\n      add\n        /* \"supplychain.sol\":2036:2048  order.status */\n      0x4\n      dup2\n      add\n        /* \"supplychain.sol\":2036:2067  order.status = Status.Delivered */\n      dup1\n      sload\n        /* \"supplychain.sol\":2009:2023  orders[_index] */\n      swap2\n      swap5\n      pop\n        /* \"supplychain.sol\":2051:2067  Status.Delivered */\n      0x2\n      swap2\n      not(0xff0000000000000000000000000000000000000000)\n        /* \"supplychain.sol\":2036:2067  order.status = Status.Delivered */\n      and\n      0x10000000000000000000000000000000000000000\n        /* \"supplychain.sol\":2051:2067  Status.Delivered */\n      dup4\n        /* \"supplychain.sol\":2036:2067  order.status = Status.Delivered */\n    tag_35:\n      mul\n      or\n      swap1\n      sstore\n      pop\n        /* \"supplychain.sol\":506:507  _ */\n      pop\n        /* \"supplychain.sol\":1863:2078  function stopDeliveringOrder(uint256 _index) public onlyOrderDeliveringCompany(_index) orderDelivering(_index){\r... */\n      pop\n      pop\n      pop\n      jump\t// out\n        /* \"supplychain.sol\":1641:1854  function startDeliveringOrder(uint256 _index) public onlyOrderDeliveringCompany(_index) orderCreated(_index) {\r... */\n    tag_12:\n        /* \"supplychain.sol\":1764:1783  Order storage order */\n      0x0\n        /* \"supplychain.sol\":1721:1727  _index */\n      dup2\n        /* \"supplychain.sol\":484:494  msg.sender */\n      caller\n      sub(exp(0x2, 0xa0), 0x1)\n        /* \"supplychain.sol\":450:494  orders[_index].deliveryCompany == msg.sender */\n      and\n        /* \"supplychain.sol\":450:456  orders */\n      0x0\n        /* \"supplychain.sol\":457:463  _index */\n      dup3\n        /* \"supplychain.sol\":450:464  orders[_index] */\n      dup2\n      sload\n      dup2\n      lt\n      iszero\n      iszero\n      tag_37\n      jumpi\n      invalid\n    tag_37:\n      0x0\n      swap2\n      dup3\n      mstore\n      0x20\n      swap1\n      swap2\n      keccak256\n        /* \"supplychain.sol\":450:480  orders[_index].deliveryCompany */\n      0x3\n        /* \"supplychain.sol\":450:464  orders[_index] */\n      0x5\n      swap1\n      swap3\n      mul\n      add\n        /* \"supplychain.sol\":450:480  orders[_index].deliveryCompany */\n      add\n      sload\n      sub(exp(0x2, 0xa0), 0x1)\n      and\n        /* \"supplychain.sol\":450:494  orders[_index].deliveryCompany == msg.sender */\n      eq\n        /* \"supplychain.sol\":442:495  require(orders[_index].deliveryCompany == msg.sender) */\n      tag_39\n      jumpi\n      0x0\n      dup1\n      revert\n    tag_39:\n        /* \"supplychain.sol\":1742:1748  _index */\n      dup3\n        /* \"supplychain.sol\":611:625  Status.Created */\n      0x0\n        /* \"supplychain.sol\":586:592  orders */\n      dup1\n        /* \"supplychain.sol\":586:600  orders[_index] */\n      dup1\n      sload\n        /* \"supplychain.sol\":593:599  _index */\n      dup4\n      swap1\n        /* \"supplychain.sol\":586:600  orders[_index] */\n      dup2\n      lt\n      tag_42\n      jumpi\n      invalid\n    tag_42:\n      swap1\n      0x0\n      mstore\n      keccak256(0x0, 0x20)\n      swap1\n      0x5\n      mul\n      add\n        /* \"supplychain.sol\":586:607  orders[_index].status */\n      0x4\n      add\n      0x14\n      swap1\n      sload\n      swap1\n      0x100\n      exp\n      swap1\n      div\n      0xff\n      and\n        /* \"supplychain.sol\":586:625  orders[_index].status == Status.Created */\n      0x4\n      dup2\n      gt\n      iszero\n      tag_44\n      jumpi\n      invalid\n    tag_44:\n      eq\n        /* \"supplychain.sol\":578:626  require(orders[_index].status == Status.Created) */\n      tag_45\n      jumpi\n      0x0\n      dup1\n      revert\n    tag_45:\n        /* \"supplychain.sol\":1786:1792  orders */\n      0x0\n        /* \"supplychain.sol\":1786:1800  orders[_index] */\n      dup1\n      sload\n        /* \"supplychain.sol\":1793:1799  _index */\n      dup6\n      swap1\n        /* \"supplychain.sol\":1786:1800  orders[_index] */\n      dup2\n      lt\n      tag_47\n      jumpi\n      invalid\n    tag_47:\n      0x0\n      swap2\n      dup3\n      mstore\n      0x20\n      swap1\n      swap2\n      keccak256\n      0x5\n      swap1\n      swap2\n      mul\n      add\n        /* \"supplychain.sol\":1811:1823  order.status */\n      0x4\n      dup2\n      add\n        /* \"supplychain.sol\":1811:1843  order.status = Status.Delivering */\n      dup1\n      sload\n        /* \"supplychain.sol\":1786:1800  orders[_index] */\n      swap2\n      swap5\n      pop\n        /* \"supplychain.sol\":1826:1843  Status.Delivering */\n      0x1\n      swap2\n      not(0xff0000000000000000000000000000000000000000)\n        /* \"supplychain.sol\":1811:1843  order.status = Status.Delivering */\n      and\n      0x10000000000000000000000000000000000000000\n        /* \"supplychain.sol\":1826:1843  Status.Delivering */\n      dup4\n        /* \"supplychain.sol\":1811:1843  order.status = Status.Delivering */\n      jump(tag_35)\n        /* \"supplychain.sol\":1054:1632  function createOrder(string _title, string _description, address _deliveryCompany, address _customer) public returns(uint256){\r... */\n    tag_15:\n        /* \"supplychain.sol\":1171:1178  uint256 */\n      0x0\n        /* \"supplychain.sol\":1202:1220  Order memory order */\n      tag_50\n      jump\t// in(tag_51)\n    tag_50:\n      pop\n        /* \"supplychain.sol\":1223:1516  Order ({\r... */\n      0x40\n      dup1\n      mload\n      0xc0\n      dup2\n      add\n      dup3\n      mstore\n      dup7\n      dup2\n      mstore\n      0x20\n      dup2\n      add\n      dup7\n      swap1\n      mstore\n        /* \"supplychain.sol\":1350:1360  msg.sender */\n      caller\n        /* \"supplychain.sol\":1223:1516  Order ({\r... */\n      swap2\n      dup2\n      add\n      swap2\n      swap1\n      swap2\n      mstore\n      sub(exp(0x2, 0xa0), 0x1)\n      dup5\n      dup2\n      and\n      0x60\n      dup4\n      add\n      mstore\n      dup4\n      and\n      0x80\n      dup3\n      add\n      mstore\n      0x0\n      0xa0\n      dup3\n      add\n      dup2\n      swap1\n      mstore\n        /* \"supplychain.sol\":1553:1566  orders.length */\n      dup1\n      sload\n        /* \"supplychain.sol\":1567:1568  1 */\n      0x1\n        /* \"supplychain.sol\":1553:1568  orders.length+1 */\n      dup2\n      add\n      swap2\n        /* \"supplychain.sol\":1223:1516  Order ({\r... */\n      dup4\n      swap2\n        /* \"supplychain.sol\":1553:1568  orders.length+1 */\n      dup4\n      swap1\n        /* \"supplychain.sol\":1580:1593  orders[index] */\n      dup2\n      lt\n      tag_54\n      jumpi\n      invalid\n    tag_54:\n      swap1\n      0x0\n      mstore\n      keccak256(0x0, 0x20)\n      swap1\n      0x5\n      mul\n      add\n        /* \"supplychain.sol\":1580:1600  orders[index]= order */\n      0x0\n      dup3\n      add\n      mload\n      dup2\n      0x0\n      add\n      swap1\n      dup1\n      mload\n      swap1\n      0x20\n      add\n      swap1\n      tag_56\n      swap3\n      swap2\n      swap1\n      jump\t// in(tag_57)\n    tag_56:\n      pop\n      0x20\n      dup3\n      dup2\n      add\n      mload\n      dup1\n      mload\n      tag_58\n      swap3\n      0x1\n      dup6\n      add\n      swap3\n      add\n      swap1\n      jump\t// in(tag_57)\n    tag_58:\n      pop\n      0x40\n      dup3\n      add\n      mload\n      0x2\n      dup3\n      add\n      dup1\n      sload\n      not(0xffffffffffffffffffffffffffffffffffffffff)\n      swap1\n      dup2\n      and\n      sub(exp(0x2, 0xa0), 0x1)\n      swap4\n      dup5\n      and\n      or\n      swap1\n      swap2\n      sstore\n      0x60\n      dup5\n      add\n      mload\n      0x3\n      dup5\n      add\n      dup1\n      sload\n      dup4\n      and\n      swap2\n      dup5\n      and\n      swap2\n      swap1\n      swap2\n      or\n      swap1\n      sstore\n      0x80\n      dup5\n      add\n      mload\n      0x4\n      dup1\n      dup6\n      add\n      dup1\n      sload\n      swap1\n      swap4\n      and\n      swap2\n      swap1\n      swap4\n      and\n      or\n      dup1\n      dup3\n      sstore\n      0xa0\n      dup6\n      add\n      mload\n      swap3\n      not(0xff0000000000000000000000000000000000000000)\n      swap1\n      swap2\n      and\n      swap1\n      0x10000000000000000000000000000000000000000\n      swap1\n      dup5\n      swap1\n      dup2\n      gt\n      iszero\n      tag_59\n      jumpi\n      invalid\n    tag_59:\n      mul\n      or\n      swap1\n      sstore\n      pop\n        /* \"supplychain.sol\":1619:1624  index */\n      swap2\n      swap9\n        /* \"supplychain.sol\":1054:1632  function createOrder(string _title, string _description, address _deliveryCompany, address _customer) public returns(uint256){\r... */\n      swap8\n      pop\n      pop\n      pop\n      pop\n      pop\n      pop\n      pop\n      pop\n      jump\t// out\n        /* \"supplychain.sol\":2244:2372  function declineOrder(uint256 _index) public onlyCustomer(_index) {\r... */\n    tag_18:\n        /* \"supplychain.sol\":987:993  orders */\n      0x0\n        /* \"supplychain.sol\":987:1001  orders[_index] */\n      dup1\n      sload\n        /* \"supplychain.sol\":2302:2308  _index */\n      dup3\n      swap2\n        /* \"supplychain.sol\":1014:1024  msg.sender */\n      caller\n      swap2\n        /* \"supplychain.sol\":2302:2308  _index */\n      dup4\n      swap1\n        /* \"supplychain.sol\":987:1001  orders[_index] */\n      dup2\n      lt\n      tag_61\n      jumpi\n      invalid\n    tag_61:\n      0x0\n      swap2\n      dup3\n      mstore\n      0x20\n      swap1\n      swap2\n      keccak256\n        /* \"supplychain.sol\":987:1010  orders[_index].customer */\n      0x4\n        /* \"supplychain.sol\":987:1001  orders[_index] */\n      0x5\n      swap1\n      swap3\n      mul\n      add\n        /* \"supplychain.sol\":987:1010  orders[_index].customer */\n      add\n      sload\n      sub(exp(0x2, 0xa0), 0x1)\n      and\n        /* \"supplychain.sol\":987:1024  orders[_index].customer == msg.sender */\n      eq\n        /* \"supplychain.sol\":979:1025  require(orders[_index].customer == msg.sender) */\n      tag_63\n      jumpi\n      0x0\n      dup1\n      revert\n    tag_63:\n        /* \"supplychain.sol\":2345:2361  Status.Decliened */\n      0x4\n        /* \"supplychain.sol\":2321:2327  orders */\n      0x0\n        /* \"supplychain.sol\":2328:2334  _index */\n      dup4\n        /* \"supplychain.sol\":2321:2335  orders[_index] */\n      dup2\n      sload\n      dup2\n      lt\n      iszero\n      iszero\n      tag_65\n      jumpi\n      invalid\n    tag_65:\n      swap1\n      0x0\n      mstore\n      keccak256(0x0, 0x20)\n      swap1\n      0x5\n      mul\n      add\n        /* \"supplychain.sol\":2321:2342  orders[_index].status */\n      0x4\n      add\n      0x14\n        /* \"supplychain.sol\":2321:2361  orders[_index].status = Status.Decliened */\n      0x100\n      exp\n      dup2\n      sload\n      dup2\n      0xff\n      mul\n      not\n      and\n      swap1\n      dup4\n      0x4\n      dup2\n      gt\n      iszero\n      tag_67\n      jumpi\n      invalid\n    tag_67:\n      mul\n      or\n      swap1\n      sstore\n      pop\n        /* \"supplychain.sol\":2244:2372  function declineOrder(uint256 _index) public onlyCustomer(_index) {\r... */\n      pop\n      pop\n      jump\t// out\n        /* \"supplychain.sol\":2087:2235  function acceptOrder(uint256 _index) public onlyCustomer(_index) orderDelivered(_index){\r... */\n    tag_21:\n        /* \"supplychain.sol\":987:993  orders */\n      0x0\n        /* \"supplychain.sol\":987:1001  orders[_index] */\n      dup1\n      sload\n        /* \"supplychain.sol\":2144:2150  _index */\n      dup3\n      swap2\n        /* \"supplychain.sol\":1014:1024  msg.sender */\n      caller\n      swap2\n        /* \"supplychain.sol\":2144:2150  _index */\n      dup4\n      swap1\n        /* \"supplychain.sol\":987:1001  orders[_index] */\n      dup2\n      lt\n      tag_69\n      jumpi\n      invalid\n    tag_69:\n      0x0\n      swap2\n      dup3\n      mstore\n      0x20\n      swap1\n      swap2\n      keccak256\n        /* \"supplychain.sol\":987:1010  orders[_index].customer */\n      0x4\n        /* \"supplychain.sol\":987:1001  orders[_index] */\n      0x5\n      swap1\n      swap3\n      mul\n      add\n        /* \"supplychain.sol\":987:1010  orders[_index].customer */\n      add\n      sload\n      sub(exp(0x2, 0xa0), 0x1)\n      and\n        /* \"supplychain.sol\":987:1024  orders[_index].customer == msg.sender */\n      eq\n        /* \"supplychain.sol\":979:1025  require(orders[_index].customer == msg.sender) */\n      tag_71\n      jumpi\n      0x0\n      dup1\n      revert\n    tag_71:\n        /* \"supplychain.sol\":2167:2173  _index */\n      dup2\n        /* \"supplychain.sol\":882:897  Status.Accepted */\n      0x3\n        /* \"supplychain.sol\":857:863  orders */\n      0x0\n        /* \"supplychain.sol\":857:871  orders[_index] */\n      dup1\n      sload\n        /* \"supplychain.sol\":864:870  _index */\n      dup4\n      swap1\n        /* \"supplychain.sol\":857:871  orders[_index] */\n      dup2\n      lt\n      tag_74\n      jumpi\n      invalid\n    tag_74:\n      swap1\n      0x0\n      mstore\n      keccak256(0x0, 0x20)\n      swap1\n      0x5\n      mul\n      add\n        /* \"supplychain.sol\":857:878  orders[_index].status */\n      0x4\n      add\n      0x14\n      swap1\n      sload\n      swap1\n      0x100\n      exp\n      swap1\n      div\n      0xff\n      and\n        /* \"supplychain.sol\":857:897  orders[_index].status == Status.Accepted */\n      0x4\n      dup2\n      gt\n      iszero\n      tag_76\n      jumpi\n      invalid\n    tag_76:\n      eq\n        /* \"supplychain.sol\":849:898  require(orders[_index].status == Status.Accepted) */\n      tag_77\n      jumpi\n      0x0\n      dup1\n      revert\n    tag_77:\n        /* \"supplychain.sol\":2209:2224  Status.Accepted */\n      0x3\n        /* \"supplychain.sol\":2185:2191  orders */\n      0x0\n        /* \"supplychain.sol\":2192:2198  _index */\n      dup5\n        /* \"supplychain.sol\":2185:2199  orders[_index] */\n      dup2\n      sload\n      dup2\n      lt\n      iszero\n      iszero\n      tag_79\n      jumpi\n      invalid\n    tag_79:\n      swap1\n      0x0\n      mstore\n      keccak256(0x0, 0x20)\n      swap1\n      0x5\n      mul\n      add\n        /* \"supplychain.sol\":2185:2206  orders[_index].status */\n      0x4\n      add\n      0x14\n        /* \"supplychain.sol\":2185:2224  orders[_index].status = Status.Accepted */\n      0x100\n      exp\n      dup2\n      sload\n      dup2\n      0xff\n      mul\n      not\n      and\n      swap1\n      dup4\n      0x4\n      dup2\n      gt\n      iszero\n      tag_81\n      jumpi\n      invalid\n    tag_81:\n      mul\n      or\n      swap1\n      sstore\n      pop\n        /* \"supplychain.sol\":1036:1037  _ */\n      pop\n        /* \"supplychain.sol\":2087:2235  function acceptOrder(uint256 _index) public onlyCustomer(_index) orderDelivered(_index){\r... */\n      pop\n      pop\n      jump\t// out\n        /* \"supplychain.sol\":29:2381  contract SypplyChain{\r... */\n    tag_51:\n      0x40\n      dup1\n      mload\n      0xc0\n      dup2\n      add\n      dup3\n      mstore\n      0x60\n      dup1\n      dup3\n      mstore\n      0x20\n      dup3\n      add\n      dup2\n      swap1\n      mstore\n      0x0\n      swap3\n      dup3\n      add\n      dup4\n      swap1\n      mstore\n      dup2\n      add\n      dup3\n      swap1\n      mstore\n      0x80\n      dup2\n      add\n      dup3\n      swap1\n      mstore\n      swap1\n      0xa0\n      dup3\n      add\n      mstore\n      swap1\n      jump\t// out\n    tag_57:\n      dup3\n      dup1\n      sload\n      0x1\n      dup2\n      0x1\n      and\n      iszero\n      0x100\n      mul\n      sub\n      and\n      0x2\n      swap1\n      div\n      swap1\n      0x0\n      mstore\n      keccak256(0x0, 0x20)\n      swap1\n      0x1f\n      add\n      0x20\n      swap1\n      div\n      dup2\n      add\n      swap3\n      dup3\n      0x1f\n      lt\n      tag_84\n      jumpi\n      dup1\n      mload\n      not(0xff)\n      and\n      dup4\n      dup1\n      add\n      or\n      dup6\n      sstore\n      jump(tag_86)\n    tag_84:\n      dup3\n      dup1\n      add\n      0x1\n      add\n      dup6\n      sstore\n      dup3\n      iszero\n      tag_86\n      jumpi\n      swap2\n      dup3\n      add\n    tag_85:\n      dup3\n      dup2\n      gt\n      iszero\n      tag_86\n      jumpi\n      dup3\n      mload\n      dup3\n      sstore\n      swap2\n      0x20\n      add\n      swap2\n      swap1\n      0x1\n      add\n      swap1\n      jump(tag_85)\n    tag_86:\n      pop\n      tag_87\n      swap3\n      swap2\n      pop\n      jump\t// in(tag_88)\n    tag_87:\n      pop\n      swap1\n      jump\t// out\n    tag_88:\n      tag_89\n      swap2\n      swap1\n    tag_90:\n      dup1\n      dup3\n      gt\n      iszero\n      tag_87\n      jumpi\n      0x0\n      dup2\n      sstore\n      0x1\n      add\n      jump(tag_90)\n    tag_89:\n      swap1\n      jump\t// out\n\n    auxdata: 0xa165627a7a723058204ec73cb375044484f3be6084c9cc2c8b8383646ac8efa71f3556850678d608bb0029\n}\n",
				"bytecode": {
					"linkReferences": {},
					"object": "608060405234801561001057600080fd5b506106f5806100206000396000f30060806040526004361061006c5763ffffffff7c01000000000000000000000000000000000000000000000000000000006000350416636c484042811461007157806384e9d5381461008b578063aa6e2a72146100a3578063ccbdb85c14610162578063ef18e9ed1461017a575b600080fd5b34801561007d57600080fd5b50610089600435610192565b005b34801561009757600080fd5b5061008960043561027f565b3480156100af57600080fd5b506040805160206004803580820135601f810184900484028501840190955284845261015094369492936024939284019190819084018382808284375050604080516020601f89358b018035918201839004830284018301909452808352979a99988101979196509182019450925082915084018382808284375094975050600160a060020a03853581169650602090950135909416935061036492505050565b60408051918252519081900360200190f35b34801561016e57600080fd5b506100896004356104b7565b34801561018657600080fd5b50610089600435610536565b60008133600160a060020a03166000828154811015156101ae57fe5b6000918252602090912060036005909202010154600160a060020a0316146101d557600080fd5b82600160008054839081106101e657fe5b906000526020600020906005020160040160149054906101000a900460ff16600481111561021057fe5b1461021a57600080fd5b600080548590811061022857fe5b6000918252602090912060059091020160048101805491945060029174ff0000000000000000000000000000000000000000191674010000000000000000000000000000000000000000835b021790555050505050565b60008133600160a060020a031660008281548110151561029b57fe5b6000918252602090912060036005909202010154600160a060020a0316146102c257600080fd5b826000808054839081106102d257fe5b906000526020600020906005020160040160149054906101000a900460ff1660048111156102fc57fe5b1461030657600080fd5b600080548590811061031457fe5b6000918252602090912060059091020160048101805491945060019174ff000000000000000000000000000000000000000019167401000000000000000000000000000000000000000083610274565b600061036e6105fb565b506040805160c081018252868152602081018690523391810191909152600160a060020a03848116606083015283166080820152600060a08201819052805460018101918391839081106103be57fe5b906000526020600020906005020160008201518160000190805190602001906103e892919061062e565b506020828101518051610401926001850192019061062e565b50604082015160028201805473ffffffffffffffffffffffffffffffffffffffff19908116600160a060020a039384161790915560608401516003840180548316918416919091179055608084015160048085018054909316919093161780825560a08501519274ff00000000000000000000000000000000000000001990911690740100000000000000000000000000000000000000009084908111156104a557fe5b02179055509198975050505050505050565b6000805482913391839081106104c957fe5b6000918252602090912060046005909202010154600160a060020a0316146104f057600080fd5b600460008381548110151561050157fe5b906000526020600020906005020160040160146101000a81548160ff0219169083600481111561052d57fe5b02179055505050565b60008054829133918390811061054857fe5b6000918252602090912060046005909202010154600160a060020a03161461056f57600080fd5b816003600080548390811061058057fe5b906000526020600020906005020160040160149054906101000a900460ff1660048111156105aa57fe5b146105b457600080fd5b60036000848154811015156105c557fe5b906000526020600020906005020160040160146101000a81548160ff021916908360048111156105f157fe5b0217905550505050565b6040805160c08101825260608082526020820181905260009282018390528101829052608081018290529060a082015290565b828054600181600116156101000203166002900490600052602060002090601f016020900481019282601f1061066f57805160ff191683800117855561069c565b8280016001018555821561069c579182015b8281111561069c578251825591602001919060010190610681565b506106a89291506106ac565b5090565b6106c691905b808211156106a857600081556001016106b2565b905600a165627a7a723058204ec73cb375044484f3be6084c9cc2c8b8383646ac8efa71f3556850678d608bb0029",
					"opcodes": "PUSH1 0x80 PUSH1 0x40 MSTORE CALLVALUE DUP1 ISZERO PUSH2 0x10 JUMPI PUSH1 0x0 DUP1 REVERT JUMPDEST POP PUSH2 0x6F5 DUP1 PUSH2 0x20 PUSH1 0x0 CODECOPY PUSH1 0x0 RETURN STOP PUSH1 0x80 PUSH1 0x40 MSTORE PUSH1 0x4 CALLDATASIZE LT PUSH2 0x6C JUMPI PUSH4 0xFFFFFFFF PUSH29 0x100000000000000000000000000000000000000000000000000000000 PUSH1 0x0 CALLDATALOAD DIV AND PUSH4 0x6C484042 DUP2 EQ PUSH2 0x71 JUMPI DUP1 PUSH4 0x84E9D538 EQ PUSH2 0x8B JUMPI DUP1 PUSH4 0xAA6E2A72 EQ PUSH2 0xA3 JUMPI DUP1 PUSH4 0xCCBDB85C EQ PUSH2 0x162 JUMPI DUP1 PUSH4 0xEF18E9ED EQ PUSH2 0x17A JUMPI JUMPDEST PUSH1 0x0 DUP1 REVERT JUMPDEST CALLVALUE DUP1 ISZERO PUSH2 0x7D JUMPI PUSH1 0x0 DUP1 REVERT JUMPDEST POP PUSH2 0x89 PUSH1 0x4 CALLDATALOAD PUSH2 0x192 JUMP JUMPDEST STOP JUMPDEST CALLVALUE DUP1 ISZERO PUSH2 0x97 JUMPI PUSH1 0x0 DUP1 REVERT JUMPDEST POP PUSH2 0x89 PUSH1 0x4 CALLDATALOAD PUSH2 0x27F JUMP JUMPDEST CALLVALUE DUP1 ISZERO PUSH2 0xAF JUMPI PUSH1 0x0 DUP1 REVERT JUMPDEST POP PUSH1 0x40 DUP1 MLOAD PUSH1 0x20 PUSH1 0x4 DUP1 CALLDATALOAD DUP1 DUP3 ADD CALLDATALOAD PUSH1 0x1F DUP2 ADD DUP5 SWAP1 DIV DUP5 MUL DUP6 ADD DUP5 ADD SWAP1 SWAP6 MSTORE DUP5 DUP5 MSTORE PUSH2 0x150 SWAP5 CALLDATASIZE SWAP5 SWAP3 SWAP4 PUSH1 0x24 SWAP4 SWAP3 DUP5 ADD SWAP2 SWAP1 DUP2 SWAP1 DUP5 ADD DUP4 DUP3 DUP1 DUP3 DUP5 CALLDATACOPY POP POP PUSH1 0x40 DUP1 MLOAD PUSH1 0x20 PUSH1 0x1F DUP10 CALLDATALOAD DUP12 ADD DUP1 CALLDATALOAD SWAP2 DUP3 ADD DUP4 SWAP1 DIV DUP4 MUL DUP5 ADD DUP4 ADD SWAP1 SWAP5 MSTORE DUP1 DUP4 MSTORE SWAP8 SWAP11 SWAP10 SWAP9 DUP2 ADD SWAP8 SWAP2 SWAP7 POP SWAP2 DUP3 ADD SWAP5 POP SWAP3 POP DUP3 SWAP2 POP DUP5 ADD DUP4 DUP3 DUP1 DUP3 DUP5 CALLDATACOPY POP SWAP5 SWAP8 POP POP PUSH1 0x1 PUSH1 0xA0 PUSH1 0x2 EXP SUB DUP6 CALLDATALOAD DUP2 AND SWAP7 POP PUSH1 0x20 SWAP1 SWAP6 ADD CALLDATALOAD SWAP1 SWAP5 AND SWAP4 POP PUSH2 0x364 SWAP3 POP POP POP JUMP JUMPDEST PUSH1 0x40 DUP1 MLOAD SWAP2 DUP3 MSTORE MLOAD SWAP1 DUP2 SWAP1 SUB PUSH1 0x20 ADD SWAP1 RETURN JUMPDEST CALLVALUE DUP1 ISZERO PUSH2 0x16E JUMPI PUSH1 0x0 DUP1 REVERT JUMPDEST POP PUSH2 0x89 PUSH1 0x4 CALLDATALOAD PUSH2 0x4B7 JUMP JUMPDEST CALLVALUE DUP1 ISZERO PUSH2 0x186 JUMPI PUSH1 0x0 DUP1 REVERT JUMPDEST POP PUSH2 0x89 PUSH1 0x4 CALLDATALOAD PUSH2 0x536 JUMP JUMPDEST PUSH1 0x0 DUP2 CALLER PUSH1 0x1 PUSH1 0xA0 PUSH1 0x2 EXP SUB AND PUSH1 0x0 DUP3 DUP2 SLOAD DUP2 LT ISZERO ISZERO PUSH2 0x1AE JUMPI INVALID JUMPDEST PUSH1 0x0 SWAP2 DUP3 MSTORE PUSH1 0x20 SWAP1 SWAP2 KECCAK256 PUSH1 0x3 PUSH1 0x5 SWAP1 SWAP3 MUL ADD ADD SLOAD PUSH1 0x1 PUSH1 0xA0 PUSH1 0x2 EXP SUB AND EQ PUSH2 0x1D5 JUMPI PUSH1 0x0 DUP1 REVERT JUMPDEST DUP3 PUSH1 0x1 PUSH1 0x0 DUP1 SLOAD DUP4 SWAP1 DUP2 LT PUSH2 0x1E6 JUMPI INVALID JUMPDEST SWAP1 PUSH1 0x0 MSTORE PUSH1 0x20 PUSH1 0x0 KECCAK256 SWAP1 PUSH1 0x5 MUL ADD PUSH1 0x4 ADD PUSH1 0x14 SWAP1 SLOAD SWAP1 PUSH2 0x100 EXP SWAP1 DIV PUSH1 0xFF AND PUSH1 0x4 DUP2 GT ISZERO PUSH2 0x210 JUMPI INVALID JUMPDEST EQ PUSH2 0x21A JUMPI PUSH1 0x0 DUP1 REVERT JUMPDEST PUSH1 0x0 DUP1 SLOAD DUP6 SWAP1 DUP2 LT PUSH2 0x228 JUMPI INVALID JUMPDEST PUSH1 0x0 SWAP2 DUP3 MSTORE PUSH1 0x20 SWAP1 SWAP2 KECCAK256 PUSH1 0x5 SWAP1 SWAP2 MUL ADD PUSH1 0x4 DUP2 ADD DUP1 SLOAD SWAP2 SWAP5 POP PUSH1 0x2 SWAP2 PUSH21 0xFF0000000000000000000000000000000000000000 NOT AND PUSH21 0x10000000000000000000000000000000000000000 DUP4 JUMPDEST MUL OR SWAP1 SSTORE POP POP POP POP POP JUMP JUMPDEST PUSH1 0x0 DUP2 CALLER PUSH1 0x1 PUSH1 0xA0 PUSH1 0x2 EXP SUB AND PUSH1 0x0 DUP3 DUP2 SLOAD DUP2 LT ISZERO ISZERO PUSH2 0x29B JUMPI INVALID JUMPDEST PUSH1 0x0 SWAP2 DUP3 MSTORE PUSH1 0x20 SWAP1 SWAP2 KECCAK256 PUSH1 0x3 PUSH1 0x5 SWAP1 SWAP3 MUL ADD ADD SLOAD PUSH1 0x1 PUSH1 0xA0 PUSH1 0x2 EXP SUB AND EQ PUSH2 0x2C2 JUMPI PUSH1 0x0 DUP1 REVERT JUMPDEST DUP3 PUSH1 0x0 DUP1 DUP1 SLOAD DUP4 SWAP1 DUP2 LT PUSH2 0x2D2 JUMPI INVALID JUMPDEST SWAP1 PUSH1 0x0 MSTORE PUSH1 0x20 PUSH1 0x0 KECCAK256 SWAP1 PUSH1 0x5 MUL ADD PUSH1 0x4 ADD PUSH1 0x14 SWAP1 SLOAD SWAP1 PUSH2 0x100 EXP SWAP1 DIV PUSH1 0xFF AND PUSH1 0x4 DUP2 GT ISZERO PUSH2 0x2FC JUMPI INVALID JUMPDEST EQ PUSH2 0x306 JUMPI PUSH1 0x0 DUP1 REVERT JUMPDEST PUSH1 0x0 DUP1 SLOAD DUP6 SWAP1 DUP2 LT PUSH2 0x314 JUMPI INVALID JUMPDEST PUSH1 0x0 SWAP2 DUP3 MSTORE PUSH1 0x20 SWAP1 SWAP2 KECCAK256 PUSH1 0x5 SWAP1 SWAP2 MUL ADD PUSH1 0x4 DUP2 ADD DUP1 SLOAD SWAP2 SWAP5 POP PUSH1 0x1 SWAP2 PUSH21 0xFF0000000000000000000000000000000000000000 NOT AND PUSH21 0x10000000000000000000000000000000000000000 DUP4 PUSH2 0x274 JUMP JUMPDEST PUSH1 0x0 PUSH2 0x36E PUSH2 0x5FB JUMP JUMPDEST POP PUSH1 0x40 DUP1 MLOAD PUSH1 0xC0 DUP2 ADD DUP3 MSTORE DUP7 DUP2 MSTORE PUSH1 0x20 DUP2 ADD DUP7 SWAP1 MSTORE CALLER SWAP2 DUP2 ADD SWAP2 SWAP1 SWAP2 MSTORE PUSH1 0x1 PUSH1 0xA0 PUSH1 0x2 EXP SUB DUP5 DUP2 AND PUSH1 0x60 DUP4 ADD MSTORE DUP4 AND PUSH1 0x80 DUP3 ADD MSTORE PUSH1 0x0 PUSH1 0xA0 DUP3 ADD DUP2 SWAP1 MSTORE DUP1 SLOAD PUSH1 0x1 DUP2 ADD SWAP2 DUP4 SWAP2 DUP4 SWAP1 DUP2 LT PUSH2 0x3BE JUMPI INVALID JUMPDEST SWAP1 PUSH1 0x0 MSTORE PUSH1 0x20 PUSH1 0x0 KECCAK256 SWAP1 PUSH1 0x5 MUL ADD PUSH1 0x0 DUP3 ADD MLOAD DUP2 PUSH1 0x0 ADD SWAP1 DUP1 MLOAD SWAP1 PUSH1 0x20 ADD SWAP1 PUSH2 0x3E8 SWAP3 SWAP2 SWAP1 PUSH2 0x62E JUMP JUMPDEST POP PUSH1 0x20 DUP3 DUP2 ADD MLOAD DUP1 MLOAD PUSH2 0x401 SWAP3 PUSH1 0x1 DUP6 ADD SWAP3 ADD SWAP1 PUSH2 0x62E JUMP JUMPDEST POP PUSH1 0x40 DUP3 ADD MLOAD PUSH1 0x2 DUP3 ADD DUP1 SLOAD PUSH20 0xFFFFFFFFFFFFFFFFFFFFFFFFFFFFFFFFFFFFFFFF NOT SWAP1 DUP2 AND PUSH1 0x1 PUSH1 0xA0 PUSH1 0x2 EXP SUB SWAP4 DUP5 AND OR SWAP1 SWAP2 SSTORE PUSH1 0x60 DUP5 ADD MLOAD PUSH1 0x3 DUP5 ADD DUP1 SLOAD DUP4 AND SWAP2 DUP5 AND SWAP2 SWAP1 SWAP2 OR SWAP1 SSTORE PUSH1 0x80 DUP5 ADD MLOAD PUSH1 0x4 DUP1 DUP6 ADD DUP1 SLOAD SWAP1 SWAP4 AND SWAP2 SWAP1 SWAP4 AND OR DUP1 DUP3 SSTORE PUSH1 0xA0 DUP6 ADD MLOAD SWAP3 PUSH21 0xFF0000000000000000000000000000000000000000 NOT SWAP1 SWAP2 AND SWAP1 PUSH21 0x10000000000000000000000000000000000000000 SWAP1 DUP5 SWAP1 DUP2 GT ISZERO PUSH2 0x4A5 JUMPI INVALID JUMPDEST MUL OR SWAP1 SSTORE POP SWAP2 SWAP9 SWAP8 POP POP POP POP POP POP POP POP JUMP JUMPDEST PUSH1 0x0 DUP1 SLOAD DUP3 SWAP2 CALLER SWAP2 DUP4 SWAP1 DUP2 LT PUSH2 0x4C9 JUMPI INVALID JUMPDEST PUSH1 0x0 SWAP2 DUP3 MSTORE PUSH1 0x20 SWAP1 SWAP2 KECCAK256 PUSH1 0x4 PUSH1 0x5 SWAP1 SWAP3 MUL ADD ADD SLOAD PUSH1 0x1 PUSH1 0xA0 PUSH1 0x2 EXP SUB AND EQ PUSH2 0x4F0 JUMPI PUSH1 0x0 DUP1 REVERT JUMPDEST PUSH1 0x4 PUSH1 0x0 DUP4 DUP2 SLOAD DUP2 LT ISZERO ISZERO PUSH2 0x501 JUMPI INVALID JUMPDEST SWAP1 PUSH1 0x0 MSTORE PUSH1 0x20 PUSH1 0x0 KECCAK256 SWAP1 PUSH1 0x5 MUL ADD PUSH1 0x4 ADD PUSH1 0x14 PUSH2 0x100 EXP DUP2 SLOAD DUP2 PUSH1 0xFF MUL NOT AND SWAP1 DUP4 PUSH1 0x4 DUP2 GT ISZERO PUSH2 0x52D JUMPI INVALID JUMPDEST MUL OR SWAP1 SSTORE POP POP POP JUMP JUMPDEST PUSH1 0x0 DUP1 SLOAD DUP3 SWAP2 CALLER SWAP2 DUP4 SWAP1 DUP2 LT PUSH2 0x548 JUMPI INVALID JUMPDEST PUSH1 0x0 SWAP2 DUP3 MSTORE PUSH1 0x20 SWAP1 SWAP2 KECCAK256 PUSH1 0x4 PUSH1 0x5 SWAP1 SWAP3 MUL ADD ADD SLOAD PUSH1 0x1 PUSH1 0xA0 PUSH1 0x2 EXP SUB AND EQ PUSH2 0x56F JUMPI PUSH1 0x0 DUP1 REVERT JUMPDEST DUP2 PUSH1 0x3 PUSH1 0x0 DUP1 SLOAD DUP4 SWAP1 DUP2 LT PUSH2 0x580 JUMPI INVALID JUMPDEST SWAP1 PUSH1 0x0 MSTORE PUSH1 0x20 PUSH1 0x0 KECCAK256 SWAP1 PUSH1 0x5 MUL ADD PUSH1 0x4 ADD PUSH1 0x14 SWAP1 SLOAD SWAP1 PUSH2 0x100 EXP SWAP1 DIV PUSH1 0xFF AND PUSH1 0x4 DUP2 GT ISZERO PUSH2 0x5AA JUMPI INVALID JUMPDEST EQ PUSH2 0x5B4 JUMPI PUSH1 0x0 DUP1 REVERT JUMPDEST PUSH1 0x3 PUSH1 0x0 DUP5 DUP2 SLOAD DUP2 LT ISZERO ISZERO PUSH2 0x5C5 JUMPI INVALID JUMPDEST SWAP1 PUSH1 0x0 MSTORE PUSH1 0x20 PUSH1 0x0 KECCAK256 SWAP1 PUSH1 0x5 MUL ADD PUSH1 0x4 ADD PUSH1 0x14 PUSH2 0x100 EXP DUP2 SLOAD DUP2 PUSH1 0xFF MUL NOT AND SWAP1 DUP4 PUSH1 0x4 DUP2 GT ISZERO PUSH2 0x5F1 JUMPI INVALID JUMPDEST MUL OR SWAP1 SSTORE POP POP POP POP JUMP JUMPDEST PUSH1 0x40 DUP1 MLOAD PUSH1 0xC0 DUP2 ADD DUP3 MSTORE PUSH1 0x60 DUP1 DUP3 MSTORE PUSH1 0x20 DUP3 ADD DUP2 SWAP1 MSTORE PUSH1 0x0 SWAP3 DUP3 ADD DUP4 SWAP1 MSTORE DUP2 ADD DUP3 SWAP1 MSTORE PUSH1 0x80 DUP2 ADD DUP3 SWAP1 MSTORE SWAP1 PUSH1 0xA0 DUP3 ADD MSTORE SWAP1 JUMP JUMPDEST DUP3 DUP1 SLOAD PUSH1 0x1 DUP2 PUSH1 0x1 AND ISZERO PUSH2 0x100 MUL SUB AND PUSH1 0x2 SWAP1 DIV SWAP1 PUSH1 0x0 MSTORE PUSH1 0x20 PUSH1 0x0 KECCAK256 SWAP1 PUSH1 0x1F ADD PUSH1 0x20 SWAP1 DIV DUP2 ADD SWAP3 DUP3 PUSH1 0x1F LT PUSH2 0x66F JUMPI DUP1 MLOAD PUSH1 0xFF NOT AND DUP4 DUP1 ADD OR DUP6 SSTORE PUSH2 0x69C JUMP JUMPDEST DUP3 DUP1 ADD PUSH1 0x1 ADD DUP6 SSTORE DUP3 ISZERO PUSH2 0x69C JUMPI SWAP2 DUP3 ADD JUMPDEST DUP3 DUP2 GT ISZERO PUSH2 0x69C JUMPI DUP3 MLOAD DUP3 SSTORE SWAP2 PUSH1 0x20 ADD SWAP2 SWAP1 PUSH1 0x1 ADD SWAP1 PUSH2 0x681 JUMP JUMPDEST POP PUSH2 0x6A8 SWAP3 SWAP2 POP PUSH2 0x6AC JUMP JUMPDEST POP SWAP1 JUMP JUMPDEST PUSH2 0x6C6 SWAP2 SWAP1 JUMPDEST DUP1 DUP3 GT ISZERO PUSH2 0x6A8 JUMPI PUSH1 0x0 DUP2 SSTORE PUSH1 0x1 ADD PUSH2 0x6B2 JUMP JUMPDEST SWAP1 JUMP STOP LOG1 PUSH6 0x627A7A723058 KECCAK256 0x4e 0xc7 EXTCODECOPY 0xb3 PUSH22 0x44484F3BE6084C9CC2C8B8383646AC8EFA71F355685 MOD PUSH25 0xD608BB00290000000000000000000000000000000000000000 "
				},
				"gasEstimates": {
					"creation": {
						"codeDepositCost": "356200",
						"executionCost": "393",
						"totalCost": "356593"
					},
					"external": {
						"acceptOrder(uint256)": "22123",
						"createOrder(string,string,address,address)": "infinite",
						"declineOrder(uint256)": "21461",
						"startDeliveringOrder(uint256)": "22066",
						"stopDeliveringOrder(uint256)": "22033"
					}
				},
				"methodIdentifiers": {
					"acceptOrder(uint256)": "ef18e9ed",
					"createOrder(string,string,address,address)": "aa6e2a72",
					"declineOrder(uint256)": "ccbdb85c",
					"startDeliveringOrder(uint256)": "84e9d538",
					"stopDeliveringOrder(uint256)": "6c484042"
				}
			},
			"userdoc": {
				"methods": {}
			}
		}
	}
}