{
	"supplychain.sol": {
		"SypplyChain": {
			"abi": [
				{
					"constant": false,
					"inputs": [
						{
							"name": "_index",
							"type": "uint256"
						}
					],
					"name": "stopDeliveringOrder",
					"outputs": [],
					"payable": false,
					"stateMutability": "nonpayable",
					"type": "function"
				},
				{
					"constant": false,
					"inputs": [
						{
							"name": "_index",
							"type": "uint256"
						}
					],
					"name": "startDeliveringOrder",
					"outputs": [],
					"payable": false,
					"stateMutability": "nonpayable",
					"type": "function"
				},
				{
					"constant": true,
					"inputs": [
						{
							"name": "",
							"type": "uint256"
						}
					],
					"name": "orders",
					"outputs": [
						{
							"name": "title",
							"type": "string"
						},
						{
							"name": "description",
							"type": "string"
						},
						{
							"name": "supplier",
							"type": "address"
						},
						{
							"name": "deliveryCompany",
							"type": "address"
						},
						{
							"name": "customer",
							"type": "address"
						},
						{
							"name": "status",
							"type": "uint8"
						}
					],
					"payable": false,
					"stateMutability": "view",
					"type": "function"
				},
				{
					"constant": false,
					"inputs": [
						{
							"name": "_title",
							"type": "string"
						},
						{
							"name": "_description",
							"type": "string"
						},
						{
							"name": "_deliveryCompany",
							"type": "address"
						},
						{
							"name": "_customer",
							"type": "address"
						}
					],
					"name": "createOrder",
					"outputs": [
						{
							"name": "",
							"type": "uint256"
						}
					],
					"payable": false,
					"stateMutability": "nonpayable",
					"type": "function"
				},
				{
					"constant": false,
					"inputs": [
						{
							"name": "_index",
							"type": "uint256"
						}
					],
					"name": "declineOrder",
					"outputs": [],
					"payable": false,
					"stateMutability": "nonpayable",
					"type": "function"
				},
				{
					"constant": false,
					"inputs": [
						{
							"name": "_index",
							"type": "uint256"
						}
					],
					"name": "acceptOrder",
					"outputs": [],
					"payable": false,
					"stateMutability": "nonpayable",
					"type": "function"
				}
			],
			"devdoc": {
				"methods": {}
			},
			"evm": {
				"assembly": "    /* \"supplychain.sol\":29:2357  contract SypplyChain{\r... */\n  mstore(0x40, 0x80)\n  callvalue\n    /* \"--CODEGEN--\":8:17   */\n  dup1\n    /* \"--CODEGEN--\":5:7   */\n  iszero\n  tag_1\n  jumpi\n    /* \"--CODEGEN--\":30:31   */\n  0x0\n    /* \"--CODEGEN--\":27:28   */\n  dup1\n    /* \"--CODEGEN--\":20:32   */\n  revert\n    /* \"--CODEGEN--\":5:7   */\ntag_1:\n    /* \"supplychain.sol\":29:2357  contract SypplyChain{\r... */\n  pop\n  dataSize(sub_0)\n  dup1\n  dataOffset(sub_0)\n  0x0\n  codecopy\n  0x0\n  return\nstop\n\nsub_0: assembly {\n        /* \"supplychain.sol\":29:2357  contract SypplyChain{\r... */\n      mstore(0x40, 0x80)\n      jumpi(tag_1, lt(calldatasize, 0x4))\n      and(div(calldataload(0x0), 0x100000000000000000000000000000000000000000000000000000000), 0xffffffff)\n      0x6c484042\n      dup2\n      eq\n      tag_2\n      jumpi\n      dup1\n      0x84e9d538\n      eq\n      tag_3\n      jumpi\n      dup1\n      0xa85c38ef\n      eq\n      tag_4\n      jumpi\n      dup1\n      0xaa6e2a72\n      eq\n      tag_5\n      jumpi\n      dup1\n      0xccbdb85c\n      eq\n      tag_6\n      jumpi\n      dup1\n      0xef18e9ed\n      eq\n      tag_7\n      jumpi\n    tag_1:\n      0x0\n      dup1\n      revert\n        /* \"supplychain.sol\":1839:2054  function stopDeliveringOrder(uint256 _index) public onlyOrderDeliveringCompany(_index) orderDelivering(_index){\r... */\n    tag_2:\n      callvalue\n        /* \"--CODEGEN--\":8:17   */\n      dup1\n        /* \"--CODEGEN--\":5:7   */\n      iszero\n      tag_8\n      jumpi\n        /* \"--CODEGEN--\":30:31   */\n      0x0\n        /* \"--CODEGEN--\":27:28   */\n      dup1\n        /* \"--CODEGEN--\":20:32   */\n      revert\n        /* \"--CODEGEN--\":5:7   */\n    tag_8:\n      pop\n        /* \"supplychain.sol\":1839:2054  function stopDeliveringOrder(uint256 _index) public onlyOrderDeliveringCompany(_index) orderDelivering(_index){\r... */\n      tag_9\n      calldataload(0x4)\n      jump(tag_10)\n    tag_9:\n      stop\n        /* \"supplychain.sol\":1617:1830  function startDeliveringOrder(uint256 _index) public onlyOrderDeliveringCompany(_index) orderCreated(_index) {\r... */\n    tag_3:\n      callvalue\n        /* \"--CODEGEN--\":8:17   */\n      dup1\n        /* \"--CODEGEN--\":5:7   */\n      iszero\n      tag_11\n      jumpi\n        /* \"--CODEGEN--\":30:31   */\n      0x0\n        /* \"--CODEGEN--\":27:28   */\n      dup1\n        /* \"--CODEGEN--\":20:32   */\n      revert\n        /* \"--CODEGEN--\":5:7   */\n    tag_11:\n      pop\n        /* \"supplychain.sol\":1617:1830  function startDeliveringOrder(uint256 _index) public onlyOrderDeliveringCompany(_index) orderCreated(_index) {\r... */\n      tag_9\n      calldataload(0x4)\n      jump(tag_13)\n        /* \"supplychain.sol\":132:153  Order[] public orders */\n    tag_4:\n      callvalue\n        /* \"--CODEGEN--\":8:17   */\n      dup1\n        /* \"--CODEGEN--\":5:7   */\n      iszero\n      tag_14\n      jumpi\n        /* \"--CODEGEN--\":30:31   */\n      0x0\n        /* \"--CODEGEN--\":27:28   */\n      dup1\n        /* \"--CODEGEN--\":20:32   */\n      revert\n        /* \"--CODEGEN--\":5:7   */\n    tag_14:\n      pop\n        /* \"supplychain.sol\":132:153  Order[] public orders */\n      tag_15\n      calldataload(0x4)\n      jump(tag_16)\n    tag_15:\n      0x40\n      dup1\n      mload\n      sub(exp(0x2, 0xa0), 0x1)\n      dup1\n      dup8\n      and\n      swap3\n      dup3\n      add\n      swap3\n      swap1\n      swap3\n      mstore\n      dup5\n      dup3\n      and\n      0x60\n      dup3\n      add\n      mstore\n      swap1\n      dup4\n      and\n      0x80\n      dup3\n      add\n      mstore\n      dup1\n      0x20\n      dup2\n      add\n      0xa0\n      dup3\n      add\n      dup5\n      0x4\n      dup2\n      gt\n      iszero\n      tag_17\n      jumpi\n      invalid\n    tag_17:\n      0xff\n      and\n      dup2\n      mstore\n      0x20\n      add\n      dup4\n      dup2\n      sub\n      dup4\n      mstore\n      dup10\n      dup2\n      dup2\n      mload\n      dup2\n      mstore\n      0x20\n      add\n      swap2\n      pop\n      dup1\n      mload\n      swap1\n      0x20\n      add\n      swap1\n      dup1\n      dup4\n      dup4\n        /* \"--CODEGEN--\":23:24   */\n      0x0\n        /* \"--CODEGEN--\":8:108   */\n    tag_18:\n        /* \"--CODEGEN--\":33:36   */\n      dup4\n        /* \"--CODEGEN--\":30:31   */\n      dup2\n        /* \"--CODEGEN--\":27:37   */\n      lt\n        /* \"--CODEGEN--\":8:108   */\n      iszero\n      tag_19\n      jumpi\n        /* \"--CODEGEN--\":90:101   */\n      dup2\n      dup2\n      add\n        /* \"--CODEGEN--\":84:102   */\n      mload\n        /* \"--CODEGEN--\":71:82   */\n      dup4\n      dup3\n      add\n        /* \"--CODEGEN--\":64:103   */\n      mstore\n        /* \"--CODEGEN--\":52:54   */\n      0x20\n        /* \"--CODEGEN--\":45:55   */\n      add\n        /* \"--CODEGEN--\":8:108   */\n      jump(tag_18)\n    tag_19:\n        /* \"--CODEGEN--\":12:26   */\n      pop\n        /* \"supplychain.sol\":132:153  Order[] public orders */\n      pop\n      pop\n      pop\n      swap1\n      pop\n      swap1\n      dup2\n      add\n      swap1\n      0x1f\n      and\n      dup1\n      iszero\n      tag_21\n      jumpi\n      dup1\n      dup3\n      sub\n      dup1\n      mload\n      0x1\n      dup4\n      0x20\n      sub\n      0x100\n      exp\n      sub\n      not\n      and\n      dup2\n      mstore\n      0x20\n      add\n      swap2\n      pop\n    tag_21:\n      pop\n      dup4\n      dup2\n      sub\n      dup3\n      mstore\n      dup9\n      mload\n      dup2\n      mstore\n      dup9\n      mload\n      0x20\n      swap2\n      dup3\n      add\n      swap2\n      dup11\n      add\n      swap1\n      dup1\n      dup4\n      dup4\n        /* \"--CODEGEN--\":23:24   */\n      0x0\n        /* \"--CODEGEN--\":8:108   */\n    tag_22:\n        /* \"--CODEGEN--\":33:36   */\n      dup4\n        /* \"--CODEGEN--\":30:31   */\n      dup2\n        /* \"--CODEGEN--\":27:37   */\n      lt\n        /* \"--CODEGEN--\":8:108   */\n      iszero\n      tag_23\n      jumpi\n        /* \"--CODEGEN--\":90:101   */\n      dup2\n      dup2\n      add\n        /* \"--CODEGEN--\":84:102   */\n      mload\n        /* \"--CODEGEN--\":71:82   */\n      dup4\n      dup3\n      add\n        /* \"--CODEGEN--\":64:103   */\n      mstore\n        /* \"--CODEGEN--\":52:54   */\n      0x20\n        /* \"--CODEGEN--\":45:55   */\n      add\n        /* \"--CODEGEN--\":8:108   */\n      jump(tag_22)\n    tag_23:\n        /* \"--CODEGEN--\":12:26   */\n      pop\n        /* \"supplychain.sol\":132:153  Order[] public orders */\n      pop\n      pop\n      pop\n      swap1\n      pop\n      swap1\n      dup2\n      add\n      swap1\n      0x1f\n      and\n      dup1\n      iszero\n      tag_25\n      jumpi\n      dup1\n      dup3\n      sub\n      dup1\n      mload\n      0x1\n      dup4\n      0x20\n      sub\n      0x100\n      exp\n      sub\n      not\n      and\n      dup2\n      mstore\n      0x20\n      add\n      swap2\n      pop\n    tag_25:\n      pop\n      swap9\n      pop\n      pop\n      pop\n      pop\n      pop\n      pop\n      pop\n      pop\n      pop\n      mload(0x40)\n      dup1\n      swap2\n      sub\n      swap1\n      return\n        /* \"supplychain.sol\":1030:1608  function createOrder(string _title, string _description, address _deliveryCompany, address _customer) public returns(uint256){\r... */\n    tag_5:\n      callvalue\n        /* \"--CODEGEN--\":8:17   */\n      dup1\n        /* \"--CODEGEN--\":5:7   */\n      iszero\n      tag_26\n      jumpi\n        /* \"--CODEGEN--\":30:31   */\n      0x0\n        /* \"--CODEGEN--\":27:28   */\n      dup1\n        /* \"--CODEGEN--\":20:32   */\n      revert\n        /* \"--CODEGEN--\":5:7   */\n    tag_26:\n      pop\n        /* \"supplychain.sol\":1030:1608  function createOrder(string _title, string _description, address _deliveryCompany, address _customer) public returns(uint256){\r... */\n      0x40\n      dup1\n      mload\n      0x20\n      0x4\n      dup1\n      calldataload\n      dup1\n      dup3\n      add\n      calldataload\n      0x1f\n      dup2\n      add\n      dup5\n      swap1\n      div\n      dup5\n      mul\n      dup6\n      add\n      dup5\n      add\n      swap1\n      swap6\n      mstore\n      dup5\n      dup5\n      mstore\n      tag_27\n      swap5\n      calldatasize\n      swap5\n      swap3\n      swap4\n      0x24\n      swap4\n      swap3\n      dup5\n      add\n      swap2\n      swap1\n      dup2\n      swap1\n      dup5\n      add\n      dup4\n      dup3\n      dup1\n      dup3\n      dup5\n      calldatacopy\n      pop\n      pop\n      0x40\n      dup1\n      mload\n      0x20\n      0x1f\n      dup10\n      calldataload\n      dup12\n      add\n      dup1\n      calldataload\n      swap2\n      dup3\n      add\n      dup4\n      swap1\n      div\n      dup4\n      mul\n      dup5\n      add\n      dup4\n      add\n      swap1\n      swap5\n      mstore\n      dup1\n      dup4\n      mstore\n      swap8\n      swap11\n      swap10\n      swap9\n      dup2\n      add\n      swap8\n      swap2\n      swap7\n      pop\n      swap2\n      dup3\n      add\n      swap5\n      pop\n      swap3\n      pop\n      dup3\n      swap2\n      pop\n      dup5\n      add\n      dup4\n      dup3\n      dup1\n      dup3\n      dup5\n      calldatacopy\n      pop\n      swap5\n      swap8\n      pop\n      pop\n      sub(exp(0x2, 0xa0), 0x1)\n      dup6\n      calldataload\n      dup2\n      and\n      swap7\n      pop\n      0x20\n      swap1\n      swap6\n      add\n      calldataload\n      swap1\n      swap5\n      and\n      swap4\n      pop\n      tag_28\n      swap3\n      pop\n      pop\n      pop\n      jump\n    tag_27:\n      0x40\n      dup1\n      mload\n      swap2\n      dup3\n      mstore\n      mload\n      swap1\n      dup2\n      swap1\n      sub\n      0x20\n      add\n      swap1\n      return\n        /* \"supplychain.sol\":2220:2348  function declineOrder(uint256 _index) public onlyCustomer(_index) {\r... */\n    tag_6:\n      callvalue\n        /* \"--CODEGEN--\":8:17   */\n      dup1\n        /* \"--CODEGEN--\":5:7   */\n      iszero\n      tag_29\n      jumpi\n        /* \"--CODEGEN--\":30:31   */\n      0x0\n        /* \"--CODEGEN--\":27:28   */\n      dup1\n        /* \"--CODEGEN--\":20:32   */\n      revert\n        /* \"--CODEGEN--\":5:7   */\n    tag_29:\n      pop\n        /* \"supplychain.sol\":2220:2348  function declineOrder(uint256 _index) public onlyCustomer(_index) {\r... */\n      tag_9\n      calldataload(0x4)\n      jump(tag_31)\n        /* \"supplychain.sol\":2063:2211  function acceptOrder(uint256 _index) public onlyCustomer(_index) orderDelivered(_index){\r... */\n    tag_7:\n      callvalue\n        /* \"--CODEGEN--\":8:17   */\n      dup1\n        /* \"--CODEGEN--\":5:7   */\n      iszero\n      tag_32\n      jumpi\n        /* \"--CODEGEN--\":30:31   */\n      0x0\n        /* \"--CODEGEN--\":27:28   */\n      dup1\n        /* \"--CODEGEN--\":20:32   */\n      revert\n        /* \"--CODEGEN--\":5:7   */\n    tag_32:\n      pop\n        /* \"supplychain.sol\":2063:2211  function acceptOrder(uint256 _index) public onlyCustomer(_index) orderDelivered(_index){\r... */\n      tag_9\n      calldataload(0x4)\n      jump(tag_34)\n        /* \"supplychain.sol\":1839:2054  function stopDeliveringOrder(uint256 _index) public onlyOrderDeliveringCompany(_index) orderDelivering(_index){\r... */\n    tag_10:\n        /* \"supplychain.sol\":1963:1982  Order storage order */\n      0x0\n        /* \"supplychain.sol\":1918:1924  _index */\n      dup2\n        /* \"supplychain.sol\":460:470  msg.sender */\n      caller\n      sub(exp(0x2, 0xa0), 0x1)\n        /* \"supplychain.sol\":426:470  orders[_index].deliveryCompany == msg.sender */\n      and\n        /* \"supplychain.sol\":426:432  orders */\n      0x0\n        /* \"supplychain.sol\":433:439  _index */\n      dup3\n        /* \"supplychain.sol\":426:440  orders[_index] */\n      dup2\n      sload\n      dup2\n      lt\n      iszero\n      iszero\n      tag_36\n      jumpi\n      invalid\n    tag_36:\n      0x0\n      swap2\n      dup3\n      mstore\n      0x20\n      swap1\n      swap2\n      keccak256\n        /* \"supplychain.sol\":426:456  orders[_index].deliveryCompany */\n      0x3\n        /* \"supplychain.sol\":426:440  orders[_index] */\n      0x5\n      swap1\n      swap3\n      mul\n      add\n        /* \"supplychain.sol\":426:456  orders[_index].deliveryCompany */\n      add\n      sload\n      sub(exp(0x2, 0xa0), 0x1)\n      and\n        /* \"supplychain.sol\":426:470  orders[_index].deliveryCompany == msg.sender */\n      eq\n        /* \"supplychain.sol\":418:471  require(orders[_index].deliveryCompany == msg.sender) */\n      tag_38\n      jumpi\n      0x0\n      dup1\n      revert\n    tag_38:\n        /* \"supplychain.sol\":1942:1948  _index */\n      dup3\n        /* \"supplychain.sol\":721:738  Status.Delivering */\n      0x1\n        /* \"supplychain.sol\":696:702  orders */\n      0x0\n        /* \"supplychain.sol\":696:710  orders[_index] */\n      dup1\n      sload\n        /* \"supplychain.sol\":703:709  _index */\n      dup4\n      swap1\n        /* \"supplychain.sol\":696:710  orders[_index] */\n      dup2\n      lt\n      tag_41\n      jumpi\n      invalid\n    tag_41:\n      swap1\n      0x0\n      mstore\n      keccak256(0x0, 0x20)\n      swap1\n      0x5\n      mul\n      add\n        /* \"supplychain.sol\":696:717  orders[_index].status */\n      0x4\n      add\n      0x14\n      swap1\n      sload\n      swap1\n      0x100\n      exp\n      swap1\n      div\n      0xff\n      and\n        /* \"supplychain.sol\":696:738  orders[_index].status == Status.Delivering */\n      0x4\n      dup2\n      gt\n      iszero\n      tag_43\n      jumpi\n      invalid\n    tag_43:\n      eq\n        /* \"supplychain.sol\":688:739  require(orders[_index].status == Status.Delivering) */\n      tag_44\n      jumpi\n      0x0\n      dup1\n      revert\n    tag_44:\n        /* \"supplychain.sol\":1985:1991  orders */\n      0x0\n        /* \"supplychain.sol\":1985:1999  orders[_index] */\n      dup1\n      sload\n        /* \"supplychain.sol\":1992:1998  _index */\n      dup6\n      swap1\n        /* \"supplychain.sol\":1985:1999  orders[_index] */\n      dup2\n      lt\n      tag_46\n      jumpi\n      invalid\n    tag_46:\n      0x0\n      swap2\n      dup3\n      mstore\n      0x20\n      swap1\n      swap2\n      keccak256\n      0x5\n      swap1\n      swap2\n      mul\n      add\n        /* \"supplychain.sol\":2012:2024  order.status */\n      0x4\n      dup2\n      add\n        /* \"supplychain.sol\":2012:2043  order.status = Status.Delivered */\n      dup1\n      sload\n        /* \"supplychain.sol\":1985:1999  orders[_index] */\n      swap2\n      swap5\n      pop\n        /* \"supplychain.sol\":2027:2043  Status.Delivered */\n      0x2\n      swap2\n      not(0xff0000000000000000000000000000000000000000)\n        /* \"supplychain.sol\":2012:2043  order.status = Status.Delivered */\n      and\n      0x10000000000000000000000000000000000000000\n        /* \"supplychain.sol\":2027:2043  Status.Delivered */\n      dup4\n        /* \"supplychain.sol\":2012:2043  order.status = Status.Delivered */\n    tag_48:\n      mul\n      or\n      swap1\n      sstore\n      pop\n        /* \"supplychain.sol\":482:483  _ */\n      pop\n        /* \"supplychain.sol\":1839:2054  function stopDeliveringOrder(uint256 _index) public onlyOrderDeliveringCompany(_index) orderDelivering(_index){\r... */\n      pop\n      pop\n      pop\n      jump\t// out\n        /* \"supplychain.sol\":1617:1830  function startDeliveringOrder(uint256 _index) public onlyOrderDeliveringCompany(_index) orderCreated(_index) {\r... */\n    tag_13:\n        /* \"supplychain.sol\":1740:1759  Order storage order */\n      0x0\n        /* \"supplychain.sol\":1697:1703  _index */\n      dup2\n        /* \"supplychain.sol\":460:470  msg.sender */\n      caller\n      sub(exp(0x2, 0xa0), 0x1)\n        /* \"supplychain.sol\":426:470  orders[_index].deliveryCompany == msg.sender */\n      and\n        /* \"supplychain.sol\":426:432  orders */\n      0x0\n        /* \"supplychain.sol\":433:439  _index */\n      dup3\n        /* \"supplychain.sol\":426:440  orders[_index] */\n      dup2\n      sload\n      dup2\n      lt\n      iszero\n      iszero\n      tag_50\n      jumpi\n      invalid\n    tag_50:\n      0x0\n      swap2\n      dup3\n      mstore\n      0x20\n      swap1\n      swap2\n      keccak256\n        /* \"supplychain.sol\":426:456  orders[_index].deliveryCompany */\n      0x3\n        /* \"supplychain.sol\":426:440  orders[_index] */\n      0x5\n      swap1\n      swap3\n      mul\n      add\n        /* \"supplychain.sol\":426:456  orders[_index].deliveryCompany */\n      add\n      sload\n      sub(exp(0x2, 0xa0), 0x1)\n      and\n        /* \"supplychain.sol\":426:470  orders[_index].deliveryCompany == msg.sender */\n      eq\n        /* \"supplychain.sol\":418:471  require(orders[_index].deliveryCompany == msg.sender) */\n      tag_52\n      jumpi\n      0x0\n      dup1\n      revert\n    tag_52:\n        /* \"supplychain.sol\":1718:1724  _index */\n      dup3\n        /* \"supplychain.sol\":587:601  Status.Created */\n      0x0\n        /* \"supplychain.sol\":562:568  orders */\n      dup1\n        /* \"supplychain.sol\":562:576  orders[_index] */\n      dup1\n      sload\n        /* \"supplychain.sol\":569:575  _index */\n      dup4\n      swap1\n        /* \"supplychain.sol\":562:576  orders[_index] */\n      dup2\n      lt\n      tag_55\n      jumpi\n      invalid\n    tag_55:\n      swap1\n      0x0\n      mstore\n      keccak256(0x0, 0x20)\n      swap1\n      0x5\n      mul\n      add\n        /* \"supplychain.sol\":562:583  orders[_index].status */\n      0x4\n      add\n      0x14\n      swap1\n      sload\n      swap1\n      0x100\n      exp\n      swap1\n      div\n      0xff\n      and\n        /* \"supplychain.sol\":562:601  orders[_index].status == Status.Created */\n      0x4\n      dup2\n      gt\n      iszero\n      tag_57\n      jumpi\n      invalid\n    tag_57:\n      eq\n        /* \"supplychain.sol\":554:602  require(orders[_index].status == Status.Created) */\n      tag_58\n      jumpi\n      0x0\n      dup1\n      revert\n    tag_58:\n        /* \"supplychain.sol\":1762:1768  orders */\n      0x0\n        /* \"supplychain.sol\":1762:1776  orders[_index] */\n      dup1\n      sload\n        /* \"supplychain.sol\":1769:1775  _index */\n      dup6\n      swap1\n        /* \"supplychain.sol\":1762:1776  orders[_index] */\n      dup2\n      lt\n      tag_60\n      jumpi\n      invalid\n    tag_60:\n      0x0\n      swap2\n      dup3\n      mstore\n      0x20\n      swap1\n      swap2\n      keccak256\n      0x5\n      swap1\n      swap2\n      mul\n      add\n        /* \"supplychain.sol\":1787:1799  order.status */\n      0x4\n      dup2\n      add\n        /* \"supplychain.sol\":1787:1819  order.status = Status.Delivering */\n      dup1\n      sload\n        /* \"supplychain.sol\":1762:1776  orders[_index] */\n      swap2\n      swap5\n      pop\n        /* \"supplychain.sol\":1802:1819  Status.Delivering */\n      0x1\n      swap2\n      not(0xff0000000000000000000000000000000000000000)\n        /* \"supplychain.sol\":1787:1819  order.status = Status.Delivering */\n      and\n      0x10000000000000000000000000000000000000000\n        /* \"supplychain.sol\":1802:1819  Status.Delivering */\n      dup4\n        /* \"supplychain.sol\":1787:1819  order.status = Status.Delivering */\n      jump(tag_48)\n        /* \"supplychain.sol\":132:153  Order[] public orders */\n    tag_16:\n      0x0\n      dup1\n      sload\n      dup3\n      swap1\n      dup2\n      lt\n      tag_63\n      jumpi\n      invalid\n    tag_63:\n      0x0\n      swap2\n      dup3\n      mstore\n      0x20\n      swap2\n      dup3\n      swap1\n      keccak256\n      0x5\n      swap2\n      swap1\n      swap2\n      mul\n      add\n      dup1\n      sload\n      0x40\n      dup1\n      mload\n      0x2\n      0x1\n      dup5\n      and\n      iszero\n      0x100\n      mul\n      not(0x0)\n      add\n      swap1\n      swap4\n      and\n      swap3\n      swap1\n      swap3\n      div\n      0x1f\n      dup2\n      add\n      dup6\n      swap1\n      div\n      dup6\n      mul\n      dup4\n      add\n      dup6\n      add\n      swap1\n      swap2\n      mstore\n      dup1\n      dup3\n      mstore\n      swap2\n      swap4\n      pop\n      swap2\n      dup4\n      swap2\n      swap1\n      dup4\n      add\n      dup3\n      dup3\n      dup1\n      iszero\n      tag_65\n      jumpi\n      dup1\n      0x1f\n      lt\n      tag_66\n      jumpi\n      0x100\n      dup1\n      dup4\n      sload\n      div\n      mul\n      dup4\n      mstore\n      swap2\n      0x20\n      add\n      swap2\n      jump(tag_65)\n    tag_66:\n      dup3\n      add\n      swap2\n      swap1\n      0x0\n      mstore\n      keccak256(0x0, 0x20)\n      swap1\n    tag_67:\n      dup2\n      sload\n      dup2\n      mstore\n      swap1\n      0x1\n      add\n      swap1\n      0x20\n      add\n      dup1\n      dup4\n      gt\n      tag_67\n      jumpi\n      dup3\n      swap1\n      sub\n      0x1f\n      and\n      dup3\n      add\n      swap2\n    tag_65:\n      pop\n      pop\n      pop\n      pop\n      pop\n      swap1\n      dup1\n      0x1\n      add\n      dup1\n      sload\n      0x1\n      dup2\n      0x1\n      and\n      iszero\n      0x100\n      mul\n      sub\n      and\n      0x2\n      swap1\n      div\n      dup1\n      0x1f\n      add\n      0x20\n      dup1\n      swap2\n      div\n      mul\n      0x20\n      add\n      mload(0x40)\n      swap1\n      dup2\n      add\n      0x40\n      mstore\n      dup1\n      swap3\n      swap2\n      swap1\n      dup2\n      dup2\n      mstore\n      0x20\n      add\n      dup3\n      dup1\n      sload\n      0x1\n      dup2\n      0x1\n      and\n      iszero\n      0x100\n      mul\n      sub\n      and\n      0x2\n      swap1\n      div\n      dup1\n      iszero\n      tag_68\n      jumpi\n      dup1\n      0x1f\n      lt\n      tag_69\n      jumpi\n      0x100\n      dup1\n      dup4\n      sload\n      div\n      mul\n      dup4\n      mstore\n      swap2\n      0x20\n      add\n      swap2\n      jump(tag_68)\n    tag_69:\n      dup3\n      add\n      swap2\n      swap1\n      0x0\n      mstore\n      keccak256(0x0, 0x20)\n      swap1\n    tag_70:\n      dup2\n      sload\n      dup2\n      mstore\n      swap1\n      0x1\n      add\n      swap1\n      0x20\n      add\n      dup1\n      dup4\n      gt\n      tag_70\n      jumpi\n      dup3\n      swap1\n      sub\n      0x1f\n      and\n      dup3\n      add\n      swap2\n    tag_68:\n      pop\n      pop\n      pop\n      pop\n      0x2\n      dup4\n      add\n      sload\n      0x3\n      dup5\n      add\n      sload\n      0x4\n      swap1\n      swap5\n      add\n      sload\n      swap3\n      swap4\n      sub(exp(0x2, 0xa0), 0x1)\n      swap2\n      dup3\n      and\n      swap4\n      swap1\n      dup3\n      and\n      swap3\n      pop\n      swap1\n      dup2\n      and\n      swap1\n      0x10000000000000000000000000000000000000000\n      swap1\n      div\n      0xff\n      and\n      dup7\n      jump\t// out\n        /* \"supplychain.sol\":1030:1608  function createOrder(string _title, string _description, address _deliveryCompany, address _customer) public returns(uint256){\r... */\n    tag_28:\n        /* \"supplychain.sol\":1147:1154  uint256 */\n      0x0\n        /* \"supplychain.sol\":1178:1196  Order memory order */\n      tag_71\n      jump\t// in(tag_72)\n    tag_71:\n      pop\n        /* \"supplychain.sol\":1199:1492  Order ({\r... */\n      0x40\n      dup1\n      mload\n      0xc0\n      dup2\n      add\n      dup3\n      mstore\n      dup7\n      dup2\n      mstore\n      0x20\n      dup2\n      add\n      dup7\n      swap1\n      mstore\n        /* \"supplychain.sol\":1326:1336  msg.sender */\n      caller\n        /* \"supplychain.sol\":1199:1492  Order ({\r... */\n      swap2\n      dup2\n      add\n      swap2\n      swap1\n      swap2\n      mstore\n      sub(exp(0x2, 0xa0), 0x1)\n      dup5\n      dup2\n      and\n      0x60\n      dup4\n      add\n      mstore\n      dup4\n      and\n      0x80\n      dup3\n      add\n      mstore\n      0x0\n      0xa0\n      dup3\n      add\n      dup2\n      swap1\n      mstore\n        /* \"supplychain.sol\":1529:1542  orders.length */\n      dup1\n      sload\n        /* \"supplychain.sol\":1543:1544  1 */\n      0x1\n        /* \"supplychain.sol\":1529:1544  orders.length+1 */\n      dup2\n      add\n      swap2\n        /* \"supplychain.sol\":1199:1492  Order ({\r... */\n      dup4\n      swap2\n        /* \"supplychain.sol\":1529:1544  orders.length+1 */\n      dup4\n      swap1\n        /* \"supplychain.sol\":1556:1569  orders[index] */\n      dup2\n      lt\n      tag_75\n      jumpi\n      invalid\n    tag_75:\n      swap1\n      0x0\n      mstore\n      keccak256(0x0, 0x20)\n      swap1\n      0x5\n      mul\n      add\n        /* \"supplychain.sol\":1556:1576  orders[index]= order */\n      0x0\n      dup3\n      add\n      mload\n      dup2\n      0x0\n      add\n      swap1\n      dup1\n      mload\n      swap1\n      0x20\n      add\n      swap1\n      tag_77\n      swap3\n      swap2\n      swap1\n      jump\t// in(tag_78)\n    tag_77:\n      pop\n      0x20\n      dup3\n      dup2\n      add\n      mload\n      dup1\n      mload\n      tag_79\n      swap3\n      0x1\n      dup6\n      add\n      swap3\n      add\n      swap1\n      jump\t// in(tag_78)\n    tag_79:\n      pop\n      0x40\n      dup3\n      add\n      mload\n      0x2\n      dup3\n      add\n      dup1\n      sload\n      not(0xffffffffffffffffffffffffffffffffffffffff)\n      swap1\n      dup2\n      and\n      sub(exp(0x2, 0xa0), 0x1)\n      swap4\n      dup5\n      and\n      or\n      swap1\n      swap2\n      sstore\n      0x60\n      dup5\n      add\n      mload\n      0x3\n      dup5\n      add\n      dup1\n      sload\n      dup4\n      and\n      swap2\n      dup5\n      and\n      swap2\n      swap1\n      swap2\n      or\n      swap1\n      sstore\n      0x80\n      dup5\n      add\n      mload\n      0x4\n      dup1\n      dup6\n      add\n      dup1\n      sload\n      swap1\n      swap4\n      and\n      swap2\n      swap1\n      swap4\n      and\n      or\n      dup1\n      dup3\n      sstore\n      0xa0\n      dup6\n      add\n      mload\n      swap3\n      not(0xff0000000000000000000000000000000000000000)\n      swap1\n      swap2\n      and\n      swap1\n      0x10000000000000000000000000000000000000000\n      swap1\n      dup5\n      swap1\n      dup2\n      gt\n      iszero\n      tag_80\n      jumpi\n      invalid\n    tag_80:\n      mul\n      or\n      swap1\n      sstore\n      pop\n        /* \"supplychain.sol\":1595:1600  index */\n      swap2\n      swap9\n        /* \"supplychain.sol\":1030:1608  function createOrder(string _title, string _description, address _deliveryCompany, address _customer) public returns(uint256){\r... */\n      swap8\n      pop\n      pop\n      pop\n      pop\n      pop\n      pop\n      pop\n      pop\n      jump\t// out\n        /* \"supplychain.sol\":2220:2348  function declineOrder(uint256 _index) public onlyCustomer(_index) {\r... */\n    tag_31:\n        /* \"supplychain.sol\":963:969  orders */\n      0x0\n        /* \"supplychain.sol\":963:977  orders[_index] */\n      dup1\n      sload\n        /* \"supplychain.sol\":2278:2284  _index */\n      dup3\n      swap2\n        /* \"supplychain.sol\":990:1000  msg.sender */\n      caller\n      swap2\n        /* \"supplychain.sol\":2278:2284  _index */\n      dup4\n      swap1\n        /* \"supplychain.sol\":963:977  orders[_index] */\n      dup2\n      lt\n      tag_82\n      jumpi\n      invalid\n    tag_82:\n      0x0\n      swap2\n      dup3\n      mstore\n      0x20\n      swap1\n      swap2\n      keccak256\n        /* \"supplychain.sol\":963:986  orders[_index].customer */\n      0x4\n        /* \"supplychain.sol\":963:977  orders[_index] */\n      0x5\n      swap1\n      swap3\n      mul\n      add\n        /* \"supplychain.sol\":963:986  orders[_index].customer */\n      add\n      sload\n      sub(exp(0x2, 0xa0), 0x1)\n      and\n        /* \"supplychain.sol\":963:1000  orders[_index].customer == msg.sender */\n      eq\n        /* \"supplychain.sol\":955:1001  require(orders[_index].customer == msg.sender) */\n      tag_84\n      jumpi\n      0x0\n      dup1\n      revert\n    tag_84:\n        /* \"supplychain.sol\":2321:2337  Status.Decliened */\n      0x4\n        /* \"supplychain.sol\":2297:2303  orders */\n      0x0\n        /* \"supplychain.sol\":2304:2310  _index */\n      dup4\n        /* \"supplychain.sol\":2297:2311  orders[_index] */\n      dup2\n      sload\n      dup2\n      lt\n      iszero\n      iszero\n      tag_86\n      jumpi\n      invalid\n    tag_86:\n      swap1\n      0x0\n      mstore\n      keccak256(0x0, 0x20)\n      swap1\n      0x5\n      mul\n      add\n        /* \"supplychain.sol\":2297:2318  orders[_index].status */\n      0x4\n      add\n      0x14\n        /* \"supplychain.sol\":2297:2337  orders[_index].status = Status.Decliened */\n      0x100\n      exp\n      dup2\n      sload\n      dup2\n      0xff\n      mul\n      not\n      and\n      swap1\n      dup4\n      0x4\n      dup2\n      gt\n      iszero\n      tag_88\n      jumpi\n      invalid\n    tag_88:\n      mul\n      or\n      swap1\n      sstore\n      pop\n        /* \"supplychain.sol\":2220:2348  function declineOrder(uint256 _index) public onlyCustomer(_index) {\r... */\n      pop\n      pop\n      jump\t// out\n        /* \"supplychain.sol\":2063:2211  function acceptOrder(uint256 _index) public onlyCustomer(_index) orderDelivered(_index){\r... */\n    tag_34:\n        /* \"supplychain.sol\":963:969  orders */\n      0x0\n        /* \"supplychain.sol\":963:977  orders[_index] */\n      dup1\n      sload\n        /* \"supplychain.sol\":2120:2126  _index */\n      dup3\n      swap2\n        /* \"supplychain.sol\":990:1000  msg.sender */\n      caller\n      swap2\n        /* \"supplychain.sol\":2120:2126  _index */\n      dup4\n      swap1\n        /* \"supplychain.sol\":963:977  orders[_index] */\n      dup2\n      lt\n      tag_90\n      jumpi\n      invalid\n    tag_90:\n      0x0\n      swap2\n      dup3\n      mstore\n      0x20\n      swap1\n      swap2\n      keccak256\n        /* \"supplychain.sol\":963:986  orders[_index].customer */\n      0x4\n        /* \"supplychain.sol\":963:977  orders[_index] */\n      0x5\n      swap1\n      swap3\n      mul\n      add\n        /* \"supplychain.sol\":963:986  orders[_index].customer */\n      add\n      sload\n      sub(exp(0x2, 0xa0), 0x1)\n      and\n        /* \"supplychain.sol\":963:1000  orders[_index].customer == msg.sender */\n      eq\n        /* \"supplychain.sol\":955:1001  require(orders[_index].customer == msg.sender) */\n      tag_92\n      jumpi\n      0x0\n      dup1\n      revert\n    tag_92:\n        /* \"supplychain.sol\":2143:2149  _index */\n      dup2\n        /* \"supplychain.sol\":858:873  Status.Accepted */\n      0x3\n        /* \"supplychain.sol\":833:839  orders */\n      0x0\n        /* \"supplychain.sol\":833:847  orders[_index] */\n      dup1\n      sload\n        /* \"supplychain.sol\":840:846  _index */\n      dup4\n      swap1\n        /* \"supplychain.sol\":833:847  orders[_index] */\n      dup2\n      lt\n      tag_95\n      jumpi\n      invalid\n    tag_95:\n      swap1\n      0x0\n      mstore\n      keccak256(0x0, 0x20)\n      swap1\n      0x5\n      mul\n      add\n        /* \"supplychain.sol\":833:854  orders[_index].status */\n      0x4\n      add\n      0x14\n      swap1\n      sload\n      swap1\n      0x100\n      exp\n      swap1\n      div\n      0xff\n      and\n        /* \"supplychain.sol\":833:873  orders[_index].status == Status.Accepted */\n      0x4\n      dup2\n      gt\n      iszero\n      tag_97\n      jumpi\n      invalid\n    tag_97:\n      eq\n        /* \"supplychain.sol\":825:874  require(orders[_index].status == Status.Accepted) */\n      tag_98\n      jumpi\n      0x0\n      dup1\n      revert\n    tag_98:\n        /* \"supplychain.sol\":2185:2200  Status.Accepted */\n      0x3\n        /* \"supplychain.sol\":2161:2167  orders */\n      0x0\n        /* \"supplychain.sol\":2168:2174  _index */\n      dup5\n        /* \"supplychain.sol\":2161:2175  orders[_index] */\n      dup2\n      sload\n      dup2\n      lt\n      iszero\n      iszero\n      tag_100\n      jumpi\n      invalid\n    tag_100:\n      swap1\n      0x0\n      mstore\n      keccak256(0x0, 0x20)\n      swap1\n      0x5\n      mul\n      add\n        /* \"supplychain.sol\":2161:2182  orders[_index].status */\n      0x4\n      add\n      0x14\n        /* \"supplychain.sol\":2161:2200  orders[_index].status = Status.Accepted */\n      0x100\n      exp\n      dup2\n      sload\n      dup2\n      0xff\n      mul\n      not\n      and\n      swap1\n      dup4\n      0x4\n      dup2\n      gt\n      iszero\n      tag_102\n      jumpi\n      invalid\n    tag_102:\n      mul\n      or\n      swap1\n      sstore\n      pop\n        /* \"supplychain.sol\":1012:1013  _ */\n      pop\n        /* \"supplychain.sol\":2063:2211  function acceptOrder(uint256 _index) public onlyCustomer(_index) orderDelivered(_index){\r... */\n      pop\n      pop\n      jump\t// out\n        /* \"supplychain.sol\":29:2357  contract SypplyChain{\r... */\n    tag_72:\n      0x40\n      dup1\n      mload\n      0xc0\n      dup2\n      add\n      dup3\n      mstore\n      0x60\n      dup1\n      dup3\n      mstore\n      0x20\n      dup3\n      add\n      dup2\n      swap1\n      mstore\n      0x0\n      swap3\n      dup3\n      add\n      dup4\n      swap1\n      mstore\n      dup2\n      add\n      dup3\n      swap1\n      mstore\n      0x80\n      dup2\n      add\n      dup3\n      swap1\n      mstore\n      swap1\n      0xa0\n      dup3\n      add\n      mstore\n      swap1\n      jump\t// out\n    tag_78:\n      dup3\n      dup1\n      sload\n      0x1\n      dup2\n      0x1\n      and\n      iszero\n      0x100\n      mul\n      sub\n      and\n      0x2\n      swap1\n      div\n      swap1\n      0x0\n      mstore\n      keccak256(0x0, 0x20)\n      swap1\n      0x1f\n      add\n      0x20\n      swap1\n      div\n      dup2\n      add\n      swap3\n      dup3\n      0x1f\n      lt\n      tag_105\n      jumpi\n      dup1\n      mload\n      not(0xff)\n      and\n      dup4\n      dup1\n      add\n      or\n      dup6\n      sstore\n      jump(tag_107)\n    tag_105:\n      dup3\n      dup1\n      add\n      0x1\n      add\n      dup6\n      sstore\n      dup3\n      iszero\n      tag_107\n      jumpi\n      swap2\n      dup3\n      add\n    tag_106:\n      dup3\n      dup2\n      gt\n      iszero\n      tag_107\n      jumpi\n      dup3\n      mload\n      dup3\n      sstore\n      swap2\n      0x20\n      add\n      swap2\n      swap1\n      0x1\n      add\n      swap1\n      jump(tag_106)\n    tag_107:\n      pop\n      tag_108\n      swap3\n      swap2\n      pop\n      jump\t// in(tag_109)\n    tag_108:\n      pop\n      swap1\n      jump\t// out\n    tag_109:\n      tag_110\n      swap2\n      swap1\n    tag_111:\n      dup1\n      dup3\n      gt\n      iszero\n      tag_108\n      jumpi\n      0x0\n      dup2\n      sstore\n      0x1\n      add\n      jump(tag_111)\n    tag_110:\n      swap1\n      jump\t// out\n\n    auxdata: 0xa165627a7a72305820a6e9f6ef3f2bd7220faa7ebee8f04ec16a6e6c192a5c23a5b6d1106954ded9cd0029\n}\n",
				"bytecode": {
					"linkReferences": {},
					"object": "608060405234801561001057600080fd5b506109bf806100206000396000f3006080604052600436106100775763ffffffff7c01000000000000000000000000000000000000000000000000000000006000350416636c484042811461007c57806384e9d53814610096578063a85c38ef146100ae578063aa6e2a72146101df578063ccbdb85c1461029e578063ef18e9ed146102b6575b600080fd5b34801561008857600080fd5b506100946004356102ce565b005b3480156100a257600080fd5b506100946004356103bb565b3480156100ba57600080fd5b506100c66004356104a0565b60408051600160a060020a038087169282019290925284821660608201529083166080820152806020810160a0820184600481111561010157fe5b60ff168152602001838103835289818151815260200191508051906020019080838360005b8381101561013e578181015183820152602001610126565b50505050905090810190601f16801561016b5780820380516001836020036101000a031916815260200191505b5083810382528851815288516020918201918a019080838360005b8381101561019e578181015183820152602001610186565b50505050905090810190601f1680156101cb5780820380516001836020036101000a031916815260200191505b509850505050505050505060405180910390f35b3480156101eb57600080fd5b506040805160206004803580820135601f810184900484028501840190955284845261028c94369492936024939284019190819084018382808284375050604080516020601f89358b018035918201839004830284018301909452808352979a99988101979196509182019450925082915084018382808284375094975050600160a060020a03853581169650602090950135909416935061062e92505050565b60408051918252519081900360200190f35b3480156102aa57600080fd5b50610094600435610781565b3480156102c257600080fd5b50610094600435610800565b60008133600160a060020a03166000828154811015156102ea57fe5b6000918252602090912060036005909202010154600160a060020a03161461031157600080fd5b826001600080548390811061032257fe5b906000526020600020906005020160040160149054906101000a900460ff16600481111561034c57fe5b1461035657600080fd5b600080548590811061036457fe5b6000918252602090912060059091020160048101805491945060029174ff0000000000000000000000000000000000000000191674010000000000000000000000000000000000000000835b021790555050505050565b60008133600160a060020a03166000828154811015156103d757fe5b6000918252602090912060036005909202010154600160a060020a0316146103fe57600080fd5b8260008080548390811061040e57fe5b906000526020600020906005020160040160149054906101000a900460ff16600481111561043857fe5b1461044257600080fd5b600080548590811061045057fe5b6000918252602090912060059091020160048101805491945060019174ff0000000000000000000000000000000000000000191674010000000000000000000000000000000000000000836103b0565b60008054829081106104ae57fe5b60009182526020918290206005919091020180546040805160026001841615610100026000190190931692909204601f8101859004850283018501909152808252919350918391908301828280156105475780601f1061051c57610100808354040283529160200191610547565b820191906000526020600020905b81548152906001019060200180831161052a57829003601f168201915b505050505090806001018054600181600116156101000203166002900480601f0160208091040260200160405190810160405280929190818152602001828054600181600116156101000203166002900480156105e55780601f106105ba576101008083540402835291602001916105e5565b820191906000526020600020905b8154815290600101906020018083116105c857829003601f168201915b50505050600283015460038401546004909401549293600160a060020a039182169390821692509081169074010000000000000000000000000000000000000000900460ff1686565b60006106386108c5565b506040805160c081018252868152602081018690523391810191909152600160a060020a03848116606083015283166080820152600060a082018190528054600181019183918390811061068857fe5b906000526020600020906005020160008201518160000190805190602001906106b29291906108f8565b5060208281015180516106cb92600185019201906108f8565b50604082015160028201805473ffffffffffffffffffffffffffffffffffffffff19908116600160a060020a039384161790915560608401516003840180548316918416919091179055608084015160048085018054909316919093161780825560a08501519274ff000000000000000000000000000000000000000019909116907401000000000000000000000000000000000000000090849081111561076f57fe5b02179055509198975050505050505050565b60008054829133918390811061079357fe5b6000918252602090912060046005909202010154600160a060020a0316146107ba57600080fd5b60046000838154811015156107cb57fe5b906000526020600020906005020160040160146101000a81548160ff021916908360048111156107f757fe5b02179055505050565b60008054829133918390811061081257fe5b6000918252602090912060046005909202010154600160a060020a03161461083957600080fd5b816003600080548390811061084a57fe5b906000526020600020906005020160040160149054906101000a900460ff16600481111561087457fe5b1461087e57600080fd5b600360008481548110151561088f57fe5b906000526020600020906005020160040160146101000a81548160ff021916908360048111156108bb57fe5b0217905550505050565b6040805160c08101825260608082526020820181905260009282018390528101829052608081018290529060a082015290565b828054600181600116156101000203166002900490600052602060002090601f016020900481019282601f1061093957805160ff1916838001178555610966565b82800160010185558215610966579182015b8281111561096657825182559160200191906001019061094b565b50610972929150610976565b5090565b61099091905b80821115610972576000815560010161097c565b905600a165627a7a72305820a6e9f6ef3f2bd7220faa7ebee8f04ec16a6e6c192a5c23a5b6d1106954ded9cd0029",
					"opcodes": "PUSH1 0x80 PUSH1 0x40 MSTORE CALLVALUE DUP1 ISZERO PUSH2 0x10 JUMPI PUSH1 0x0 DUP1 REVERT JUMPDEST POP PUSH2 0x9BF DUP1 PUSH2 0x20 PUSH1 0x0 CODECOPY PUSH1 0x0 RETURN STOP PUSH1 0x80 PUSH1 0x40 MSTORE PUSH1 0x4 CALLDATASIZE LT PUSH2 0x77 JUMPI PUSH4 0xFFFFFFFF PUSH29 0x100000000000000000000000000000000000000000000000000000000 PUSH1 0x0 CALLDATALOAD DIV AND PUSH4 0x6C484042 DUP2 EQ PUSH2 0x7C JUMPI DUP1 PUSH4 0x84E9D538 EQ PUSH2 0x96 JUMPI DUP1 PUSH4 0xA85C38EF EQ PUSH2 0xAE JUMPI DUP1 PUSH4 0xAA6E2A72 EQ PUSH2 0x1DF JUMPI DUP1 PUSH4 0xCCBDB85C EQ PUSH2 0x29E JUMPI DUP1 PUSH4 0xEF18E9ED EQ PUSH2 0x2B6 JUMPI JUMPDEST PUSH1 0x0 DUP1 REVERT JUMPDEST CALLVALUE DUP1 ISZERO PUSH2 0x88 JUMPI PUSH1 0x0 DUP1 REVERT JUMPDEST POP PUSH2 0x94 PUSH1 0x4 CALLDATALOAD PUSH2 0x2CE JUMP JUMPDEST STOP JUMPDEST CALLVALUE DUP1 ISZERO PUSH2 0xA2 JUMPI PUSH1 0x0 DUP1 REVERT JUMPDEST POP PUSH2 0x94 PUSH1 0x4 CALLDATALOAD PUSH2 0x3BB JUMP JUMPDEST CALLVALUE DUP1 ISZERO PUSH2 0xBA JUMPI PUSH1 0x0 DUP1 REVERT JUMPDEST POP PUSH2 0xC6 PUSH1 0x4 CALLDATALOAD PUSH2 0x4A0 JUMP JUMPDEST PUSH1 0x40 DUP1 MLOAD PUSH1 0x1 PUSH1 0xA0 PUSH1 0x2 EXP SUB DUP1 DUP8 AND SWAP3 DUP3 ADD SWAP3 SWAP1 SWAP3 MSTORE DUP5 DUP3 AND PUSH1 0x60 DUP3 ADD MSTORE SWAP1 DUP4 AND PUSH1 0x80 DUP3 ADD MSTORE DUP1 PUSH1 0x20 DUP2 ADD PUSH1 0xA0 DUP3 ADD DUP5 PUSH1 0x4 DUP2 GT ISZERO PUSH2 0x101 JUMPI INVALID JUMPDEST PUSH1 0xFF AND DUP2 MSTORE PUSH1 0x20 ADD DUP4 DUP2 SUB DUP4 MSTORE DUP10 DUP2 DUP2 MLOAD DUP2 MSTORE PUSH1 0x20 ADD SWAP2 POP DUP1 MLOAD SWAP1 PUSH1 0x20 ADD SWAP1 DUP1 DUP4 DUP4 PUSH1 0x0 JUMPDEST DUP4 DUP2 LT ISZERO PUSH2 0x13E JUMPI DUP2 DUP2 ADD MLOAD DUP4 DUP3 ADD MSTORE PUSH1 0x20 ADD PUSH2 0x126 JUMP JUMPDEST POP POP POP POP SWAP1 POP SWAP1 DUP2 ADD SWAP1 PUSH1 0x1F AND DUP1 ISZERO PUSH2 0x16B JUMPI DUP1 DUP3 SUB DUP1 MLOAD PUSH1 0x1 DUP4 PUSH1 0x20 SUB PUSH2 0x100 EXP SUB NOT AND DUP2 MSTORE PUSH1 0x20 ADD SWAP2 POP JUMPDEST POP DUP4 DUP2 SUB DUP3 MSTORE DUP9 MLOAD DUP2 MSTORE DUP9 MLOAD PUSH1 0x20 SWAP2 DUP3 ADD SWAP2 DUP11 ADD SWAP1 DUP1 DUP4 DUP4 PUSH1 0x0 JUMPDEST DUP4 DUP2 LT ISZERO PUSH2 0x19E JUMPI DUP2 DUP2 ADD MLOAD DUP4 DUP3 ADD MSTORE PUSH1 0x20 ADD PUSH2 0x186 JUMP JUMPDEST POP POP POP POP SWAP1 POP SWAP1 DUP2 ADD SWAP1 PUSH1 0x1F AND DUP1 ISZERO PUSH2 0x1CB JUMPI DUP1 DUP3 SUB DUP1 MLOAD PUSH1 0x1 DUP4 PUSH1 0x20 SUB PUSH2 0x100 EXP SUB NOT AND DUP2 MSTORE PUSH1 0x20 ADD SWAP2 POP JUMPDEST POP SWAP9 POP POP POP POP POP POP POP POP POP PUSH1 0x40 MLOAD DUP1 SWAP2 SUB SWAP1 RETURN JUMPDEST CALLVALUE DUP1 ISZERO PUSH2 0x1EB JUMPI PUSH1 0x0 DUP1 REVERT JUMPDEST POP PUSH1 0x40 DUP1 MLOAD PUSH1 0x20 PUSH1 0x4 DUP1 CALLDATALOAD DUP1 DUP3 ADD CALLDATALOAD PUSH1 0x1F DUP2 ADD DUP5 SWAP1 DIV DUP5 MUL DUP6 ADD DUP5 ADD SWAP1 SWAP6 MSTORE DUP5 DUP5 MSTORE PUSH2 0x28C SWAP5 CALLDATASIZE SWAP5 SWAP3 SWAP4 PUSH1 0x24 SWAP4 SWAP3 DUP5 ADD SWAP2 SWAP1 DUP2 SWAP1 DUP5 ADD DUP4 DUP3 DUP1 DUP3 DUP5 CALLDATACOPY POP POP PUSH1 0x40 DUP1 MLOAD PUSH1 0x20 PUSH1 0x1F DUP10 CALLDATALOAD DUP12 ADD DUP1 CALLDATALOAD SWAP2 DUP3 ADD DUP4 SWAP1 DIV DUP4 MUL DUP5 ADD DUP4 ADD SWAP1 SWAP5 MSTORE DUP1 DUP4 MSTORE SWAP8 SWAP11 SWAP10 SWAP9 DUP2 ADD SWAP8 SWAP2 SWAP7 POP SWAP2 DUP3 ADD SWAP5 POP SWAP3 POP DUP3 SWAP2 POP DUP5 ADD DUP4 DUP3 DUP1 DUP3 DUP5 CALLDATACOPY POP SWAP5 SWAP8 POP POP PUSH1 0x1 PUSH1 0xA0 PUSH1 0x2 EXP SUB DUP6 CALLDATALOAD DUP2 AND SWAP7 POP PUSH1 0x20 SWAP1 SWAP6 ADD CALLDATALOAD SWAP1 SWAP5 AND SWAP4 POP PUSH2 0x62E SWAP3 POP POP POP JUMP JUMPDEST PUSH1 0x40 DUP1 MLOAD SWAP2 DUP3 MSTORE MLOAD SWAP1 DUP2 SWAP1 SUB PUSH1 0x20 ADD SWAP1 RETURN JUMPDEST CALLVALUE DUP1 ISZERO PUSH2 0x2AA JUMPI PUSH1 0x0 DUP1 REVERT JUMPDEST POP PUSH2 0x94 PUSH1 0x4 CALLDATALOAD PUSH2 0x781 JUMP JUMPDEST CALLVALUE DUP1 ISZERO PUSH2 0x2C2 JUMPI PUSH1 0x0 DUP1 REVERT JUMPDEST POP PUSH2 0x94 PUSH1 0x4 CALLDATALOAD PUSH2 0x800 JUMP JUMPDEST PUSH1 0x0 DUP2 CALLER PUSH1 0x1 PUSH1 0xA0 PUSH1 0x2 EXP SUB AND PUSH1 0x0 DUP3 DUP2 SLOAD DUP2 LT ISZERO ISZERO PUSH2 0x2EA JUMPI INVALID JUMPDEST PUSH1 0x0 SWAP2 DUP3 MSTORE PUSH1 0x20 SWAP1 SWAP2 KECCAK256 PUSH1 0x3 PUSH1 0x5 SWAP1 SWAP3 MUL ADD ADD SLOAD PUSH1 0x1 PUSH1 0xA0 PUSH1 0x2 EXP SUB AND EQ PUSH2 0x311 JUMPI PUSH1 0x0 DUP1 REVERT JUMPDEST DUP3 PUSH1 0x1 PUSH1 0x0 DUP1 SLOAD DUP4 SWAP1 DUP2 LT PUSH2 0x322 JUMPI INVALID JUMPDEST SWAP1 PUSH1 0x0 MSTORE PUSH1 0x20 PUSH1 0x0 KECCAK256 SWAP1 PUSH1 0x5 MUL ADD PUSH1 0x4 ADD PUSH1 0x14 SWAP1 SLOAD SWAP1 PUSH2 0x100 EXP SWAP1 DIV PUSH1 0xFF AND PUSH1 0x4 DUP2 GT ISZERO PUSH2 0x34C JUMPI INVALID JUMPDEST EQ PUSH2 0x356 JUMPI PUSH1 0x0 DUP1 REVERT JUMPDEST PUSH1 0x0 DUP1 SLOAD DUP6 SWAP1 DUP2 LT PUSH2 0x364 JUMPI INVALID JUMPDEST PUSH1 0x0 SWAP2 DUP3 MSTORE PUSH1 0x20 SWAP1 SWAP2 KECCAK256 PUSH1 0x5 SWAP1 SWAP2 MUL ADD PUSH1 0x4 DUP2 ADD DUP1 SLOAD SWAP2 SWAP5 POP PUSH1 0x2 SWAP2 PUSH21 0xFF0000000000000000000000000000000000000000 NOT AND PUSH21 0x10000000000000000000000000000000000000000 DUP4 JUMPDEST MUL OR SWAP1 SSTORE POP POP POP POP POP JUMP JUMPDEST PUSH1 0x0 DUP2 CALLER PUSH1 0x1 PUSH1 0xA0 PUSH1 0x2 EXP SUB AND PUSH1 0x0 DUP3 DUP2 SLOAD DUP2 LT ISZERO ISZERO PUSH2 0x3D7 JUMPI INVALID JUMPDEST PUSH1 0x0 SWAP2 DUP3 MSTORE PUSH1 0x20 SWAP1 SWAP2 KECCAK256 PUSH1 0x3 PUSH1 0x5 SWAP1 SWAP3 MUL ADD ADD SLOAD PUSH1 0x1 PUSH1 0xA0 PUSH1 0x2 EXP SUB AND EQ PUSH2 0x3FE JUMPI PUSH1 0x0 DUP1 REVERT JUMPDEST DUP3 PUSH1 0x0 DUP1 DUP1 SLOAD DUP4 SWAP1 DUP2 LT PUSH2 0x40E JUMPI INVALID JUMPDEST SWAP1 PUSH1 0x0 MSTORE PUSH1 0x20 PUSH1 0x0 KECCAK256 SWAP1 PUSH1 0x5 MUL ADD PUSH1 0x4 ADD PUSH1 0x14 SWAP1 SLOAD SWAP1 PUSH2 0x100 EXP SWAP1 DIV PUSH1 0xFF AND PUSH1 0x4 DUP2 GT ISZERO PUSH2 0x438 JUMPI INVALID JUMPDEST EQ PUSH2 0x442 JUMPI PUSH1 0x0 DUP1 REVERT JUMPDEST PUSH1 0x0 DUP1 SLOAD DUP6 SWAP1 DUP2 LT PUSH2 0x450 JUMPI INVALID JUMPDEST PUSH1 0x0 SWAP2 DUP3 MSTORE PUSH1 0x20 SWAP1 SWAP2 KECCAK256 PUSH1 0x5 SWAP1 SWAP2 MUL ADD PUSH1 0x4 DUP2 ADD DUP1 SLOAD SWAP2 SWAP5 POP PUSH1 0x1 SWAP2 PUSH21 0xFF0000000000000000000000000000000000000000 NOT AND PUSH21 0x10000000000000000000000000000000000000000 DUP4 PUSH2 0x3B0 JUMP JUMPDEST PUSH1 0x0 DUP1 SLOAD DUP3 SWAP1 DUP2 LT PUSH2 0x4AE JUMPI INVALID JUMPDEST PUSH1 0x0 SWAP2 DUP3 MSTORE PUSH1 0x20 SWAP2 DUP3 SWAP1 KECCAK256 PUSH1 0x5 SWAP2 SWAP1 SWAP2 MUL ADD DUP1 SLOAD PUSH1 0x40 DUP1 MLOAD PUSH1 0x2 PUSH1 0x1 DUP5 AND ISZERO PUSH2 0x100 MUL PUSH1 0x0 NOT ADD SWAP1 SWAP4 AND SWAP3 SWAP1 SWAP3 DIV PUSH1 0x1F DUP2 ADD DUP6 SWAP1 DIV DUP6 MUL DUP4 ADD DUP6 ADD SWAP1 SWAP2 MSTORE DUP1 DUP3 MSTORE SWAP2 SWAP4 POP SWAP2 DUP4 SWAP2 SWAP1 DUP4 ADD DUP3 DUP3 DUP1 ISZERO PUSH2 0x547 JUMPI DUP1 PUSH1 0x1F LT PUSH2 0x51C JUMPI PUSH2 0x100 DUP1 DUP4 SLOAD DIV MUL DUP4 MSTORE SWAP2 PUSH1 0x20 ADD SWAP2 PUSH2 0x547 JUMP JUMPDEST DUP3 ADD SWAP2 SWAP1 PUSH1 0x0 MSTORE PUSH1 0x20 PUSH1 0x0 KECCAK256 SWAP1 JUMPDEST DUP2 SLOAD DUP2 MSTORE SWAP1 PUSH1 0x1 ADD SWAP1 PUSH1 0x20 ADD DUP1 DUP4 GT PUSH2 0x52A JUMPI DUP3 SWAP1 SUB PUSH1 0x1F AND DUP3 ADD SWAP2 JUMPDEST POP POP POP POP POP SWAP1 DUP1 PUSH1 0x1 ADD DUP1 SLOAD PUSH1 0x1 DUP2 PUSH1 0x1 AND ISZERO PUSH2 0x100 MUL SUB AND PUSH1 0x2 SWAP1 DIV DUP1 PUSH1 0x1F ADD PUSH1 0x20 DUP1 SWAP2 DIV MUL PUSH1 0x20 ADD PUSH1 0x40 MLOAD SWAP1 DUP2 ADD PUSH1 0x40 MSTORE DUP1 SWAP3 SWAP2 SWAP1 DUP2 DUP2 MSTORE PUSH1 0x20 ADD DUP3 DUP1 SLOAD PUSH1 0x1 DUP2 PUSH1 0x1 AND ISZERO PUSH2 0x100 MUL SUB AND PUSH1 0x2 SWAP1 DIV DUP1 ISZERO PUSH2 0x5E5 JUMPI DUP1 PUSH1 0x1F LT PUSH2 0x5BA JUMPI PUSH2 0x100 DUP1 DUP4 SLOAD DIV MUL DUP4 MSTORE SWAP2 PUSH1 0x20 ADD SWAP2 PUSH2 0x5E5 JUMP JUMPDEST DUP3 ADD SWAP2 SWAP1 PUSH1 0x0 MSTORE PUSH1 0x20 PUSH1 0x0 KECCAK256 SWAP1 JUMPDEST DUP2 SLOAD DUP2 MSTORE SWAP1 PUSH1 0x1 ADD SWAP1 PUSH1 0x20 ADD DUP1 DUP4 GT PUSH2 0x5C8 JUMPI DUP3 SWAP1 SUB PUSH1 0x1F AND DUP3 ADD SWAP2 JUMPDEST POP POP POP POP PUSH1 0x2 DUP4 ADD SLOAD PUSH1 0x3 DUP5 ADD SLOAD PUSH1 0x4 SWAP1 SWAP5 ADD SLOAD SWAP3 SWAP4 PUSH1 0x1 PUSH1 0xA0 PUSH1 0x2 EXP SUB SWAP2 DUP3 AND SWAP4 SWAP1 DUP3 AND SWAP3 POP SWAP1 DUP2 AND SWAP1 PUSH21 0x10000000000000000000000000000000000000000 SWAP1 DIV PUSH1 0xFF AND DUP7 JUMP JUMPDEST PUSH1 0x0 PUSH2 0x638 PUSH2 0x8C5 JUMP JUMPDEST POP PUSH1 0x40 DUP1 MLOAD PUSH1 0xC0 DUP2 ADD DUP3 MSTORE DUP7 DUP2 MSTORE PUSH1 0x20 DUP2 ADD DUP7 SWAP1 MSTORE CALLER SWAP2 DUP2 ADD SWAP2 SWAP1 SWAP2 MSTORE PUSH1 0x1 PUSH1 0xA0 PUSH1 0x2 EXP SUB DUP5 DUP2 AND PUSH1 0x60 DUP4 ADD MSTORE DUP4 AND PUSH1 0x80 DUP3 ADD MSTORE PUSH1 0x0 PUSH1 0xA0 DUP3 ADD DUP2 SWAP1 MSTORE DUP1 SLOAD PUSH1 0x1 DUP2 ADD SWAP2 DUP4 SWAP2 DUP4 SWAP1 DUP2 LT PUSH2 0x688 JUMPI INVALID JUMPDEST SWAP1 PUSH1 0x0 MSTORE PUSH1 0x20 PUSH1 0x0 KECCAK256 SWAP1 PUSH1 0x5 MUL ADD PUSH1 0x0 DUP3 ADD MLOAD DUP2 PUSH1 0x0 ADD SWAP1 DUP1 MLOAD SWAP1 PUSH1 0x20 ADD SWAP1 PUSH2 0x6B2 SWAP3 SWAP2 SWAP1 PUSH2 0x8F8 JUMP JUMPDEST POP PUSH1 0x20 DUP3 DUP2 ADD MLOAD DUP1 MLOAD PUSH2 0x6CB SWAP3 PUSH1 0x1 DUP6 ADD SWAP3 ADD SWAP1 PUSH2 0x8F8 JUMP JUMPDEST POP PUSH1 0x40 DUP3 ADD MLOAD PUSH1 0x2 DUP3 ADD DUP1 SLOAD PUSH20 0xFFFFFFFFFFFFFFFFFFFFFFFFFFFFFFFFFFFFFFFF NOT SWAP1 DUP2 AND PUSH1 0x1 PUSH1 0xA0 PUSH1 0x2 EXP SUB SWAP4 DUP5 AND OR SWAP1 SWAP2 SSTORE PUSH1 0x60 DUP5 ADD MLOAD PUSH1 0x3 DUP5 ADD DUP1 SLOAD DUP4 AND SWAP2 DUP5 AND SWAP2 SWAP1 SWAP2 OR SWAP1 SSTORE PUSH1 0x80 DUP5 ADD MLOAD PUSH1 0x4 DUP1 DUP6 ADD DUP1 SLOAD SWAP1 SWAP4 AND SWAP2 SWAP1 SWAP4 AND OR DUP1 DUP3 SSTORE PUSH1 0xA0 DUP6 ADD MLOAD SWAP3 PUSH21 0xFF0000000000000000000000000000000000000000 NOT SWAP1 SWAP2 AND SWAP1 PUSH21 0x10000000000000000000000000000000000000000 SWAP1 DUP5 SWAP1 DUP2 GT ISZERO PUSH2 0x76F JUMPI INVALID JUMPDEST MUL OR SWAP1 SSTORE POP SWAP2 SWAP9 SWAP8 POP POP POP POP POP POP POP POP JUMP JUMPDEST PUSH1 0x0 DUP1 SLOAD DUP3 SWAP2 CALLER SWAP2 DUP4 SWAP1 DUP2 LT PUSH2 0x793 JUMPI INVALID JUMPDEST PUSH1 0x0 SWAP2 DUP3 MSTORE PUSH1 0x20 SWAP1 SWAP2 KECCAK256 PUSH1 0x4 PUSH1 0x5 SWAP1 SWAP3 MUL ADD ADD SLOAD PUSH1 0x1 PUSH1 0xA0 PUSH1 0x2 EXP SUB AND EQ PUSH2 0x7BA JUMPI PUSH1 0x0 DUP1 REVERT JUMPDEST PUSH1 0x4 PUSH1 0x0 DUP4 DUP2 SLOAD DUP2 LT ISZERO ISZERO PUSH2 0x7CB JUMPI INVALID JUMPDEST SWAP1 PUSH1 0x0 MSTORE PUSH1 0x20 PUSH1 0x0 KECCAK256 SWAP1 PUSH1 0x5 MUL ADD PUSH1 0x4 ADD PUSH1 0x14 PUSH2 0x100 EXP DUP2 SLOAD DUP2 PUSH1 0xFF MUL NOT AND SWAP1 DUP4 PUSH1 0x4 DUP2 GT ISZERO PUSH2 0x7F7 JUMPI INVALID JUMPDEST MUL OR SWAP1 SSTORE POP POP POP JUMP JUMPDEST PUSH1 0x0 DUP1 SLOAD DUP3 SWAP2 CALLER SWAP2 DUP4 SWAP1 DUP2 LT PUSH2 0x812 JUMPI INVALID JUMPDEST PUSH1 0x0 SWAP2 DUP3 MSTORE PUSH1 0x20 SWAP1 SWAP2 KECCAK256 PUSH1 0x4 PUSH1 0x5 SWAP1 SWAP3 MUL ADD ADD SLOAD PUSH1 0x1 PUSH1 0xA0 PUSH1 0x2 EXP SUB AND EQ PUSH2 0x839 JUMPI PUSH1 0x0 DUP1 REVERT JUMPDEST DUP2 PUSH1 0x3 PUSH1 0x0 DUP1 SLOAD DUP4 SWAP1 DUP2 LT PUSH2 0x84A JUMPI INVALID JUMPDEST SWAP1 PUSH1 0x0 MSTORE PUSH1 0x20 PUSH1 0x0 KECCAK256 SWAP1 PUSH1 0x5 MUL ADD PUSH1 0x4 ADD PUSH1 0x14 SWAP1 SLOAD SWAP1 PUSH2 0x100 EXP SWAP1 DIV PUSH1 0xFF AND PUSH1 0x4 DUP2 GT ISZERO PUSH2 0x874 JUMPI INVALID JUMPDEST EQ PUSH2 0x87E JUMPI PUSH1 0x0 DUP1 REVERT JUMPDEST PUSH1 0x3 PUSH1 0x0 DUP5 DUP2 SLOAD DUP2 LT ISZERO ISZERO PUSH2 0x88F JUMPI INVALID JUMPDEST SWAP1 PUSH1 0x0 MSTORE PUSH1 0x20 PUSH1 0x0 KECCAK256 SWAP1 PUSH1 0x5 MUL ADD PUSH1 0x4 ADD PUSH1 0x14 PUSH2 0x100 EXP DUP2 SLOAD DUP2 PUSH1 0xFF MUL NOT AND SWAP1 DUP4 PUSH1 0x4 DUP2 GT ISZERO PUSH2 0x8BB JUMPI INVALID JUMPDEST MUL OR SWAP1 SSTORE POP POP POP POP JUMP JUMPDEST PUSH1 0x40 DUP1 MLOAD PUSH1 0xC0 DUP2 ADD DUP3 MSTORE PUSH1 0x60 DUP1 DUP3 MSTORE PUSH1 0x20 DUP3 ADD DUP2 SWAP1 MSTORE PUSH1 0x0 SWAP3 DUP3 ADD DUP4 SWAP1 MSTORE DUP2 ADD DUP3 SWAP1 MSTORE PUSH1 0x80 DUP2 ADD DUP3 SWAP1 MSTORE SWAP1 PUSH1 0xA0 DUP3 ADD MSTORE SWAP1 JUMP JUMPDEST DUP3 DUP1 SLOAD PUSH1 0x1 DUP2 PUSH1 0x1 AND ISZERO PUSH2 0x100 MUL SUB AND PUSH1 0x2 SWAP1 DIV SWAP1 PUSH1 0x0 MSTORE PUSH1 0x20 PUSH1 0x0 KECCAK256 SWAP1 PUSH1 0x1F ADD PUSH1 0x20 SWAP1 DIV DUP2 ADD SWAP3 DUP3 PUSH1 0x1F LT PUSH2 0x939 JUMPI DUP1 MLOAD PUSH1 0xFF NOT AND DUP4 DUP1 ADD OR DUP6 SSTORE PUSH2 0x966 JUMP JUMPDEST DUP3 DUP1 ADD PUSH1 0x1 ADD DUP6 SSTORE DUP3 ISZERO PUSH2 0x966 JUMPI SWAP2 DUP3 ADD JUMPDEST DUP3 DUP2 GT ISZERO PUSH2 0x966 JUMPI DUP3 MLOAD DUP3 SSTORE SWAP2 PUSH1 0x20 ADD SWAP2 SWAP1 PUSH1 0x1 ADD SWAP1 PUSH2 0x94B JUMP JUMPDEST POP PUSH2 0x972 SWAP3 SWAP2 POP PUSH2 0x976 JUMP JUMPDEST POP SWAP1 JUMP JUMPDEST PUSH2 0x990 SWAP2 SWAP1 JUMPDEST DUP1 DUP3 GT ISZERO PUSH2 0x972 JUMPI PUSH1 0x0 DUP2 SSTORE PUSH1 0x1 ADD PUSH2 0x97C JUMP JUMPDEST SWAP1 JUMP STOP LOG1 PUSH6 0x627A7A723058 KECCAK256 0xa6 0xe9 0xf6 0xef 0x3f 0x2b 0xd7 0x22 0xf 0xaa PUSH31 0xBEE8F04EC16A6E6C192A5C23A5B6D1106954DED9CD00290000000000000000 "
				},
				"gasEstimates": {
					"creation": {
						"codeDepositCost": "499000",
						"executionCost": "530",
						"totalCost": "499530"
					},
					"external": {
						"acceptOrder(uint256)": "22145",
						"createOrder(string,string,address,address)": "infinite",
						"declineOrder(uint256)": "21483",
						"orders(uint256)": "infinite",
						"startDeliveringOrder(uint256)": "22066",
						"stopDeliveringOrder(uint256)": "22033"
					}
				},
				"methodIdentifiers": {
					"acceptOrder(uint256)": "ef18e9ed",
					"createOrder(string,string,address,address)": "aa6e2a72",
					"declineOrder(uint256)": "ccbdb85c",
					"orders(uint256)": "a85c38ef",
					"startDeliveringOrder(uint256)": "84e9d538",
					"stopDeliveringOrder(uint256)": "6c484042"
				}
			},
			"userdoc": {
				"methods": {}
			}
		}
	}
}