{
	"supplychain.sol": {
		"SypplyChain": {
			"abi": [
				{
					"constant": false,
					"inputs": [
						{
							"name": "_index",
							"type": "uint256"
						}
					],
					"name": "stopDeliveringOrder",
					"outputs": [],
					"payable": false,
					"stateMutability": "nonpayable",
					"type": "function"
				},
				{
					"constant": false,
					"inputs": [
						{
							"name": "_index",
							"type": "uint256"
						}
					],
					"name": "startDeliveringOrder",
					"outputs": [],
					"payable": false,
					"stateMutability": "nonpayable",
					"type": "function"
				},
				{
					"constant": true,
					"inputs": [],
					"name": "getOrderLength",
					"outputs": [
						{
							"name": "",
							"type": "uint256"
						}
					],
					"payable": false,
					"stateMutability": "view",
					"type": "function"
				},
				{
					"constant": false,
					"inputs": [
						{
							"name": "_title",
							"type": "string"
						},
						{
							"name": "_description",
							"type": "string"
						},
						{
							"name": "_deliveryCompany",
							"type": "address"
						},
						{
							"name": "_customer",
							"type": "address"
						}
					],
					"name": "createOrder",
					"outputs": [
						{
							"name": "",
							"type": "uint256"
						}
					],
					"payable": false,
					"stateMutability": "nonpayable",
					"type": "function"
				},
				{
					"constant": false,
					"inputs": [
						{
							"name": "_index",
							"type": "uint256"
						}
					],
					"name": "declineOrder",
					"outputs": [],
					"payable": false,
					"stateMutability": "nonpayable",
					"type": "function"
				},
				{
					"constant": true,
					"inputs": [
						{
							"name": "_index",
							"type": "uint256"
						}
					],
					"name": "getOrder",
					"outputs": [
						{
							"name": "",
							"type": "string"
						},
						{
							"name": "",
							"type": "string"
						},
						{
							"name": "",
							"type": "address"
						},
						{
							"name": "",
							"type": "address"
						},
						{
							"name": "",
							"type": "address"
						},
						{
							"name": "",
							"type": "uint8"
						}
					],
					"payable": false,
					"stateMutability": "view",
					"type": "function"
				},
				{
					"constant": false,
					"inputs": [
						{
							"name": "_index",
							"type": "uint256"
						}
					],
					"name": "acceptOrder",
					"outputs": [],
					"payable": false,
					"stateMutability": "nonpayable",
					"type": "function"
				}
			],
			"devdoc": {
				"methods": {}
			},
			"evm": {
				"assembly": "    /* \"supplychain.sol\":29:2825  contract SypplyChain{\r... */\n  mstore(0x40, 0x80)\n  callvalue\n    /* \"--CODEGEN--\":8:17   */\n  dup1\n    /* \"--CODEGEN--\":5:7   */\n  iszero\n  tag_1\n  jumpi\n    /* \"--CODEGEN--\":30:31   */\n  0x0\n    /* \"--CODEGEN--\":27:28   */\n  dup1\n    /* \"--CODEGEN--\":20:32   */\n  revert\n    /* \"--CODEGEN--\":5:7   */\ntag_1:\n    /* \"supplychain.sol\":29:2825  contract SypplyChain{\r... */\n  pop\n  dataSize(sub_0)\n  dup1\n  dataOffset(sub_0)\n  0x0\n  codecopy\n  0x0\n  return\nstop\n\nsub_0: assembly {\n        /* \"supplychain.sol\":29:2825  contract SypplyChain{\r... */\n      mstore(0x40, 0x80)\n      jumpi(tag_1, lt(calldatasize, 0x4))\n      and(div(calldataload(0x0), 0x100000000000000000000000000000000000000000000000000000000), 0xffffffff)\n      0x6c484042\n      dup2\n      eq\n      tag_2\n      jumpi\n      dup1\n      0x84e9d538\n      eq\n      tag_3\n      jumpi\n      dup1\n      0x9d4971b7\n      eq\n      tag_4\n      jumpi\n      dup1\n      0xaa6e2a72\n      eq\n      tag_5\n      jumpi\n      dup1\n      0xccbdb85c\n      eq\n      tag_6\n      jumpi\n      dup1\n      0xd09ef241\n      eq\n      tag_7\n      jumpi\n      dup1\n      0xef18e9ed\n      eq\n      tag_8\n      jumpi\n    tag_1:\n      0x0\n      dup1\n      revert\n        /* \"supplychain.sol\":2307:2522  function stopDeliveringOrder(uint256 _index) public onlyOrderDeliveringCompany(_index) orderDelivering(_index){\r... */\n    tag_2:\n      callvalue\n        /* \"--CODEGEN--\":8:17   */\n      dup1\n        /* \"--CODEGEN--\":5:7   */\n      iszero\n      tag_9\n      jumpi\n        /* \"--CODEGEN--\":30:31   */\n      0x0\n        /* \"--CODEGEN--\":27:28   */\n      dup1\n        /* \"--CODEGEN--\":20:32   */\n      revert\n        /* \"--CODEGEN--\":5:7   */\n    tag_9:\n      pop\n        /* \"supplychain.sol\":2307:2522  function stopDeliveringOrder(uint256 _index) public onlyOrderDeliveringCompany(_index) orderDelivering(_index){\r... */\n      tag_10\n      calldataload(0x4)\n      jump(tag_11)\n    tag_10:\n      stop\n        /* \"supplychain.sol\":2085:2298  function startDeliveringOrder(uint256 _index) public onlyOrderDeliveringCompany(_index) orderCreated(_index) {\r... */\n    tag_3:\n      callvalue\n        /* \"--CODEGEN--\":8:17   */\n      dup1\n        /* \"--CODEGEN--\":5:7   */\n      iszero\n      tag_12\n      jumpi\n        /* \"--CODEGEN--\":30:31   */\n      0x0\n        /* \"--CODEGEN--\":27:28   */\n      dup1\n        /* \"--CODEGEN--\":20:32   */\n      revert\n        /* \"--CODEGEN--\":5:7   */\n    tag_12:\n      pop\n        /* \"supplychain.sol\":2085:2298  function startDeliveringOrder(uint256 _index) public onlyOrderDeliveringCompany(_index) orderCreated(_index) {\r... */\n      tag_10\n      calldataload(0x4)\n      jump(tag_14)\n        /* \"supplychain.sol\":1057:1152  function getOrderLength() public view returns(uint256){\r... */\n    tag_4:\n      callvalue\n        /* \"--CODEGEN--\":8:17   */\n      dup1\n        /* \"--CODEGEN--\":5:7   */\n      iszero\n      tag_15\n      jumpi\n        /* \"--CODEGEN--\":30:31   */\n      0x0\n        /* \"--CODEGEN--\":27:28   */\n      dup1\n        /* \"--CODEGEN--\":20:32   */\n      revert\n        /* \"--CODEGEN--\":5:7   */\n    tag_15:\n        /* \"supplychain.sol\":1057:1152  function getOrderLength() public view returns(uint256){\r... */\n      pop\n      tag_16\n      jump(tag_17)\n    tag_16:\n      0x40\n      dup1\n      mload\n      swap2\n      dup3\n      mstore\n      mload\n      swap1\n      dup2\n      swap1\n      sub\n      0x20\n      add\n      swap1\n      return\n        /* \"supplychain.sol\":1454:2071  function createOrder(string _title, string _description, address _deliveryCompany, address _customer) public returns(uint256){\r... */\n    tag_5:\n      callvalue\n        /* \"--CODEGEN--\":8:17   */\n      dup1\n        /* \"--CODEGEN--\":5:7   */\n      iszero\n      tag_18\n      jumpi\n        /* \"--CODEGEN--\":30:31   */\n      0x0\n        /* \"--CODEGEN--\":27:28   */\n      dup1\n        /* \"--CODEGEN--\":20:32   */\n      revert\n        /* \"--CODEGEN--\":5:7   */\n    tag_18:\n      pop\n        /* \"supplychain.sol\":1454:2071  function createOrder(string _title, string _description, address _deliveryCompany, address _customer) public returns(uint256){\r... */\n      0x40\n      dup1\n      mload\n      0x20\n      0x4\n      dup1\n      calldataload\n      dup1\n      dup3\n      add\n      calldataload\n      0x1f\n      dup2\n      add\n      dup5\n      swap1\n      div\n      dup5\n      mul\n      dup6\n      add\n      dup5\n      add\n      swap1\n      swap6\n      mstore\n      dup5\n      dup5\n      mstore\n      tag_16\n      swap5\n      calldatasize\n      swap5\n      swap3\n      swap4\n      0x24\n      swap4\n      swap3\n      dup5\n      add\n      swap2\n      swap1\n      dup2\n      swap1\n      dup5\n      add\n      dup4\n      dup3\n      dup1\n      dup3\n      dup5\n      calldatacopy\n      pop\n      pop\n      0x40\n      dup1\n      mload\n      0x20\n      0x1f\n      dup10\n      calldataload\n      dup12\n      add\n      dup1\n      calldataload\n      swap2\n      dup3\n      add\n      dup4\n      swap1\n      div\n      dup4\n      mul\n      dup5\n      add\n      dup4\n      add\n      swap1\n      swap5\n      mstore\n      dup1\n      dup4\n      mstore\n      swap8\n      swap11\n      swap10\n      swap9\n      dup2\n      add\n      swap8\n      swap2\n      swap7\n      pop\n      swap2\n      dup3\n      add\n      swap5\n      pop\n      swap3\n      pop\n      dup3\n      swap2\n      pop\n      dup5\n      add\n      dup4\n      dup3\n      dup1\n      dup3\n      dup5\n      calldatacopy\n      pop\n      swap5\n      swap8\n      pop\n      pop\n      sub(exp(0x2, 0xa0), 0x1)\n      dup6\n      calldataload\n      dup2\n      and\n      swap7\n      pop\n      0x20\n      swap1\n      swap6\n      add\n      calldataload\n      swap1\n      swap5\n      and\n      swap4\n      pop\n      tag_20\n      swap3\n      pop\n      pop\n      pop\n      jump\n        /* \"supplychain.sol\":2688:2816  function declineOrder(uint256 _index) public onlyCustomer(_index) {\r... */\n    tag_6:\n      callvalue\n        /* \"--CODEGEN--\":8:17   */\n      dup1\n        /* \"--CODEGEN--\":5:7   */\n      iszero\n      tag_21\n      jumpi\n        /* \"--CODEGEN--\":30:31   */\n      0x0\n        /* \"--CODEGEN--\":27:28   */\n      dup1\n        /* \"--CODEGEN--\":20:32   */\n      revert\n        /* \"--CODEGEN--\":5:7   */\n    tag_21:\n      pop\n        /* \"supplychain.sol\":2688:2816  function declineOrder(uint256 _index) public onlyCustomer(_index) {\r... */\n      tag_10\n      calldataload(0x4)\n      jump(tag_23)\n        /* \"supplychain.sol\":1162:1445  function getOrder(uint256 _index) public view returns (string, string, address, address, address, Status){\r... */\n    tag_7:\n      callvalue\n        /* \"--CODEGEN--\":8:17   */\n      dup1\n        /* \"--CODEGEN--\":5:7   */\n      iszero\n      tag_24\n      jumpi\n        /* \"--CODEGEN--\":30:31   */\n      0x0\n        /* \"--CODEGEN--\":27:28   */\n      dup1\n        /* \"--CODEGEN--\":20:32   */\n      revert\n        /* \"--CODEGEN--\":5:7   */\n    tag_24:\n      pop\n        /* \"supplychain.sol\":1162:1445  function getOrder(uint256 _index) public view returns (string, string, address, address, address, Status){\r... */\n      tag_25\n      calldataload(0x4)\n      jump(tag_26)\n    tag_25:\n      0x40\n      dup1\n      mload\n      sub(exp(0x2, 0xa0), 0x1)\n      dup1\n      dup8\n      and\n      swap3\n      dup3\n      add\n      swap3\n      swap1\n      swap3\n      mstore\n      dup5\n      dup3\n      and\n      0x60\n      dup3\n      add\n      mstore\n      swap1\n      dup4\n      and\n      0x80\n      dup3\n      add\n      mstore\n      dup1\n      0x20\n      dup2\n      add\n      0xa0\n      dup3\n      add\n      dup5\n      0x4\n      dup2\n      gt\n      iszero\n      tag_27\n      jumpi\n      invalid\n    tag_27:\n      0xff\n      and\n      dup2\n      mstore\n      0x20\n      add\n      dup4\n      dup2\n      sub\n      dup4\n      mstore\n      dup10\n      dup2\n      dup2\n      mload\n      dup2\n      mstore\n      0x20\n      add\n      swap2\n      pop\n      dup1\n      mload\n      swap1\n      0x20\n      add\n      swap1\n      dup1\n      dup4\n      dup4\n        /* \"--CODEGEN--\":23:24   */\n      0x0\n        /* \"--CODEGEN--\":8:108   */\n    tag_28:\n        /* \"--CODEGEN--\":33:36   */\n      dup4\n        /* \"--CODEGEN--\":30:31   */\n      dup2\n        /* \"--CODEGEN--\":27:37   */\n      lt\n        /* \"--CODEGEN--\":8:108   */\n      iszero\n      tag_29\n      jumpi\n        /* \"--CODEGEN--\":90:101   */\n      dup2\n      dup2\n      add\n        /* \"--CODEGEN--\":84:102   */\n      mload\n        /* \"--CODEGEN--\":71:82   */\n      dup4\n      dup3\n      add\n        /* \"--CODEGEN--\":64:103   */\n      mstore\n        /* \"--CODEGEN--\":52:54   */\n      0x20\n        /* \"--CODEGEN--\":45:55   */\n      add\n        /* \"--CODEGEN--\":8:108   */\n      jump(tag_28)\n    tag_29:\n        /* \"--CODEGEN--\":12:26   */\n      pop\n        /* \"supplychain.sol\":1162:1445  function getOrder(uint256 _index) public view returns (string, string, address, address, address, Status){\r... */\n      pop\n      pop\n      pop\n      swap1\n      pop\n      swap1\n      dup2\n      add\n      swap1\n      0x1f\n      and\n      dup1\n      iszero\n      tag_31\n      jumpi\n      dup1\n      dup3\n      sub\n      dup1\n      mload\n      0x1\n      dup4\n      0x20\n      sub\n      0x100\n      exp\n      sub\n      not\n      and\n      dup2\n      mstore\n      0x20\n      add\n      swap2\n      pop\n    tag_31:\n      pop\n      dup4\n      dup2\n      sub\n      dup3\n      mstore\n      dup9\n      mload\n      dup2\n      mstore\n      dup9\n      mload\n      0x20\n      swap2\n      dup3\n      add\n      swap2\n      dup11\n      add\n      swap1\n      dup1\n      dup4\n      dup4\n        /* \"--CODEGEN--\":23:24   */\n      0x0\n        /* \"--CODEGEN--\":8:108   */\n    tag_32:\n        /* \"--CODEGEN--\":33:36   */\n      dup4\n        /* \"--CODEGEN--\":30:31   */\n      dup2\n        /* \"--CODEGEN--\":27:37   */\n      lt\n        /* \"--CODEGEN--\":8:108   */\n      iszero\n      tag_33\n      jumpi\n        /* \"--CODEGEN--\":90:101   */\n      dup2\n      dup2\n      add\n        /* \"--CODEGEN--\":84:102   */\n      mload\n        /* \"--CODEGEN--\":71:82   */\n      dup4\n      dup3\n      add\n        /* \"--CODEGEN--\":64:103   */\n      mstore\n        /* \"--CODEGEN--\":52:54   */\n      0x20\n        /* \"--CODEGEN--\":45:55   */\n      add\n        /* \"--CODEGEN--\":8:108   */\n      jump(tag_32)\n    tag_33:\n        /* \"--CODEGEN--\":12:26   */\n      pop\n        /* \"supplychain.sol\":1162:1445  function getOrder(uint256 _index) public view returns (string, string, address, address, address, Status){\r... */\n      pop\n      pop\n      pop\n      swap1\n      pop\n      swap1\n      dup2\n      add\n      swap1\n      0x1f\n      and\n      dup1\n      iszero\n      tag_35\n      jumpi\n      dup1\n      dup3\n      sub\n      dup1\n      mload\n      0x1\n      dup4\n      0x20\n      sub\n      0x100\n      exp\n      sub\n      not\n      and\n      dup2\n      mstore\n      0x20\n      add\n      swap2\n      pop\n    tag_35:\n      pop\n      swap9\n      pop\n      pop\n      pop\n      pop\n      pop\n      pop\n      pop\n      pop\n      pop\n      mload(0x40)\n      dup1\n      swap2\n      sub\n      swap1\n      return\n        /* \"supplychain.sol\":2531:2679  function acceptOrder(uint256 _index) public onlyCustomer(_index) orderDelivered(_index){\r... */\n    tag_8:\n      callvalue\n        /* \"--CODEGEN--\":8:17   */\n      dup1\n        /* \"--CODEGEN--\":5:7   */\n      iszero\n      tag_36\n      jumpi\n        /* \"--CODEGEN--\":30:31   */\n      0x0\n        /* \"--CODEGEN--\":27:28   */\n      dup1\n        /* \"--CODEGEN--\":20:32   */\n      revert\n        /* \"--CODEGEN--\":5:7   */\n    tag_36:\n      pop\n        /* \"supplychain.sol\":2531:2679  function acceptOrder(uint256 _index) public onlyCustomer(_index) orderDelivered(_index){\r... */\n      tag_10\n      calldataload(0x4)\n      jump(tag_38)\n        /* \"supplychain.sol\":2307:2522  function stopDeliveringOrder(uint256 _index) public onlyOrderDeliveringCompany(_index) orderDelivering(_index){\r... */\n    tag_11:\n        /* \"supplychain.sol\":2431:2450  Order storage order */\n      0x0\n        /* \"supplychain.sol\":2386:2392  _index */\n      dup2\n        /* \"supplychain.sol\":484:494  msg.sender */\n      caller\n      sub(exp(0x2, 0xa0), 0x1)\n        /* \"supplychain.sol\":450:494  orders[_index].deliveryCompany == msg.sender */\n      and\n        /* \"supplychain.sol\":450:456  orders */\n      0x0\n        /* \"supplychain.sol\":457:463  _index */\n      dup3\n        /* \"supplychain.sol\":450:464  orders[_index] */\n      dup2\n      sload\n      dup2\n      lt\n      iszero\n      iszero\n      tag_40\n      jumpi\n      invalid\n    tag_40:\n      0x0\n      swap2\n      dup3\n      mstore\n      0x20\n      swap1\n      swap2\n      keccak256\n        /* \"supplychain.sol\":450:480  orders[_index].deliveryCompany */\n      0x3\n        /* \"supplychain.sol\":450:464  orders[_index] */\n      0x5\n      swap1\n      swap3\n      mul\n      add\n        /* \"supplychain.sol\":450:480  orders[_index].deliveryCompany */\n      add\n      sload\n      sub(exp(0x2, 0xa0), 0x1)\n      and\n        /* \"supplychain.sol\":450:494  orders[_index].deliveryCompany == msg.sender */\n      eq\n        /* \"supplychain.sol\":442:495  require(orders[_index].deliveryCompany == msg.sender) */\n      tag_42\n      jumpi\n      0x0\n      dup1\n      revert\n    tag_42:\n        /* \"supplychain.sol\":2410:2416  _index */\n      dup3\n        /* \"supplychain.sol\":745:762  Status.Delivering */\n      0x1\n        /* \"supplychain.sol\":720:726  orders */\n      0x0\n        /* \"supplychain.sol\":720:734  orders[_index] */\n      dup1\n      sload\n        /* \"supplychain.sol\":727:733  _index */\n      dup4\n      swap1\n        /* \"supplychain.sol\":720:734  orders[_index] */\n      dup2\n      lt\n      tag_45\n      jumpi\n      invalid\n    tag_45:\n      swap1\n      0x0\n      mstore\n      keccak256(0x0, 0x20)\n      swap1\n      0x5\n      mul\n      add\n        /* \"supplychain.sol\":720:741  orders[_index].status */\n      0x4\n      add\n      0x14\n      swap1\n      sload\n      swap1\n      0x100\n      exp\n      swap1\n      div\n      0xff\n      and\n        /* \"supplychain.sol\":720:762  orders[_index].status == Status.Delivering */\n      0x4\n      dup2\n      gt\n      iszero\n      tag_47\n      jumpi\n      invalid\n    tag_47:\n      eq\n        /* \"supplychain.sol\":712:763  require(orders[_index].status == Status.Delivering) */\n      tag_48\n      jumpi\n      0x0\n      dup1\n      revert\n    tag_48:\n        /* \"supplychain.sol\":2453:2459  orders */\n      0x0\n        /* \"supplychain.sol\":2453:2467  orders[_index] */\n      dup1\n      sload\n        /* \"supplychain.sol\":2460:2466  _index */\n      dup6\n      swap1\n        /* \"supplychain.sol\":2453:2467  orders[_index] */\n      dup2\n      lt\n      tag_50\n      jumpi\n      invalid\n    tag_50:\n      0x0\n      swap2\n      dup3\n      mstore\n      0x20\n      swap1\n      swap2\n      keccak256\n      0x5\n      swap1\n      swap2\n      mul\n      add\n        /* \"supplychain.sol\":2480:2492  order.status */\n      0x4\n      dup2\n      add\n        /* \"supplychain.sol\":2480:2511  order.status = Status.Delivered */\n      dup1\n      sload\n        /* \"supplychain.sol\":2453:2467  orders[_index] */\n      swap2\n      swap5\n      pop\n        /* \"supplychain.sol\":2495:2511  Status.Delivered */\n      0x2\n      swap2\n      not(0xff0000000000000000000000000000000000000000)\n        /* \"supplychain.sol\":2480:2511  order.status = Status.Delivered */\n      and\n      0x10000000000000000000000000000000000000000\n        /* \"supplychain.sol\":2495:2511  Status.Delivered */\n      dup4\n        /* \"supplychain.sol\":2480:2511  order.status = Status.Delivered */\n    tag_52:\n      mul\n      or\n      swap1\n      sstore\n      pop\n        /* \"supplychain.sol\":506:507  _ */\n      pop\n        /* \"supplychain.sol\":2307:2522  function stopDeliveringOrder(uint256 _index) public onlyOrderDeliveringCompany(_index) orderDelivering(_index){\r... */\n      pop\n      pop\n      pop\n      jump\t// out\n        /* \"supplychain.sol\":2085:2298  function startDeliveringOrder(uint256 _index) public onlyOrderDeliveringCompany(_index) orderCreated(_index) {\r... */\n    tag_14:\n        /* \"supplychain.sol\":2208:2227  Order storage order */\n      0x0\n        /* \"supplychain.sol\":2165:2171  _index */\n      dup2\n        /* \"supplychain.sol\":484:494  msg.sender */\n      caller\n      sub(exp(0x2, 0xa0), 0x1)\n        /* \"supplychain.sol\":450:494  orders[_index].deliveryCompany == msg.sender */\n      and\n        /* \"supplychain.sol\":450:456  orders */\n      0x0\n        /* \"supplychain.sol\":457:463  _index */\n      dup3\n        /* \"supplychain.sol\":450:464  orders[_index] */\n      dup2\n      sload\n      dup2\n      lt\n      iszero\n      iszero\n      tag_54\n      jumpi\n      invalid\n    tag_54:\n      0x0\n      swap2\n      dup3\n      mstore\n      0x20\n      swap1\n      swap2\n      keccak256\n        /* \"supplychain.sol\":450:480  orders[_index].deliveryCompany */\n      0x3\n        /* \"supplychain.sol\":450:464  orders[_index] */\n      0x5\n      swap1\n      swap3\n      mul\n      add\n        /* \"supplychain.sol\":450:480  orders[_index].deliveryCompany */\n      add\n      sload\n      sub(exp(0x2, 0xa0), 0x1)\n      and\n        /* \"supplychain.sol\":450:494  orders[_index].deliveryCompany == msg.sender */\n      eq\n        /* \"supplychain.sol\":442:495  require(orders[_index].deliveryCompany == msg.sender) */\n      tag_56\n      jumpi\n      0x0\n      dup1\n      revert\n    tag_56:\n        /* \"supplychain.sol\":2186:2192  _index */\n      dup3\n        /* \"supplychain.sol\":611:625  Status.Created */\n      0x0\n        /* \"supplychain.sol\":586:592  orders */\n      dup1\n        /* \"supplychain.sol\":586:600  orders[_index] */\n      dup1\n      sload\n        /* \"supplychain.sol\":593:599  _index */\n      dup4\n      swap1\n        /* \"supplychain.sol\":586:600  orders[_index] */\n      dup2\n      lt\n      tag_59\n      jumpi\n      invalid\n    tag_59:\n      swap1\n      0x0\n      mstore\n      keccak256(0x0, 0x20)\n      swap1\n      0x5\n      mul\n      add\n        /* \"supplychain.sol\":586:607  orders[_index].status */\n      0x4\n      add\n      0x14\n      swap1\n      sload\n      swap1\n      0x100\n      exp\n      swap1\n      div\n      0xff\n      and\n        /* \"supplychain.sol\":586:625  orders[_index].status == Status.Created */\n      0x4\n      dup2\n      gt\n      iszero\n      tag_61\n      jumpi\n      invalid\n    tag_61:\n      eq\n        /* \"supplychain.sol\":578:626  require(orders[_index].status == Status.Created) */\n      tag_62\n      jumpi\n      0x0\n      dup1\n      revert\n    tag_62:\n        /* \"supplychain.sol\":2230:2236  orders */\n      0x0\n        /* \"supplychain.sol\":2230:2244  orders[_index] */\n      dup1\n      sload\n        /* \"supplychain.sol\":2237:2243  _index */\n      dup6\n      swap1\n        /* \"supplychain.sol\":2230:2244  orders[_index] */\n      dup2\n      lt\n      tag_64\n      jumpi\n      invalid\n    tag_64:\n      0x0\n      swap2\n      dup3\n      mstore\n      0x20\n      swap1\n      swap2\n      keccak256\n      0x5\n      swap1\n      swap2\n      mul\n      add\n        /* \"supplychain.sol\":2255:2267  order.status */\n      0x4\n      dup2\n      add\n        /* \"supplychain.sol\":2255:2287  order.status = Status.Delivering */\n      dup1\n      sload\n        /* \"supplychain.sol\":2230:2244  orders[_index] */\n      swap2\n      swap5\n      pop\n        /* \"supplychain.sol\":2270:2287  Status.Delivering */\n      0x1\n      swap2\n      not(0xff0000000000000000000000000000000000000000)\n        /* \"supplychain.sol\":2255:2287  order.status = Status.Delivering */\n      and\n      0x10000000000000000000000000000000000000000\n        /* \"supplychain.sol\":2270:2287  Status.Delivering */\n      dup4\n        /* \"supplychain.sol\":2255:2287  order.status = Status.Delivering */\n      jump(tag_52)\n        /* \"supplychain.sol\":1057:1152  function getOrderLength() public view returns(uint256){\r... */\n    tag_17:\n        /* \"supplychain.sol\":1103:1110  uint256 */\n      0x0\n        /* \"supplychain.sol\":1129:1142  orders.length */\n      sload\n        /* \"supplychain.sol\":1057:1152  function getOrderLength() public view returns(uint256){\r... */\n    tag_67:\n      swap1\n      jump\t// out\n        /* \"supplychain.sol\":1454:2071  function createOrder(string _title, string _description, address _deliveryCompany, address _customer) public returns(uint256){\r... */\n    tag_20:\n        /* \"supplychain.sol\":1571:1578  uint256 */\n      0x0\n        /* \"supplychain.sol\":1602:1620  Order memory order */\n      tag_68\n      jump\t// in(tag_69)\n    tag_68:\n        /* \"supplychain.sol\":1623:1916  Order ({\r... */\n      0x40\n      dup1\n      mload\n      0xc0\n      dup2\n      add\n      dup3\n      mstore\n      dup8\n      dup2\n      mstore\n      0x20\n      dup2\n      add\n      dup8\n      swap1\n      mstore\n        /* \"supplychain.sol\":1750:1760  msg.sender */\n      caller\n        /* \"supplychain.sol\":1623:1916  Order ({\r... */\n      swap2\n      dup2\n      add\n      swap2\n      swap1\n      swap2\n      mstore\n      sub(exp(0x2, 0xa0), 0x1)\n      dup6\n      dup2\n      and\n      0x60\n      dup4\n      add\n      mstore\n      dup5\n      and\n      0x80\n      dup3\n      add\n      mstore\n      0xa0\n      dup2\n      add\n      0x0\n      swap1\n      mstore\n        /* \"supplychain.sol\":2045:2051  orders */\n      0x0\n        /* \"--CODEGEN--\":27:37   */\n      dup1\n      sload\n        /* \"--CODEGEN--\":39:40   */\n      0x1\n        /* \"--CODEGEN--\":23:41   */\n      dup2\n      add\n        /* \"--CODEGEN--\":45:68   */\n      dup1\n      dup4\n      sstore\n        /* \"supplychain.sol\":2045:2063  orders.push(order) */\n      swap2\n      dup1\n      mstore\n      dup3\n      mload\n      dup1\n      mload\n        /* \"supplychain.sol\":1602:1916  Order memory order = Order ({\r... */\n      swap4\n      swap5\n      pop\n        /* \"--CODEGEN--\":23:41   */\n      swap2\n      swap3\n        /* \"supplychain.sol\":1602:1916  Order memory order = Order ({\r... */\n      dup5\n      swap3\n        /* \"supplychain.sol\":2045:2063  orders.push(order) */\n      0x5\n      swap1\n      swap3\n      mul\n      0x290decd9548b62a8d60345a988386fc84ba6bc95484008f6362f93160ef3e563\n      add\n      swap2\n      tag_73\n      swap2\n      dup4\n      swap2\n      0x20\n      add\n      swap1\n      jump\t// in(tag_74)\n    tag_73:\n      pop\n      0x20\n      dup3\n      dup2\n      add\n      mload\n      dup1\n      mload\n      tag_75\n      swap3\n      0x1\n      dup6\n      add\n      swap3\n      add\n      swap1\n      jump\t// in(tag_74)\n    tag_75:\n      pop\n      0x40\n      dup3\n      add\n      mload\n      0x2\n      dup3\n      add\n      dup1\n      sload\n      not(0xffffffffffffffffffffffffffffffffffffffff)\n      swap1\n      dup2\n      and\n      sub(exp(0x2, 0xa0), 0x1)\n      swap4\n      dup5\n      and\n      or\n      swap1\n      swap2\n      sstore\n      0x60\n      dup5\n      add\n      mload\n      0x3\n      dup5\n      add\n      dup1\n      sload\n      dup4\n      and\n      swap2\n      dup5\n      and\n      swap2\n      swap1\n      swap2\n      or\n      swap1\n      sstore\n      0x80\n      dup5\n      add\n      mload\n      0x4\n      dup1\n      dup6\n      add\n      dup1\n      sload\n      swap1\n      swap4\n      and\n      swap2\n      swap1\n      swap4\n      and\n      or\n      dup1\n      dup3\n      sstore\n      0xa0\n      dup6\n      add\n      mload\n      swap3\n      not(0xff0000000000000000000000000000000000000000)\n      swap1\n      swap2\n      and\n      swap1\n      0x10000000000000000000000000000000000000000\n      swap1\n      dup5\n      swap1\n      dup2\n      gt\n      iszero\n      tag_76\n      jumpi\n      invalid\n    tag_76:\n      mul\n      or\n      swap1\n      sstore\n      pop\n      pop\n      pop\n      pop\n        /* \"supplychain.sol\":1454:2071  function createOrder(string _title, string _description, address _deliveryCompany, address _customer) public returns(uint256){\r... */\n      pop\n      swap5\n      swap4\n      pop\n      pop\n      pop\n      pop\n      jump\t// out\n        /* \"supplychain.sol\":2688:2816  function declineOrder(uint256 _index) public onlyCustomer(_index) {\r... */\n    tag_23:\n        /* \"supplychain.sol\":987:993  orders */\n      0x0\n        /* \"supplychain.sol\":987:1001  orders[_index] */\n      dup1\n      sload\n        /* \"supplychain.sol\":2746:2752  _index */\n      dup3\n      swap2\n        /* \"supplychain.sol\":1014:1024  msg.sender */\n      caller\n      swap2\n        /* \"supplychain.sol\":2746:2752  _index */\n      dup4\n      swap1\n        /* \"supplychain.sol\":987:1001  orders[_index] */\n      dup2\n      lt\n      tag_78\n      jumpi\n      invalid\n    tag_78:\n      0x0\n      swap2\n      dup3\n      mstore\n      0x20\n      swap1\n      swap2\n      keccak256\n        /* \"supplychain.sol\":987:1010  orders[_index].customer */\n      0x4\n        /* \"supplychain.sol\":987:1001  orders[_index] */\n      0x5\n      swap1\n      swap3\n      mul\n      add\n        /* \"supplychain.sol\":987:1010  orders[_index].customer */\n      add\n      sload\n      sub(exp(0x2, 0xa0), 0x1)\n      and\n        /* \"supplychain.sol\":987:1024  orders[_index].customer == msg.sender */\n      eq\n        /* \"supplychain.sol\":979:1025  require(orders[_index].customer == msg.sender) */\n      tag_80\n      jumpi\n      0x0\n      dup1\n      revert\n    tag_80:\n        /* \"supplychain.sol\":2789:2805  Status.Decliened */\n      0x4\n        /* \"supplychain.sol\":2765:2771  orders */\n      0x0\n        /* \"supplychain.sol\":2772:2778  _index */\n      dup4\n        /* \"supplychain.sol\":2765:2779  orders[_index] */\n      dup2\n      sload\n      dup2\n      lt\n      iszero\n      iszero\n      tag_82\n      jumpi\n      invalid\n    tag_82:\n      swap1\n      0x0\n      mstore\n      keccak256(0x0, 0x20)\n      swap1\n      0x5\n      mul\n      add\n        /* \"supplychain.sol\":2765:2786  orders[_index].status */\n      0x4\n      add\n      0x14\n        /* \"supplychain.sol\":2765:2805  orders[_index].status = Status.Decliened */\n      0x100\n      exp\n      dup2\n      sload\n      dup2\n      0xff\n      mul\n      not\n      and\n      swap1\n      dup4\n      0x4\n      dup2\n      gt\n      iszero\n      tag_84\n      jumpi\n      invalid\n    tag_84:\n      mul\n      or\n      swap1\n      sstore\n      pop\n        /* \"supplychain.sol\":2688:2816  function declineOrder(uint256 _index) public onlyCustomer(_index) {\r... */\n      pop\n      pop\n      jump\t// out\n        /* \"supplychain.sol\":1162:1445  function getOrder(uint256 _index) public view returns (string, string, address, address, address, Status){\r... */\n    tag_26:\n        /* \"supplychain.sol\":1217:1223  string */\n      0x60\n        /* \"supplychain.sol\":1225:1231  string */\n      dup1\n        /* \"supplychain.sol\":1233:1240  address */\n      0x0\n        /* \"supplychain.sol\":1242:1249  address */\n      dup1\n        /* \"supplychain.sol\":1251:1258  address */\n      0x0\n        /* \"supplychain.sol\":1260:1266  Status */\n      dup1\n        /* \"supplychain.sol\":1280:1298  Order memory order */\n      tag_85\n      jump\t// in(tag_69)\n    tag_85:\n        /* \"supplychain.sol\":1301:1307  orders */\n      0x0\n        /* \"supplychain.sol\":1301:1315  orders[_index] */\n      dup1\n      sload\n        /* \"supplychain.sol\":1308:1314  _index */\n      dup10\n      swap1\n        /* \"supplychain.sol\":1301:1315  orders[_index] */\n      dup2\n      lt\n      tag_87\n      jumpi\n      invalid\n    tag_87:\n      0x0\n      swap2\n      dup3\n      mstore\n      0x20\n      swap2\n      dup3\n      swap1\n      keccak256\n        /* \"supplychain.sol\":1280:1315  Order memory order = orders[_index] */\n      0x40\n      dup1\n      mload\n        /* \"supplychain.sol\":1301:1315  orders[_index] */\n      0x5\n      swap4\n      swap1\n      swap4\n      mul\n      swap1\n      swap2\n      add\n        /* \"supplychain.sol\":1280:1315  Order memory order = orders[_index] */\n      dup1\n      sload\n      0x2\n      0x1\n      dup3\n      and\n      iszero\n      0x100\n      mul\n      not(0x0)\n      add\n      swap1\n      swap2\n      and\n      div\n      0x1f\n      dup2\n      add\n      dup6\n      swap1\n      div\n      swap1\n      swap5\n      mul\n      dup4\n      add\n      0xe0\n      swap1\n      dup2\n      add\n      swap1\n      swap3\n      mstore\n      0xc0\n      dup4\n      add\n      dup5\n      dup2\n      mstore\n      swap3\n      swap4\n        /* \"supplychain.sol\":1301:1315  orders[_index] */\n      swap1\n      swap3\n        /* \"supplychain.sol\":1280:1315  Order memory order = orders[_index] */\n      dup5\n      swap3\n      swap1\n      swap2\n        /* \"supplychain.sol\":1301:1315  orders[_index] */\n      dup5\n      swap2\n        /* \"supplychain.sol\":1280:1315  Order memory order = orders[_index] */\n      dup5\n      add\n        /* \"supplychain.sol\":1301:1315  orders[_index] */\n      dup3\n        /* \"supplychain.sol\":1280:1315  Order memory order = orders[_index] */\n      dup3\n      dup1\n      iszero\n      tag_89\n      jumpi\n      dup1\n      0x1f\n      lt\n      tag_90\n      jumpi\n      0x100\n      dup1\n      dup4\n      sload\n      div\n      mul\n      dup4\n      mstore\n      swap2\n      0x20\n      add\n      swap2\n      jump(tag_89)\n    tag_90:\n      dup3\n      add\n      swap2\n      swap1\n      0x0\n      mstore\n      keccak256(0x0, 0x20)\n      swap1\n    tag_91:\n      dup2\n      sload\n      dup2\n      mstore\n      swap1\n      0x1\n      add\n      swap1\n      0x20\n      add\n      dup1\n      dup4\n      gt\n      tag_91\n      jumpi\n      dup3\n      swap1\n      sub\n      0x1f\n      and\n      dup3\n      add\n      swap2\n    tag_89:\n      pop\n      pop\n      pop\n      pop\n      pop\n      dup2\n      mstore\n      0x20\n      add\n      0x1\n      dup3\n      add\n      dup1\n      sload\n      0x1\n      dup2\n      0x1\n      and\n      iszero\n      0x100\n      mul\n      sub\n      and\n      0x2\n      swap1\n      div\n      dup1\n      0x1f\n      add\n      0x20\n      dup1\n      swap2\n      div\n      mul\n      0x20\n      add\n      mload(0x40)\n      swap1\n      dup2\n      add\n      0x40\n      mstore\n      dup1\n      swap3\n      swap2\n      swap1\n      dup2\n      dup2\n      mstore\n      0x20\n      add\n      dup3\n      dup1\n      sload\n      0x1\n      dup2\n      0x1\n      and\n      iszero\n      0x100\n      mul\n      sub\n      and\n      0x2\n      swap1\n      div\n      dup1\n      iszero\n      tag_92\n      jumpi\n      dup1\n      0x1f\n      lt\n      tag_93\n      jumpi\n      0x100\n      dup1\n      dup4\n      sload\n      div\n      mul\n      dup4\n      mstore\n      swap2\n      0x20\n      add\n      swap2\n      jump(tag_92)\n    tag_93:\n      dup3\n      add\n      swap2\n      swap1\n      0x0\n      mstore\n      keccak256(0x0, 0x20)\n      swap1\n    tag_94:\n      dup2\n      sload\n      dup2\n      mstore\n      swap1\n      0x1\n      add\n      swap1\n      0x20\n      add\n      dup1\n      dup4\n      gt\n      tag_94\n      jumpi\n      dup3\n      swap1\n      sub\n      0x1f\n      and\n      dup3\n      add\n      swap2\n    tag_92:\n      pop\n      pop\n      pop\n      swap2\n      dup4\n      mstore\n      pop\n      pop\n      0x2\n      dup3\n      add\n      sload\n      sub(exp(0x2, 0xa0), 0x1)\n      swap1\n      dup2\n      and\n      0x20\n      dup4\n      add\n      mstore\n      0x3\n      dup4\n      add\n      sload\n      dup2\n      and\n      0x40\n      dup4\n      add\n      mstore\n      0x4\n      dup1\n      dup5\n      add\n      sload\n      swap2\n      dup3\n      and\n      0x60\n      dup5\n      add\n      mstore\n      0x80\n      swap1\n      swap3\n      add\n      swap2\n      0x10000000000000000000000000000000000000000\n      swap1\n      swap2\n      div\n      0xff\n      and\n      swap1\n      dup2\n      gt\n      iszero\n      tag_95\n      jumpi\n      invalid\n    tag_95:\n      0x4\n      dup2\n      gt\n      iszero\n      tag_96\n      jumpi\n      invalid\n    tag_96:\n      swap1\n      mstore\n      pop\n        /* \"supplychain.sol\":1335:1346  order.title */\n      dup1\n      mload\n        /* \"supplychain.sol\":1348:1365  order.description */\n      0x20\n      dup3\n      add\n      mload\n        /* \"supplychain.sol\":1367:1381  order.supplier */\n      0x40\n      dup4\n      add\n      mload\n        /* \"supplychain.sol\":1383:1404  order.deliveryCompany */\n      0x60\n      dup5\n      add\n      mload\n        /* \"supplychain.sol\":1406:1420  order.customer */\n      0x80\n      dup6\n      add\n      mload\n        /* \"supplychain.sol\":1422:1434  order.status */\n      0xa0\n      swap1\n      swap6\n      add\n      mload\n        /* \"supplychain.sol\":1335:1346  order.title */\n      swap4\n      swap14\n        /* \"supplychain.sol\":1348:1365  order.description */\n      swap3\n      swap13\n      pop\n        /* \"supplychain.sol\":1367:1381  order.supplier */\n      swap1\n      swap11\n      pop\n        /* \"supplychain.sol\":1383:1404  order.deliveryCompany */\n      swap9\n      pop\n        /* \"supplychain.sol\":1406:1420  order.customer */\n      swap2\n      swap7\n      pop\n        /* \"supplychain.sol\":1422:1434  order.status */\n      swap5\n      pop\n        /* \"supplychain.sol\":1162:1445  function getOrder(uint256 _index) public view returns (string, string, address, address, address, Status){\r... */\n      swap3\n      pop\n      pop\n      pop\n      jump\t// out\n        /* \"supplychain.sol\":2531:2679  function acceptOrder(uint256 _index) public onlyCustomer(_index) orderDelivered(_index){\r... */\n    tag_38:\n        /* \"supplychain.sol\":987:993  orders */\n      0x0\n        /* \"supplychain.sol\":987:1001  orders[_index] */\n      dup1\n      sload\n        /* \"supplychain.sol\":2588:2594  _index */\n      dup3\n      swap2\n        /* \"supplychain.sol\":1014:1024  msg.sender */\n      caller\n      swap2\n        /* \"supplychain.sol\":2588:2594  _index */\n      dup4\n      swap1\n        /* \"supplychain.sol\":987:1001  orders[_index] */\n      dup2\n      lt\n      tag_98\n      jumpi\n      invalid\n    tag_98:\n      0x0\n      swap2\n      dup3\n      mstore\n      0x20\n      swap1\n      swap2\n      keccak256\n        /* \"supplychain.sol\":987:1010  orders[_index].customer */\n      0x4\n        /* \"supplychain.sol\":987:1001  orders[_index] */\n      0x5\n      swap1\n      swap3\n      mul\n      add\n        /* \"supplychain.sol\":987:1010  orders[_index].customer */\n      add\n      sload\n      sub(exp(0x2, 0xa0), 0x1)\n      and\n        /* \"supplychain.sol\":987:1024  orders[_index].customer == msg.sender */\n      eq\n        /* \"supplychain.sol\":979:1025  require(orders[_index].customer == msg.sender) */\n      tag_100\n      jumpi\n      0x0\n      dup1\n      revert\n    tag_100:\n        /* \"supplychain.sol\":2611:2617  _index */\n      dup2\n        /* \"supplychain.sol\":882:897  Status.Accepted */\n      0x3\n        /* \"supplychain.sol\":857:863  orders */\n      0x0\n        /* \"supplychain.sol\":857:871  orders[_index] */\n      dup1\n      sload\n        /* \"supplychain.sol\":864:870  _index */\n      dup4\n      swap1\n        /* \"supplychain.sol\":857:871  orders[_index] */\n      dup2\n      lt\n      tag_103\n      jumpi\n      invalid\n    tag_103:\n      swap1\n      0x0\n      mstore\n      keccak256(0x0, 0x20)\n      swap1\n      0x5\n      mul\n      add\n        /* \"supplychain.sol\":857:878  orders[_index].status */\n      0x4\n      add\n      0x14\n      swap1\n      sload\n      swap1\n      0x100\n      exp\n      swap1\n      div\n      0xff\n      and\n        /* \"supplychain.sol\":857:897  orders[_index].status == Status.Accepted */\n      0x4\n      dup2\n      gt\n      iszero\n      tag_105\n      jumpi\n      invalid\n    tag_105:\n      eq\n        /* \"supplychain.sol\":849:898  require(orders[_index].status == Status.Accepted) */\n      tag_106\n      jumpi\n      0x0\n      dup1\n      revert\n    tag_106:\n        /* \"supplychain.sol\":2653:2668  Status.Accepted */\n      0x3\n        /* \"supplychain.sol\":2629:2635  orders */\n      0x0\n        /* \"supplychain.sol\":2636:2642  _index */\n      dup5\n        /* \"supplychain.sol\":2629:2643  orders[_index] */\n      dup2\n      sload\n      dup2\n      lt\n      iszero\n      iszero\n      tag_108\n      jumpi\n      invalid\n    tag_108:\n      swap1\n      0x0\n      mstore\n      keccak256(0x0, 0x20)\n      swap1\n      0x5\n      mul\n      add\n        /* \"supplychain.sol\":2629:2650  orders[_index].status */\n      0x4\n      add\n      0x14\n        /* \"supplychain.sol\":2629:2668  orders[_index].status = Status.Accepted */\n      0x100\n      exp\n      dup2\n      sload\n      dup2\n      0xff\n      mul\n      not\n      and\n      swap1\n      dup4\n      0x4\n      dup2\n      gt\n      iszero\n      tag_110\n      jumpi\n      invalid\n    tag_110:\n      mul\n      or\n      swap1\n      sstore\n      pop\n        /* \"supplychain.sol\":1036:1037  _ */\n      pop\n        /* \"supplychain.sol\":2531:2679  function acceptOrder(uint256 _index) public onlyCustomer(_index) orderDelivered(_index){\r... */\n      pop\n      pop\n      jump\t// out\n        /* \"supplychain.sol\":29:2825  contract SypplyChain{\r... */\n    tag_69:\n      0x40\n      dup1\n      mload\n      0xc0\n      dup2\n      add\n      dup3\n      mstore\n      0x60\n      dup1\n      dup3\n      mstore\n      0x20\n      dup3\n      add\n      dup2\n      swap1\n      mstore\n      0x0\n      swap3\n      dup3\n      add\n      dup4\n      swap1\n      mstore\n      dup2\n      add\n      dup3\n      swap1\n      mstore\n      0x80\n      dup2\n      add\n      dup3\n      swap1\n      mstore\n      swap1\n      0xa0\n      dup3\n      add\n      mstore\n      swap1\n      jump\t// out\n    tag_74:\n      dup3\n      dup1\n      sload\n      0x1\n      dup2\n      0x1\n      and\n      iszero\n      0x100\n      mul\n      sub\n      and\n      0x2\n      swap1\n      div\n      swap1\n      0x0\n      mstore\n      keccak256(0x0, 0x20)\n      swap1\n      0x1f\n      add\n      0x20\n      swap1\n      div\n      dup2\n      add\n      swap3\n      dup3\n      0x1f\n      lt\n      tag_113\n      jumpi\n      dup1\n      mload\n      not(0xff)\n      and\n      dup4\n      dup1\n      add\n      or\n      dup6\n      sstore\n      jump(tag_115)\n    tag_113:\n      dup3\n      dup1\n      add\n      0x1\n      add\n      dup6\n      sstore\n      dup3\n      iszero\n      tag_115\n      jumpi\n      swap2\n      dup3\n      add\n    tag_114:\n      dup3\n      dup2\n      gt\n      iszero\n      tag_115\n      jumpi\n      dup3\n      mload\n      dup3\n      sstore\n      swap2\n      0x20\n      add\n      swap2\n      swap1\n      0x1\n      add\n      swap1\n      jump(tag_114)\n    tag_115:\n      pop\n      tag_116\n      swap3\n      swap2\n      pop\n      jump\t// in(tag_117)\n    tag_116:\n      pop\n      swap1\n      jump\t// out\n    tag_117:\n      tag_67\n      swap2\n      swap1\n    tag_119:\n      dup1\n      dup3\n      gt\n      iszero\n      tag_116\n      jumpi\n      0x0\n      dup2\n      sstore\n      0x1\n      add\n      jump(tag_119)\n\n    auxdata: 0xa165627a7a723058200efd944efc899f3d2b3dc2d2900850deec72573ee91147cd14548384563684070029\n}\n",
				"bytecode": {
					"linkReferences": {},
					"object": "608060405234801561001057600080fd5b50610a6b806100206000396000f3006080604052600436106100825763ffffffff7c01000000000000000000000000000000000000000000000000000000006000350416636c484042811461008757806384e9d538146100a15780639d4971b7146100b9578063aa6e2a72146100e0578063ccbdb85c1461018d578063d09ef241146101a5578063ef18e9ed146102d6575b600080fd5b34801561009357600080fd5b5061009f6004356102ee565b005b3480156100ad57600080fd5b5061009f6004356103db565b3480156100c557600080fd5b506100ce6104c0565b60408051918252519081900360200190f35b3480156100ec57600080fd5b506040805160206004803580820135601f81018490048402850184019095528484526100ce94369492936024939284019190819084018382808284375050604080516020601f89358b018035918201839004830284018301909452808352979a99988101979196509182019450925082915084018382808284375094975050600160a060020a0385358116965060209095013590941693506104c792505050565b34801561019957600080fd5b5061009f60043561062a565b3480156101b157600080fd5b506101bd6004356106a9565b60408051600160a060020a038087169282019290925284821660608201529083166080820152806020810160a082018460048111156101f857fe5b60ff168152602001838103835289818151815260200191508051906020019080838360005b8381101561023557818101518382015260200161021d565b50505050905090810190601f1680156102625780820380516001836020036101000a031916815260200191505b5083810382528851815288516020918201918a019080838360005b8381101561029557818101518382015260200161027d565b50505050905090810190601f1680156102c25780820380516001836020036101000a031916815260200191505b509850505050505050505060405180910390f35b3480156102e257600080fd5b5061009f6004356108af565b60008133600160a060020a031660008281548110151561030a57fe5b6000918252602090912060036005909202010154600160a060020a03161461033157600080fd5b826001600080548390811061034257fe5b906000526020600020906005020160040160149054906101000a900460ff16600481111561036c57fe5b1461037657600080fd5b600080548590811061038457fe5b6000918252602090912060059091020160048101805491945060029174ff0000000000000000000000000000000000000000191674010000000000000000000000000000000000000000835b021790555050505050565b60008133600160a060020a03166000828154811015156103f757fe5b6000918252602090912060036005909202010154600160a060020a03161461041e57600080fd5b8260008080548390811061042e57fe5b906000526020600020906005020160040160149054906101000a900460ff16600481111561045857fe5b1461046257600080fd5b600080548590811061047057fe5b6000918252602090912060059091020160048101805491945060019174ff0000000000000000000000000000000000000000191674010000000000000000000000000000000000000000836103d0565b6000545b90565b60006104d1610974565b6040805160c081018252878152602081018790523391810191909152600160a060020a0385811660608301528416608082015260a08101600090526000805460018101808355918052825180519394509192849260059092027f290decd9548b62a8d60345a988386fc84ba6bc95484008f6362f93160ef3e563019161055c918391602001906109a7565b50602082810151805161057592600185019201906109a7565b50604082015160028201805473ffffffffffffffffffffffffffffffffffffffff19908116600160a060020a039384161790915560608401516003840180548316918416919091179055608084015160048085018054909316919093161780825560a08501519274ff000000000000000000000000000000000000000019909116907401000000000000000000000000000000000000000090849081111561061957fe5b021790555050505050949350505050565b60008054829133918390811061063c57fe5b6000918252602090912060046005909202010154600160a060020a03161461066357600080fd5b600460008381548110151561067457fe5b906000526020600020906005020160040160146101000a81548160ff021916908360048111156106a057fe5b02179055505050565b6060806000806000806106ba610974565b60008054899081106106c857fe5b600091825260209182902060408051600593909302909101805460026001821615610100026000190190911604601f8101859004909402830160e090810190925260c083018481529293909284929091849184018282801561076b5780601f106107405761010080835404028352916020019161076b565b820191906000526020600020905b81548152906001019060200180831161074e57829003601f168201915b50505050508152602001600182018054600181600116156101000203166002900480601f01602080910402602001604051908101604052809291908181526020018280546001816001161561010002031660029004801561080d5780601f106107e25761010080835404028352916020019161080d565b820191906000526020600020905b8154815290600101906020018083116107f057829003601f168201915b50505091835250506002820154600160a060020a03908116602083015260038301548116604083015260048084015491821660608401526080909201917401000000000000000000000000000000000000000090910460ff169081111561087057fe5b600481111561087b57fe5b9052508051602082015160408301516060840151608085015160a090950151939d929c50909a509850919650945092505050565b6000805482913391839081106108c157fe5b6000918252602090912060046005909202010154600160a060020a0316146108e857600080fd5b81600360008054839081106108f957fe5b906000526020600020906005020160040160149054906101000a900460ff16600481111561092357fe5b1461092d57600080fd5b600360008481548110151561093e57fe5b906000526020600020906005020160040160146101000a81548160ff0219169083600481111561096a57fe5b0217905550505050565b6040805160c08101825260608082526020820181905260009282018390528101829052608081018290529060a082015290565b828054600181600116156101000203166002900490600052602060002090601f016020900481019282601f106109e857805160ff1916838001178555610a15565b82800160010185558215610a15579182015b82811115610a155782518255916020019190600101906109fa565b50610a21929150610a25565b5090565b6104c491905b80821115610a215760008155600101610a2b5600a165627a7a723058200efd944efc899f3d2b3dc2d2900850deec72573ee91147cd14548384563684070029",
					"opcodes": "PUSH1 0x80 PUSH1 0x40 MSTORE CALLVALUE DUP1 ISZERO PUSH2 0x10 JUMPI PUSH1 0x0 DUP1 REVERT JUMPDEST POP PUSH2 0xA6B DUP1 PUSH2 0x20 PUSH1 0x0 CODECOPY PUSH1 0x0 RETURN STOP PUSH1 0x80 PUSH1 0x40 MSTORE PUSH1 0x4 CALLDATASIZE LT PUSH2 0x82 JUMPI PUSH4 0xFFFFFFFF PUSH29 0x100000000000000000000000000000000000000000000000000000000 PUSH1 0x0 CALLDATALOAD DIV AND PUSH4 0x6C484042 DUP2 EQ PUSH2 0x87 JUMPI DUP1 PUSH4 0x84E9D538 EQ PUSH2 0xA1 JUMPI DUP1 PUSH4 0x9D4971B7 EQ PUSH2 0xB9 JUMPI DUP1 PUSH4 0xAA6E2A72 EQ PUSH2 0xE0 JUMPI DUP1 PUSH4 0xCCBDB85C EQ PUSH2 0x18D JUMPI DUP1 PUSH4 0xD09EF241 EQ PUSH2 0x1A5 JUMPI DUP1 PUSH4 0xEF18E9ED EQ PUSH2 0x2D6 JUMPI JUMPDEST PUSH1 0x0 DUP1 REVERT JUMPDEST CALLVALUE DUP1 ISZERO PUSH2 0x93 JUMPI PUSH1 0x0 DUP1 REVERT JUMPDEST POP PUSH2 0x9F PUSH1 0x4 CALLDATALOAD PUSH2 0x2EE JUMP JUMPDEST STOP JUMPDEST CALLVALUE DUP1 ISZERO PUSH2 0xAD JUMPI PUSH1 0x0 DUP1 REVERT JUMPDEST POP PUSH2 0x9F PUSH1 0x4 CALLDATALOAD PUSH2 0x3DB JUMP JUMPDEST CALLVALUE DUP1 ISZERO PUSH2 0xC5 JUMPI PUSH1 0x0 DUP1 REVERT JUMPDEST POP PUSH2 0xCE PUSH2 0x4C0 JUMP JUMPDEST PUSH1 0x40 DUP1 MLOAD SWAP2 DUP3 MSTORE MLOAD SWAP1 DUP2 SWAP1 SUB PUSH1 0x20 ADD SWAP1 RETURN JUMPDEST CALLVALUE DUP1 ISZERO PUSH2 0xEC JUMPI PUSH1 0x0 DUP1 REVERT JUMPDEST POP PUSH1 0x40 DUP1 MLOAD PUSH1 0x20 PUSH1 0x4 DUP1 CALLDATALOAD DUP1 DUP3 ADD CALLDATALOAD PUSH1 0x1F DUP2 ADD DUP5 SWAP1 DIV DUP5 MUL DUP6 ADD DUP5 ADD SWAP1 SWAP6 MSTORE DUP5 DUP5 MSTORE PUSH2 0xCE SWAP5 CALLDATASIZE SWAP5 SWAP3 SWAP4 PUSH1 0x24 SWAP4 SWAP3 DUP5 ADD SWAP2 SWAP1 DUP2 SWAP1 DUP5 ADD DUP4 DUP3 DUP1 DUP3 DUP5 CALLDATACOPY POP POP PUSH1 0x40 DUP1 MLOAD PUSH1 0x20 PUSH1 0x1F DUP10 CALLDATALOAD DUP12 ADD DUP1 CALLDATALOAD SWAP2 DUP3 ADD DUP4 SWAP1 DIV DUP4 MUL DUP5 ADD DUP4 ADD SWAP1 SWAP5 MSTORE DUP1 DUP4 MSTORE SWAP8 SWAP11 SWAP10 SWAP9 DUP2 ADD SWAP8 SWAP2 SWAP7 POP SWAP2 DUP3 ADD SWAP5 POP SWAP3 POP DUP3 SWAP2 POP DUP5 ADD DUP4 DUP3 DUP1 DUP3 DUP5 CALLDATACOPY POP SWAP5 SWAP8 POP POP PUSH1 0x1 PUSH1 0xA0 PUSH1 0x2 EXP SUB DUP6 CALLDATALOAD DUP2 AND SWAP7 POP PUSH1 0x20 SWAP1 SWAP6 ADD CALLDATALOAD SWAP1 SWAP5 AND SWAP4 POP PUSH2 0x4C7 SWAP3 POP POP POP JUMP JUMPDEST CALLVALUE DUP1 ISZERO PUSH2 0x199 JUMPI PUSH1 0x0 DUP1 REVERT JUMPDEST POP PUSH2 0x9F PUSH1 0x4 CALLDATALOAD PUSH2 0x62A JUMP JUMPDEST CALLVALUE DUP1 ISZERO PUSH2 0x1B1 JUMPI PUSH1 0x0 DUP1 REVERT JUMPDEST POP PUSH2 0x1BD PUSH1 0x4 CALLDATALOAD PUSH2 0x6A9 JUMP JUMPDEST PUSH1 0x40 DUP1 MLOAD PUSH1 0x1 PUSH1 0xA0 PUSH1 0x2 EXP SUB DUP1 DUP8 AND SWAP3 DUP3 ADD SWAP3 SWAP1 SWAP3 MSTORE DUP5 DUP3 AND PUSH1 0x60 DUP3 ADD MSTORE SWAP1 DUP4 AND PUSH1 0x80 DUP3 ADD MSTORE DUP1 PUSH1 0x20 DUP2 ADD PUSH1 0xA0 DUP3 ADD DUP5 PUSH1 0x4 DUP2 GT ISZERO PUSH2 0x1F8 JUMPI INVALID JUMPDEST PUSH1 0xFF AND DUP2 MSTORE PUSH1 0x20 ADD DUP4 DUP2 SUB DUP4 MSTORE DUP10 DUP2 DUP2 MLOAD DUP2 MSTORE PUSH1 0x20 ADD SWAP2 POP DUP1 MLOAD SWAP1 PUSH1 0x20 ADD SWAP1 DUP1 DUP4 DUP4 PUSH1 0x0 JUMPDEST DUP4 DUP2 LT ISZERO PUSH2 0x235 JUMPI DUP2 DUP2 ADD MLOAD DUP4 DUP3 ADD MSTORE PUSH1 0x20 ADD PUSH2 0x21D JUMP JUMPDEST POP POP POP POP SWAP1 POP SWAP1 DUP2 ADD SWAP1 PUSH1 0x1F AND DUP1 ISZERO PUSH2 0x262 JUMPI DUP1 DUP3 SUB DUP1 MLOAD PUSH1 0x1 DUP4 PUSH1 0x20 SUB PUSH2 0x100 EXP SUB NOT AND DUP2 MSTORE PUSH1 0x20 ADD SWAP2 POP JUMPDEST POP DUP4 DUP2 SUB DUP3 MSTORE DUP9 MLOAD DUP2 MSTORE DUP9 MLOAD PUSH1 0x20 SWAP2 DUP3 ADD SWAP2 DUP11 ADD SWAP1 DUP1 DUP4 DUP4 PUSH1 0x0 JUMPDEST DUP4 DUP2 LT ISZERO PUSH2 0x295 JUMPI DUP2 DUP2 ADD MLOAD DUP4 DUP3 ADD MSTORE PUSH1 0x20 ADD PUSH2 0x27D JUMP JUMPDEST POP POP POP POP SWAP1 POP SWAP1 DUP2 ADD SWAP1 PUSH1 0x1F AND DUP1 ISZERO PUSH2 0x2C2 JUMPI DUP1 DUP3 SUB DUP1 MLOAD PUSH1 0x1 DUP4 PUSH1 0x20 SUB PUSH2 0x100 EXP SUB NOT AND DUP2 MSTORE PUSH1 0x20 ADD SWAP2 POP JUMPDEST POP SWAP9 POP POP POP POP POP POP POP POP POP PUSH1 0x40 MLOAD DUP1 SWAP2 SUB SWAP1 RETURN JUMPDEST CALLVALUE DUP1 ISZERO PUSH2 0x2E2 JUMPI PUSH1 0x0 DUP1 REVERT JUMPDEST POP PUSH2 0x9F PUSH1 0x4 CALLDATALOAD PUSH2 0x8AF JUMP JUMPDEST PUSH1 0x0 DUP2 CALLER PUSH1 0x1 PUSH1 0xA0 PUSH1 0x2 EXP SUB AND PUSH1 0x0 DUP3 DUP2 SLOAD DUP2 LT ISZERO ISZERO PUSH2 0x30A JUMPI INVALID JUMPDEST PUSH1 0x0 SWAP2 DUP3 MSTORE PUSH1 0x20 SWAP1 SWAP2 KECCAK256 PUSH1 0x3 PUSH1 0x5 SWAP1 SWAP3 MUL ADD ADD SLOAD PUSH1 0x1 PUSH1 0xA0 PUSH1 0x2 EXP SUB AND EQ PUSH2 0x331 JUMPI PUSH1 0x0 DUP1 REVERT JUMPDEST DUP3 PUSH1 0x1 PUSH1 0x0 DUP1 SLOAD DUP4 SWAP1 DUP2 LT PUSH2 0x342 JUMPI INVALID JUMPDEST SWAP1 PUSH1 0x0 MSTORE PUSH1 0x20 PUSH1 0x0 KECCAK256 SWAP1 PUSH1 0x5 MUL ADD PUSH1 0x4 ADD PUSH1 0x14 SWAP1 SLOAD SWAP1 PUSH2 0x100 EXP SWAP1 DIV PUSH1 0xFF AND PUSH1 0x4 DUP2 GT ISZERO PUSH2 0x36C JUMPI INVALID JUMPDEST EQ PUSH2 0x376 JUMPI PUSH1 0x0 DUP1 REVERT JUMPDEST PUSH1 0x0 DUP1 SLOAD DUP6 SWAP1 DUP2 LT PUSH2 0x384 JUMPI INVALID JUMPDEST PUSH1 0x0 SWAP2 DUP3 MSTORE PUSH1 0x20 SWAP1 SWAP2 KECCAK256 PUSH1 0x5 SWAP1 SWAP2 MUL ADD PUSH1 0x4 DUP2 ADD DUP1 SLOAD SWAP2 SWAP5 POP PUSH1 0x2 SWAP2 PUSH21 0xFF0000000000000000000000000000000000000000 NOT AND PUSH21 0x10000000000000000000000000000000000000000 DUP4 JUMPDEST MUL OR SWAP1 SSTORE POP POP POP POP POP JUMP JUMPDEST PUSH1 0x0 DUP2 CALLER PUSH1 0x1 PUSH1 0xA0 PUSH1 0x2 EXP SUB AND PUSH1 0x0 DUP3 DUP2 SLOAD DUP2 LT ISZERO ISZERO PUSH2 0x3F7 JUMPI INVALID JUMPDEST PUSH1 0x0 SWAP2 DUP3 MSTORE PUSH1 0x20 SWAP1 SWAP2 KECCAK256 PUSH1 0x3 PUSH1 0x5 SWAP1 SWAP3 MUL ADD ADD SLOAD PUSH1 0x1 PUSH1 0xA0 PUSH1 0x2 EXP SUB AND EQ PUSH2 0x41E JUMPI PUSH1 0x0 DUP1 REVERT JUMPDEST DUP3 PUSH1 0x0 DUP1 DUP1 SLOAD DUP4 SWAP1 DUP2 LT PUSH2 0x42E JUMPI INVALID JUMPDEST SWAP1 PUSH1 0x0 MSTORE PUSH1 0x20 PUSH1 0x0 KECCAK256 SWAP1 PUSH1 0x5 MUL ADD PUSH1 0x4 ADD PUSH1 0x14 SWAP1 SLOAD SWAP1 PUSH2 0x100 EXP SWAP1 DIV PUSH1 0xFF AND PUSH1 0x4 DUP2 GT ISZERO PUSH2 0x458 JUMPI INVALID JUMPDEST EQ PUSH2 0x462 JUMPI PUSH1 0x0 DUP1 REVERT JUMPDEST PUSH1 0x0 DUP1 SLOAD DUP6 SWAP1 DUP2 LT PUSH2 0x470 JUMPI INVALID JUMPDEST PUSH1 0x0 SWAP2 DUP3 MSTORE PUSH1 0x20 SWAP1 SWAP2 KECCAK256 PUSH1 0x5 SWAP1 SWAP2 MUL ADD PUSH1 0x4 DUP2 ADD DUP1 SLOAD SWAP2 SWAP5 POP PUSH1 0x1 SWAP2 PUSH21 0xFF0000000000000000000000000000000000000000 NOT AND PUSH21 0x10000000000000000000000000000000000000000 DUP4 PUSH2 0x3D0 JUMP JUMPDEST PUSH1 0x0 SLOAD JUMPDEST SWAP1 JUMP JUMPDEST PUSH1 0x0 PUSH2 0x4D1 PUSH2 0x974 JUMP JUMPDEST PUSH1 0x40 DUP1 MLOAD PUSH1 0xC0 DUP2 ADD DUP3 MSTORE DUP8 DUP2 MSTORE PUSH1 0x20 DUP2 ADD DUP8 SWAP1 MSTORE CALLER SWAP2 DUP2 ADD SWAP2 SWAP1 SWAP2 MSTORE PUSH1 0x1 PUSH1 0xA0 PUSH1 0x2 EXP SUB DUP6 DUP2 AND PUSH1 0x60 DUP4 ADD MSTORE DUP5 AND PUSH1 0x80 DUP3 ADD MSTORE PUSH1 0xA0 DUP2 ADD PUSH1 0x0 SWAP1 MSTORE PUSH1 0x0 DUP1 SLOAD PUSH1 0x1 DUP2 ADD DUP1 DUP4 SSTORE SWAP2 DUP1 MSTORE DUP3 MLOAD DUP1 MLOAD SWAP4 SWAP5 POP SWAP2 SWAP3 DUP5 SWAP3 PUSH1 0x5 SWAP1 SWAP3 MUL PUSH32 0x290DECD9548B62A8D60345A988386FC84BA6BC95484008F6362F93160EF3E563 ADD SWAP2 PUSH2 0x55C SWAP2 DUP4 SWAP2 PUSH1 0x20 ADD SWAP1 PUSH2 0x9A7 JUMP JUMPDEST POP PUSH1 0x20 DUP3 DUP2 ADD MLOAD DUP1 MLOAD PUSH2 0x575 SWAP3 PUSH1 0x1 DUP6 ADD SWAP3 ADD SWAP1 PUSH2 0x9A7 JUMP JUMPDEST POP PUSH1 0x40 DUP3 ADD MLOAD PUSH1 0x2 DUP3 ADD DUP1 SLOAD PUSH20 0xFFFFFFFFFFFFFFFFFFFFFFFFFFFFFFFFFFFFFFFF NOT SWAP1 DUP2 AND PUSH1 0x1 PUSH1 0xA0 PUSH1 0x2 EXP SUB SWAP4 DUP5 AND OR SWAP1 SWAP2 SSTORE PUSH1 0x60 DUP5 ADD MLOAD PUSH1 0x3 DUP5 ADD DUP1 SLOAD DUP4 AND SWAP2 DUP5 AND SWAP2 SWAP1 SWAP2 OR SWAP1 SSTORE PUSH1 0x80 DUP5 ADD MLOAD PUSH1 0x4 DUP1 DUP6 ADD DUP1 SLOAD SWAP1 SWAP4 AND SWAP2 SWAP1 SWAP4 AND OR DUP1 DUP3 SSTORE PUSH1 0xA0 DUP6 ADD MLOAD SWAP3 PUSH21 0xFF0000000000000000000000000000000000000000 NOT SWAP1 SWAP2 AND SWAP1 PUSH21 0x10000000000000000000000000000000000000000 SWAP1 DUP5 SWAP1 DUP2 GT ISZERO PUSH2 0x619 JUMPI INVALID JUMPDEST MUL OR SWAP1 SSTORE POP POP POP POP POP SWAP5 SWAP4 POP POP POP POP JUMP JUMPDEST PUSH1 0x0 DUP1 SLOAD DUP3 SWAP2 CALLER SWAP2 DUP4 SWAP1 DUP2 LT PUSH2 0x63C JUMPI INVALID JUMPDEST PUSH1 0x0 SWAP2 DUP3 MSTORE PUSH1 0x20 SWAP1 SWAP2 KECCAK256 PUSH1 0x4 PUSH1 0x5 SWAP1 SWAP3 MUL ADD ADD SLOAD PUSH1 0x1 PUSH1 0xA0 PUSH1 0x2 EXP SUB AND EQ PUSH2 0x663 JUMPI PUSH1 0x0 DUP1 REVERT JUMPDEST PUSH1 0x4 PUSH1 0x0 DUP4 DUP2 SLOAD DUP2 LT ISZERO ISZERO PUSH2 0x674 JUMPI INVALID JUMPDEST SWAP1 PUSH1 0x0 MSTORE PUSH1 0x20 PUSH1 0x0 KECCAK256 SWAP1 PUSH1 0x5 MUL ADD PUSH1 0x4 ADD PUSH1 0x14 PUSH2 0x100 EXP DUP2 SLOAD DUP2 PUSH1 0xFF MUL NOT AND SWAP1 DUP4 PUSH1 0x4 DUP2 GT ISZERO PUSH2 0x6A0 JUMPI INVALID JUMPDEST MUL OR SWAP1 SSTORE POP POP POP JUMP JUMPDEST PUSH1 0x60 DUP1 PUSH1 0x0 DUP1 PUSH1 0x0 DUP1 PUSH2 0x6BA PUSH2 0x974 JUMP JUMPDEST PUSH1 0x0 DUP1 SLOAD DUP10 SWAP1 DUP2 LT PUSH2 0x6C8 JUMPI INVALID JUMPDEST PUSH1 0x0 SWAP2 DUP3 MSTORE PUSH1 0x20 SWAP2 DUP3 SWAP1 KECCAK256 PUSH1 0x40 DUP1 MLOAD PUSH1 0x5 SWAP4 SWAP1 SWAP4 MUL SWAP1 SWAP2 ADD DUP1 SLOAD PUSH1 0x2 PUSH1 0x1 DUP3 AND ISZERO PUSH2 0x100 MUL PUSH1 0x0 NOT ADD SWAP1 SWAP2 AND DIV PUSH1 0x1F DUP2 ADD DUP6 SWAP1 DIV SWAP1 SWAP5 MUL DUP4 ADD PUSH1 0xE0 SWAP1 DUP2 ADD SWAP1 SWAP3 MSTORE PUSH1 0xC0 DUP4 ADD DUP5 DUP2 MSTORE SWAP3 SWAP4 SWAP1 SWAP3 DUP5 SWAP3 SWAP1 SWAP2 DUP5 SWAP2 DUP5 ADD DUP3 DUP3 DUP1 ISZERO PUSH2 0x76B JUMPI DUP1 PUSH1 0x1F LT PUSH2 0x740 JUMPI PUSH2 0x100 DUP1 DUP4 SLOAD DIV MUL DUP4 MSTORE SWAP2 PUSH1 0x20 ADD SWAP2 PUSH2 0x76B JUMP JUMPDEST DUP3 ADD SWAP2 SWAP1 PUSH1 0x0 MSTORE PUSH1 0x20 PUSH1 0x0 KECCAK256 SWAP1 JUMPDEST DUP2 SLOAD DUP2 MSTORE SWAP1 PUSH1 0x1 ADD SWAP1 PUSH1 0x20 ADD DUP1 DUP4 GT PUSH2 0x74E JUMPI DUP3 SWAP1 SUB PUSH1 0x1F AND DUP3 ADD SWAP2 JUMPDEST POP POP POP POP POP DUP2 MSTORE PUSH1 0x20 ADD PUSH1 0x1 DUP3 ADD DUP1 SLOAD PUSH1 0x1 DUP2 PUSH1 0x1 AND ISZERO PUSH2 0x100 MUL SUB AND PUSH1 0x2 SWAP1 DIV DUP1 PUSH1 0x1F ADD PUSH1 0x20 DUP1 SWAP2 DIV MUL PUSH1 0x20 ADD PUSH1 0x40 MLOAD SWAP1 DUP2 ADD PUSH1 0x40 MSTORE DUP1 SWAP3 SWAP2 SWAP1 DUP2 DUP2 MSTORE PUSH1 0x20 ADD DUP3 DUP1 SLOAD PUSH1 0x1 DUP2 PUSH1 0x1 AND ISZERO PUSH2 0x100 MUL SUB AND PUSH1 0x2 SWAP1 DIV DUP1 ISZERO PUSH2 0x80D JUMPI DUP1 PUSH1 0x1F LT PUSH2 0x7E2 JUMPI PUSH2 0x100 DUP1 DUP4 SLOAD DIV MUL DUP4 MSTORE SWAP2 PUSH1 0x20 ADD SWAP2 PUSH2 0x80D JUMP JUMPDEST DUP3 ADD SWAP2 SWAP1 PUSH1 0x0 MSTORE PUSH1 0x20 PUSH1 0x0 KECCAK256 SWAP1 JUMPDEST DUP2 SLOAD DUP2 MSTORE SWAP1 PUSH1 0x1 ADD SWAP1 PUSH1 0x20 ADD DUP1 DUP4 GT PUSH2 0x7F0 JUMPI DUP3 SWAP1 SUB PUSH1 0x1F AND DUP3 ADD SWAP2 JUMPDEST POP POP POP SWAP2 DUP4 MSTORE POP POP PUSH1 0x2 DUP3 ADD SLOAD PUSH1 0x1 PUSH1 0xA0 PUSH1 0x2 EXP SUB SWAP1 DUP2 AND PUSH1 0x20 DUP4 ADD MSTORE PUSH1 0x3 DUP4 ADD SLOAD DUP2 AND PUSH1 0x40 DUP4 ADD MSTORE PUSH1 0x4 DUP1 DUP5 ADD SLOAD SWAP2 DUP3 AND PUSH1 0x60 DUP5 ADD MSTORE PUSH1 0x80 SWAP1 SWAP3 ADD SWAP2 PUSH21 0x10000000000000000000000000000000000000000 SWAP1 SWAP2 DIV PUSH1 0xFF AND SWAP1 DUP2 GT ISZERO PUSH2 0x870 JUMPI INVALID JUMPDEST PUSH1 0x4 DUP2 GT ISZERO PUSH2 0x87B JUMPI INVALID JUMPDEST SWAP1 MSTORE POP DUP1 MLOAD PUSH1 0x20 DUP3 ADD MLOAD PUSH1 0x40 DUP4 ADD MLOAD PUSH1 0x60 DUP5 ADD MLOAD PUSH1 0x80 DUP6 ADD MLOAD PUSH1 0xA0 SWAP1 SWAP6 ADD MLOAD SWAP4 SWAP14 SWAP3 SWAP13 POP SWAP1 SWAP11 POP SWAP9 POP SWAP2 SWAP7 POP SWAP5 POP SWAP3 POP POP POP JUMP JUMPDEST PUSH1 0x0 DUP1 SLOAD DUP3 SWAP2 CALLER SWAP2 DUP4 SWAP1 DUP2 LT PUSH2 0x8C1 JUMPI INVALID JUMPDEST PUSH1 0x0 SWAP2 DUP3 MSTORE PUSH1 0x20 SWAP1 SWAP2 KECCAK256 PUSH1 0x4 PUSH1 0x5 SWAP1 SWAP3 MUL ADD ADD SLOAD PUSH1 0x1 PUSH1 0xA0 PUSH1 0x2 EXP SUB AND EQ PUSH2 0x8E8 JUMPI PUSH1 0x0 DUP1 REVERT JUMPDEST DUP2 PUSH1 0x3 PUSH1 0x0 DUP1 SLOAD DUP4 SWAP1 DUP2 LT PUSH2 0x8F9 JUMPI INVALID JUMPDEST SWAP1 PUSH1 0x0 MSTORE PUSH1 0x20 PUSH1 0x0 KECCAK256 SWAP1 PUSH1 0x5 MUL ADD PUSH1 0x4 ADD PUSH1 0x14 SWAP1 SLOAD SWAP1 PUSH2 0x100 EXP SWAP1 DIV PUSH1 0xFF AND PUSH1 0x4 DUP2 GT ISZERO PUSH2 0x923 JUMPI INVALID JUMPDEST EQ PUSH2 0x92D JUMPI PUSH1 0x0 DUP1 REVERT JUMPDEST PUSH1 0x3 PUSH1 0x0 DUP5 DUP2 SLOAD DUP2 LT ISZERO ISZERO PUSH2 0x93E JUMPI INVALID JUMPDEST SWAP1 PUSH1 0x0 MSTORE PUSH1 0x20 PUSH1 0x0 KECCAK256 SWAP1 PUSH1 0x5 MUL ADD PUSH1 0x4 ADD PUSH1 0x14 PUSH2 0x100 EXP DUP2 SLOAD DUP2 PUSH1 0xFF MUL NOT AND SWAP1 DUP4 PUSH1 0x4 DUP2 GT ISZERO PUSH2 0x96A JUMPI INVALID JUMPDEST MUL OR SWAP1 SSTORE POP POP POP POP JUMP JUMPDEST PUSH1 0x40 DUP1 MLOAD PUSH1 0xC0 DUP2 ADD DUP3 MSTORE PUSH1 0x60 DUP1 DUP3 MSTORE PUSH1 0x20 DUP3 ADD DUP2 SWAP1 MSTORE PUSH1 0x0 SWAP3 DUP3 ADD DUP4 SWAP1 MSTORE DUP2 ADD DUP3 SWAP1 MSTORE PUSH1 0x80 DUP2 ADD DUP3 SWAP1 MSTORE SWAP1 PUSH1 0xA0 DUP3 ADD MSTORE SWAP1 JUMP JUMPDEST DUP3 DUP1 SLOAD PUSH1 0x1 DUP2 PUSH1 0x1 AND ISZERO PUSH2 0x100 MUL SUB AND PUSH1 0x2 SWAP1 DIV SWAP1 PUSH1 0x0 MSTORE PUSH1 0x20 PUSH1 0x0 KECCAK256 SWAP1 PUSH1 0x1F ADD PUSH1 0x20 SWAP1 DIV DUP2 ADD SWAP3 DUP3 PUSH1 0x1F LT PUSH2 0x9E8 JUMPI DUP1 MLOAD PUSH1 0xFF NOT AND DUP4 DUP1 ADD OR DUP6 SSTORE PUSH2 0xA15 JUMP JUMPDEST DUP3 DUP1 ADD PUSH1 0x1 ADD DUP6 SSTORE DUP3 ISZERO PUSH2 0xA15 JUMPI SWAP2 DUP3 ADD JUMPDEST DUP3 DUP2 GT ISZERO PUSH2 0xA15 JUMPI DUP3 MLOAD DUP3 SSTORE SWAP2 PUSH1 0x20 ADD SWAP2 SWAP1 PUSH1 0x1 ADD SWAP1 PUSH2 0x9FA JUMP JUMPDEST POP PUSH2 0xA21 SWAP3 SWAP2 POP PUSH2 0xA25 JUMP JUMPDEST POP SWAP1 JUMP JUMPDEST PUSH2 0x4C4 SWAP2 SWAP1 JUMPDEST DUP1 DUP3 GT ISZERO PUSH2 0xA21 JUMPI PUSH1 0x0 DUP2 SSTORE PUSH1 0x1 ADD PUSH2 0xA2B JUMP STOP LOG1 PUSH6 0x627A7A723058 KECCAK256 0xe REVERT SWAP5 0x4e 0xfc DUP10 SWAP16 RETURNDATASIZE 0x2b RETURNDATASIZE 0xc2 0xd2 SWAP1 ADDMOD POP 0xde 0xec PUSH19 0x573EE91147CD14548384563684070029000000 "
				},
				"gasEstimates": {
					"creation": {
						"codeDepositCost": "533400",
						"executionCost": "568",
						"totalCost": "533968"
					},
					"external": {
						"acceptOrder(uint256)": "22167",
						"createOrder(string,string,address,address)": "infinite",
						"declineOrder(uint256)": "21483",
						"getOrder(uint256)": "infinite",
						"getOrderLength()": "429",
						"startDeliveringOrder(uint256)": "22066",
						"stopDeliveringOrder(uint256)": "22033"
					}
				},
				"methodIdentifiers": {
					"acceptOrder(uint256)": "ef18e9ed",
					"createOrder(string,string,address,address)": "aa6e2a72",
					"declineOrder(uint256)": "ccbdb85c",
					"getOrder(uint256)": "d09ef241",
					"getOrderLength()": "9d4971b7",
					"startDeliveringOrder(uint256)": "84e9d538",
					"stopDeliveringOrder(uint256)": "6c484042"
				}
			},
			"userdoc": {
				"methods": {}
			}
		}
	}
}