{
	"supplychain.sol": {
		"SypplyChain": {
			"abi": [
				{
					"constant": false,
					"inputs": [
						{
							"name": "_index",
							"type": "uint256"
						}
					],
					"name": "stopDeliveringOrder",
					"outputs": [],
					"payable": false,
					"stateMutability": "nonpayable",
					"type": "function"
				},
				{
					"constant": false,
					"inputs": [
						{
							"name": "_index",
							"type": "uint256"
						}
					],
					"name": "startDeliveringOrder",
					"outputs": [],
					"payable": false,
					"stateMutability": "nonpayable",
					"type": "function"
				},
				{
					"constant": true,
					"inputs": [],
					"name": "getOrderLength",
					"outputs": [
						{
							"name": "",
							"type": "uint256"
						}
					],
					"payable": false,
					"stateMutability": "view",
					"type": "function"
				},
				{
					"constant": false,
					"inputs": [
						{
							"name": "_title",
							"type": "string"
						},
						{
							"name": "_description",
							"type": "string"
						},
						{
							"name": "_deliveryCompany",
							"type": "address"
						},
						{
							"name": "_customer",
							"type": "address"
						}
					],
					"name": "createOrder",
					"outputs": [
						{
							"name": "",
							"type": "uint256"
						}
					],
					"payable": false,
					"stateMutability": "nonpayable",
					"type": "function"
				},
				{
					"constant": false,
					"inputs": [
						{
							"name": "_index",
							"type": "uint256"
						}
					],
					"name": "declineOrder",
					"outputs": [],
					"payable": false,
					"stateMutability": "nonpayable",
					"type": "function"
				},
				{
					"constant": false,
					"inputs": [
						{
							"name": "_index",
							"type": "uint256"
						}
					],
					"name": "acceptOrder",
					"outputs": [],
					"payable": false,
					"stateMutability": "nonpayable",
					"type": "function"
				}
			],
			"devdoc": {
				"methods": {}
			},
			"evm": {
				"assembly": "    /* \"supplychain.sol\":29:2523  contract SypplyChain{\r... */\n  mstore(0x40, 0x80)\n  callvalue\n    /* \"--CODEGEN--\":8:17   */\n  dup1\n    /* \"--CODEGEN--\":5:7   */\n  iszero\n  tag_1\n  jumpi\n    /* \"--CODEGEN--\":30:31   */\n  0x0\n    /* \"--CODEGEN--\":27:28   */\n  dup1\n    /* \"--CODEGEN--\":20:32   */\n  revert\n    /* \"--CODEGEN--\":5:7   */\ntag_1:\n    /* \"supplychain.sol\":29:2523  contract SypplyChain{\r... */\n  pop\n  dataSize(sub_0)\n  dup1\n  dataOffset(sub_0)\n  0x0\n  codecopy\n  0x0\n  return\nstop\n\nsub_0: assembly {\n        /* \"supplychain.sol\":29:2523  contract SypplyChain{\r... */\n      mstore(0x40, 0x80)\n      jumpi(tag_1, lt(calldatasize, 0x4))\n      and(div(calldataload(0x0), 0x100000000000000000000000000000000000000000000000000000000), 0xffffffff)\n      0x6c484042\n      dup2\n      eq\n      tag_2\n      jumpi\n      dup1\n      0x84e9d538\n      eq\n      tag_3\n      jumpi\n      dup1\n      0x9d4971b7\n      eq\n      tag_4\n      jumpi\n      dup1\n      0xaa6e2a72\n      eq\n      tag_5\n      jumpi\n      dup1\n      0xccbdb85c\n      eq\n      tag_6\n      jumpi\n      dup1\n      0xef18e9ed\n      eq\n      tag_7\n      jumpi\n    tag_1:\n      0x0\n      dup1\n      revert\n        /* \"supplychain.sol\":2005:2220  function stopDeliveringOrder(uint256 _index) public onlyOrderDeliveringCompany(_index) orderDelivering(_index){\r... */\n    tag_2:\n      callvalue\n        /* \"--CODEGEN--\":8:17   */\n      dup1\n        /* \"--CODEGEN--\":5:7   */\n      iszero\n      tag_8\n      jumpi\n        /* \"--CODEGEN--\":30:31   */\n      0x0\n        /* \"--CODEGEN--\":27:28   */\n      dup1\n        /* \"--CODEGEN--\":20:32   */\n      revert\n        /* \"--CODEGEN--\":5:7   */\n    tag_8:\n      pop\n        /* \"supplychain.sol\":2005:2220  function stopDeliveringOrder(uint256 _index) public onlyOrderDeliveringCompany(_index) orderDelivering(_index){\r... */\n      tag_9\n      calldataload(0x4)\n      jump(tag_10)\n    tag_9:\n      stop\n        /* \"supplychain.sol\":1783:1996  function startDeliveringOrder(uint256 _index) public onlyOrderDeliveringCompany(_index) orderCreated(_index) {\r... */\n    tag_3:\n      callvalue\n        /* \"--CODEGEN--\":8:17   */\n      dup1\n        /* \"--CODEGEN--\":5:7   */\n      iszero\n      tag_11\n      jumpi\n        /* \"--CODEGEN--\":30:31   */\n      0x0\n        /* \"--CODEGEN--\":27:28   */\n      dup1\n        /* \"--CODEGEN--\":20:32   */\n      revert\n        /* \"--CODEGEN--\":5:7   */\n    tag_11:\n      pop\n        /* \"supplychain.sol\":1783:1996  function startDeliveringOrder(uint256 _index) public onlyOrderDeliveringCompany(_index) orderCreated(_index) {\r... */\n      tag_9\n      calldataload(0x4)\n      jump(tag_13)\n        /* \"supplychain.sol\":1679:1774  function getOrderLength() public view returns(uint256){\r... */\n    tag_4:\n      callvalue\n        /* \"--CODEGEN--\":8:17   */\n      dup1\n        /* \"--CODEGEN--\":5:7   */\n      iszero\n      tag_14\n      jumpi\n        /* \"--CODEGEN--\":30:31   */\n      0x0\n        /* \"--CODEGEN--\":27:28   */\n      dup1\n        /* \"--CODEGEN--\":20:32   */\n      revert\n        /* \"--CODEGEN--\":5:7   */\n    tag_14:\n        /* \"supplychain.sol\":1679:1774  function getOrderLength() public view returns(uint256){\r... */\n      pop\n      tag_15\n      jump(tag_16)\n    tag_15:\n      0x40\n      dup1\n      mload\n      swap2\n      dup3\n      mstore\n      mload\n      swap1\n      dup2\n      swap1\n      sub\n      0x20\n      add\n      swap1\n      return\n        /* \"supplychain.sol\":1054:1671  function createOrder(string _title, string _description, address _deliveryCompany, address _customer) public returns(uint256){\r... */\n    tag_5:\n      callvalue\n        /* \"--CODEGEN--\":8:17   */\n      dup1\n        /* \"--CODEGEN--\":5:7   */\n      iszero\n      tag_17\n      jumpi\n        /* \"--CODEGEN--\":30:31   */\n      0x0\n        /* \"--CODEGEN--\":27:28   */\n      dup1\n        /* \"--CODEGEN--\":20:32   */\n      revert\n        /* \"--CODEGEN--\":5:7   */\n    tag_17:\n      pop\n        /* \"supplychain.sol\":1054:1671  function createOrder(string _title, string _description, address _deliveryCompany, address _customer) public returns(uint256){\r... */\n      0x40\n      dup1\n      mload\n      0x20\n      0x4\n      dup1\n      calldataload\n      dup1\n      dup3\n      add\n      calldataload\n      0x1f\n      dup2\n      add\n      dup5\n      swap1\n      div\n      dup5\n      mul\n      dup6\n      add\n      dup5\n      add\n      swap1\n      swap6\n      mstore\n      dup5\n      dup5\n      mstore\n      tag_15\n      swap5\n      calldatasize\n      swap5\n      swap3\n      swap4\n      0x24\n      swap4\n      swap3\n      dup5\n      add\n      swap2\n      swap1\n      dup2\n      swap1\n      dup5\n      add\n      dup4\n      dup3\n      dup1\n      dup3\n      dup5\n      calldatacopy\n      pop\n      pop\n      0x40\n      dup1\n      mload\n      0x20\n      0x1f\n      dup10\n      calldataload\n      dup12\n      add\n      dup1\n      calldataload\n      swap2\n      dup3\n      add\n      dup4\n      swap1\n      div\n      dup4\n      mul\n      dup5\n      add\n      dup4\n      add\n      swap1\n      swap5\n      mstore\n      dup1\n      dup4\n      mstore\n      swap8\n      swap11\n      swap10\n      swap9\n      dup2\n      add\n      swap8\n      swap2\n      swap7\n      pop\n      swap2\n      dup3\n      add\n      swap5\n      pop\n      swap3\n      pop\n      dup3\n      swap2\n      pop\n      dup5\n      add\n      dup4\n      dup3\n      dup1\n      dup3\n      dup5\n      calldatacopy\n      pop\n      swap5\n      swap8\n      pop\n      pop\n      sub(exp(0x2, 0xa0), 0x1)\n      dup6\n      calldataload\n      dup2\n      and\n      swap7\n      pop\n      0x20\n      swap1\n      swap6\n      add\n      calldataload\n      swap1\n      swap5\n      and\n      swap4\n      pop\n      tag_19\n      swap3\n      pop\n      pop\n      pop\n      jump\n        /* \"supplychain.sol\":2386:2514  function declineOrder(uint256 _index) public onlyCustomer(_index) {\r... */\n    tag_6:\n      callvalue\n        /* \"--CODEGEN--\":8:17   */\n      dup1\n        /* \"--CODEGEN--\":5:7   */\n      iszero\n      tag_20\n      jumpi\n        /* \"--CODEGEN--\":30:31   */\n      0x0\n        /* \"--CODEGEN--\":27:28   */\n      dup1\n        /* \"--CODEGEN--\":20:32   */\n      revert\n        /* \"--CODEGEN--\":5:7   */\n    tag_20:\n      pop\n        /* \"supplychain.sol\":2386:2514  function declineOrder(uint256 _index) public onlyCustomer(_index) {\r... */\n      tag_9\n      calldataload(0x4)\n      jump(tag_22)\n        /* \"supplychain.sol\":2229:2377  function acceptOrder(uint256 _index) public onlyCustomer(_index) orderDelivered(_index){\r... */\n    tag_7:\n      callvalue\n        /* \"--CODEGEN--\":8:17   */\n      dup1\n        /* \"--CODEGEN--\":5:7   */\n      iszero\n      tag_23\n      jumpi\n        /* \"--CODEGEN--\":30:31   */\n      0x0\n        /* \"--CODEGEN--\":27:28   */\n      dup1\n        /* \"--CODEGEN--\":20:32   */\n      revert\n        /* \"--CODEGEN--\":5:7   */\n    tag_23:\n      pop\n        /* \"supplychain.sol\":2229:2377  function acceptOrder(uint256 _index) public onlyCustomer(_index) orderDelivered(_index){\r... */\n      tag_9\n      calldataload(0x4)\n      jump(tag_25)\n        /* \"supplychain.sol\":2005:2220  function stopDeliveringOrder(uint256 _index) public onlyOrderDeliveringCompany(_index) orderDelivering(_index){\r... */\n    tag_10:\n        /* \"supplychain.sol\":2129:2148  Order storage order */\n      0x0\n        /* \"supplychain.sol\":2084:2090  _index */\n      dup2\n        /* \"supplychain.sol\":484:494  msg.sender */\n      caller\n      sub(exp(0x2, 0xa0), 0x1)\n        /* \"supplychain.sol\":450:494  orders[_index].deliveryCompany == msg.sender */\n      and\n        /* \"supplychain.sol\":450:456  orders */\n      0x0\n        /* \"supplychain.sol\":457:463  _index */\n      dup3\n        /* \"supplychain.sol\":450:464  orders[_index] */\n      dup2\n      sload\n      dup2\n      lt\n      iszero\n      iszero\n      tag_27\n      jumpi\n      invalid\n    tag_27:\n      0x0\n      swap2\n      dup3\n      mstore\n      0x20\n      swap1\n      swap2\n      keccak256\n        /* \"supplychain.sol\":450:480  orders[_index].deliveryCompany */\n      0x3\n        /* \"supplychain.sol\":450:464  orders[_index] */\n      0x5\n      swap1\n      swap3\n      mul\n      add\n        /* \"supplychain.sol\":450:480  orders[_index].deliveryCompany */\n      add\n      sload\n      sub(exp(0x2, 0xa0), 0x1)\n      and\n        /* \"supplychain.sol\":450:494  orders[_index].deliveryCompany == msg.sender */\n      eq\n        /* \"supplychain.sol\":442:495  require(orders[_index].deliveryCompany == msg.sender) */\n      tag_29\n      jumpi\n      0x0\n      dup1\n      revert\n    tag_29:\n        /* \"supplychain.sol\":2108:2114  _index */\n      dup3\n        /* \"supplychain.sol\":745:762  Status.Delivering */\n      0x1\n        /* \"supplychain.sol\":720:726  orders */\n      0x0\n        /* \"supplychain.sol\":720:734  orders[_index] */\n      dup1\n      sload\n        /* \"supplychain.sol\":727:733  _index */\n      dup4\n      swap1\n        /* \"supplychain.sol\":720:734  orders[_index] */\n      dup2\n      lt\n      tag_32\n      jumpi\n      invalid\n    tag_32:\n      swap1\n      0x0\n      mstore\n      keccak256(0x0, 0x20)\n      swap1\n      0x5\n      mul\n      add\n        /* \"supplychain.sol\":720:741  orders[_index].status */\n      0x4\n      add\n      0x14\n      swap1\n      sload\n      swap1\n      0x100\n      exp\n      swap1\n      div\n      0xff\n      and\n        /* \"supplychain.sol\":720:762  orders[_index].status == Status.Delivering */\n      0x4\n      dup2\n      gt\n      iszero\n      tag_34\n      jumpi\n      invalid\n    tag_34:\n      eq\n        /* \"supplychain.sol\":712:763  require(orders[_index].status == Status.Delivering) */\n      tag_35\n      jumpi\n      0x0\n      dup1\n      revert\n    tag_35:\n        /* \"supplychain.sol\":2151:2157  orders */\n      0x0\n        /* \"supplychain.sol\":2151:2165  orders[_index] */\n      dup1\n      sload\n        /* \"supplychain.sol\":2158:2164  _index */\n      dup6\n      swap1\n        /* \"supplychain.sol\":2151:2165  orders[_index] */\n      dup2\n      lt\n      tag_37\n      jumpi\n      invalid\n    tag_37:\n      0x0\n      swap2\n      dup3\n      mstore\n      0x20\n      swap1\n      swap2\n      keccak256\n      0x5\n      swap1\n      swap2\n      mul\n      add\n        /* \"supplychain.sol\":2178:2190  order.status */\n      0x4\n      dup2\n      add\n        /* \"supplychain.sol\":2178:2209  order.status = Status.Delivered */\n      dup1\n      sload\n        /* \"supplychain.sol\":2151:2165  orders[_index] */\n      swap2\n      swap5\n      pop\n        /* \"supplychain.sol\":2193:2209  Status.Delivered */\n      0x2\n      swap2\n      not(0xff0000000000000000000000000000000000000000)\n        /* \"supplychain.sol\":2178:2209  order.status = Status.Delivered */\n      and\n      0x10000000000000000000000000000000000000000\n        /* \"supplychain.sol\":2193:2209  Status.Delivered */\n      dup4\n        /* \"supplychain.sol\":2178:2209  order.status = Status.Delivered */\n    tag_39:\n      mul\n      or\n      swap1\n      sstore\n      pop\n        /* \"supplychain.sol\":506:507  _ */\n      pop\n        /* \"supplychain.sol\":2005:2220  function stopDeliveringOrder(uint256 _index) public onlyOrderDeliveringCompany(_index) orderDelivering(_index){\r... */\n      pop\n      pop\n      pop\n      jump\t// out\n        /* \"supplychain.sol\":1783:1996  function startDeliveringOrder(uint256 _index) public onlyOrderDeliveringCompany(_index) orderCreated(_index) {\r... */\n    tag_13:\n        /* \"supplychain.sol\":1906:1925  Order storage order */\n      0x0\n        /* \"supplychain.sol\":1863:1869  _index */\n      dup2\n        /* \"supplychain.sol\":484:494  msg.sender */\n      caller\n      sub(exp(0x2, 0xa0), 0x1)\n        /* \"supplychain.sol\":450:494  orders[_index].deliveryCompany == msg.sender */\n      and\n        /* \"supplychain.sol\":450:456  orders */\n      0x0\n        /* \"supplychain.sol\":457:463  _index */\n      dup3\n        /* \"supplychain.sol\":450:464  orders[_index] */\n      dup2\n      sload\n      dup2\n      lt\n      iszero\n      iszero\n      tag_41\n      jumpi\n      invalid\n    tag_41:\n      0x0\n      swap2\n      dup3\n      mstore\n      0x20\n      swap1\n      swap2\n      keccak256\n        /* \"supplychain.sol\":450:480  orders[_index].deliveryCompany */\n      0x3\n        /* \"supplychain.sol\":450:464  orders[_index] */\n      0x5\n      swap1\n      swap3\n      mul\n      add\n        /* \"supplychain.sol\":450:480  orders[_index].deliveryCompany */\n      add\n      sload\n      sub(exp(0x2, 0xa0), 0x1)\n      and\n        /* \"supplychain.sol\":450:494  orders[_index].deliveryCompany == msg.sender */\n      eq\n        /* \"supplychain.sol\":442:495  require(orders[_index].deliveryCompany == msg.sender) */\n      tag_43\n      jumpi\n      0x0\n      dup1\n      revert\n    tag_43:\n        /* \"supplychain.sol\":1884:1890  _index */\n      dup3\n        /* \"supplychain.sol\":611:625  Status.Created */\n      0x0\n        /* \"supplychain.sol\":586:592  orders */\n      dup1\n        /* \"supplychain.sol\":586:600  orders[_index] */\n      dup1\n      sload\n        /* \"supplychain.sol\":593:599  _index */\n      dup4\n      swap1\n        /* \"supplychain.sol\":586:600  orders[_index] */\n      dup2\n      lt\n      tag_46\n      jumpi\n      invalid\n    tag_46:\n      swap1\n      0x0\n      mstore\n      keccak256(0x0, 0x20)\n      swap1\n      0x5\n      mul\n      add\n        /* \"supplychain.sol\":586:607  orders[_index].status */\n      0x4\n      add\n      0x14\n      swap1\n      sload\n      swap1\n      0x100\n      exp\n      swap1\n      div\n      0xff\n      and\n        /* \"supplychain.sol\":586:625  orders[_index].status == Status.Created */\n      0x4\n      dup2\n      gt\n      iszero\n      tag_48\n      jumpi\n      invalid\n    tag_48:\n      eq\n        /* \"supplychain.sol\":578:626  require(orders[_index].status == Status.Created) */\n      tag_49\n      jumpi\n      0x0\n      dup1\n      revert\n    tag_49:\n        /* \"supplychain.sol\":1928:1934  orders */\n      0x0\n        /* \"supplychain.sol\":1928:1942  orders[_index] */\n      dup1\n      sload\n        /* \"supplychain.sol\":1935:1941  _index */\n      dup6\n      swap1\n        /* \"supplychain.sol\":1928:1942  orders[_index] */\n      dup2\n      lt\n      tag_51\n      jumpi\n      invalid\n    tag_51:\n      0x0\n      swap2\n      dup3\n      mstore\n      0x20\n      swap1\n      swap2\n      keccak256\n      0x5\n      swap1\n      swap2\n      mul\n      add\n        /* \"supplychain.sol\":1953:1965  order.status */\n      0x4\n      dup2\n      add\n        /* \"supplychain.sol\":1953:1985  order.status = Status.Delivering */\n      dup1\n      sload\n        /* \"supplychain.sol\":1928:1942  orders[_index] */\n      swap2\n      swap5\n      pop\n        /* \"supplychain.sol\":1968:1985  Status.Delivering */\n      0x1\n      swap2\n      not(0xff0000000000000000000000000000000000000000)\n        /* \"supplychain.sol\":1953:1985  order.status = Status.Delivering */\n      and\n      0x10000000000000000000000000000000000000000\n        /* \"supplychain.sol\":1968:1985  Status.Delivering */\n      dup4\n        /* \"supplychain.sol\":1953:1985  order.status = Status.Delivering */\n      jump(tag_39)\n        /* \"supplychain.sol\":1679:1774  function getOrderLength() public view returns(uint256){\r... */\n    tag_16:\n        /* \"supplychain.sol\":1725:1732  uint256 */\n      0x0\n        /* \"supplychain.sol\":1751:1764  orders.length */\n      sload\n        /* \"supplychain.sol\":1679:1774  function getOrderLength() public view returns(uint256){\r... */\n    tag_54:\n      swap1\n      jump\t// out\n        /* \"supplychain.sol\":1054:1671  function createOrder(string _title, string _description, address _deliveryCompany, address _customer) public returns(uint256){\r... */\n    tag_19:\n        /* \"supplychain.sol\":1171:1178  uint256 */\n      0x0\n        /* \"supplychain.sol\":1202:1220  Order memory order */\n      tag_55\n      jump\t// in(tag_56)\n    tag_55:\n        /* \"supplychain.sol\":1223:1516  Order ({\r... */\n      0x40\n      dup1\n      mload\n      0xc0\n      dup2\n      add\n      dup3\n      mstore\n      dup8\n      dup2\n      mstore\n      0x20\n      dup2\n      add\n      dup8\n      swap1\n      mstore\n        /* \"supplychain.sol\":1350:1360  msg.sender */\n      caller\n        /* \"supplychain.sol\":1223:1516  Order ({\r... */\n      swap2\n      dup2\n      add\n      swap2\n      swap1\n      swap2\n      mstore\n      sub(exp(0x2, 0xa0), 0x1)\n      dup6\n      dup2\n      and\n      0x60\n      dup4\n      add\n      mstore\n      dup5\n      and\n      0x80\n      dup3\n      add\n      mstore\n      0xa0\n      dup2\n      add\n      0x0\n      swap1\n      mstore\n        /* \"supplychain.sol\":1645:1651  orders */\n      0x0\n        /* \"--CODEGEN--\":27:37   */\n      dup1\n      sload\n        /* \"--CODEGEN--\":39:40   */\n      0x1\n        /* \"--CODEGEN--\":23:41   */\n      dup2\n      add\n        /* \"--CODEGEN--\":45:68   */\n      dup1\n      dup4\n      sstore\n        /* \"supplychain.sol\":1645:1663  orders.push(order) */\n      swap2\n      dup1\n      mstore\n      dup3\n      mload\n      dup1\n      mload\n        /* \"supplychain.sol\":1202:1516  Order memory order = Order ({\r... */\n      swap4\n      swap5\n      pop\n        /* \"--CODEGEN--\":23:41   */\n      swap2\n      swap3\n        /* \"supplychain.sol\":1202:1516  Order memory order = Order ({\r... */\n      dup5\n      swap3\n        /* \"supplychain.sol\":1645:1663  orders.push(order) */\n      0x5\n      swap1\n      swap3\n      mul\n      0x290decd9548b62a8d60345a988386fc84ba6bc95484008f6362f93160ef3e563\n      add\n      swap2\n      tag_60\n      swap2\n      dup4\n      swap2\n      0x20\n      add\n      swap1\n      jump\t// in(tag_61)\n    tag_60:\n      pop\n      0x20\n      dup3\n      dup2\n      add\n      mload\n      dup1\n      mload\n      tag_62\n      swap3\n      0x1\n      dup6\n      add\n      swap3\n      add\n      swap1\n      jump\t// in(tag_61)\n    tag_62:\n      pop\n      0x40\n      dup3\n      add\n      mload\n      0x2\n      dup3\n      add\n      dup1\n      sload\n      not(0xffffffffffffffffffffffffffffffffffffffff)\n      swap1\n      dup2\n      and\n      sub(exp(0x2, 0xa0), 0x1)\n      swap4\n      dup5\n      and\n      or\n      swap1\n      swap2\n      sstore\n      0x60\n      dup5\n      add\n      mload\n      0x3\n      dup5\n      add\n      dup1\n      sload\n      dup4\n      and\n      swap2\n      dup5\n      and\n      swap2\n      swap1\n      swap2\n      or\n      swap1\n      sstore\n      0x80\n      dup5\n      add\n      mload\n      0x4\n      dup1\n      dup6\n      add\n      dup1\n      sload\n      swap1\n      swap4\n      and\n      swap2\n      swap1\n      swap4\n      and\n      or\n      dup1\n      dup3\n      sstore\n      0xa0\n      dup6\n      add\n      mload\n      swap3\n      not(0xff0000000000000000000000000000000000000000)\n      swap1\n      swap2\n      and\n      swap1\n      0x10000000000000000000000000000000000000000\n      swap1\n      dup5\n      swap1\n      dup2\n      gt\n      iszero\n      tag_63\n      jumpi\n      invalid\n    tag_63:\n      mul\n      or\n      swap1\n      sstore\n      pop\n      pop\n      pop\n      pop\n        /* \"supplychain.sol\":1054:1671  function createOrder(string _title, string _description, address _deliveryCompany, address _customer) public returns(uint256){\r... */\n      pop\n      swap5\n      swap4\n      pop\n      pop\n      pop\n      pop\n      jump\t// out\n        /* \"supplychain.sol\":2386:2514  function declineOrder(uint256 _index) public onlyCustomer(_index) {\r... */\n    tag_22:\n        /* \"supplychain.sol\":987:993  orders */\n      0x0\n        /* \"supplychain.sol\":987:1001  orders[_index] */\n      dup1\n      sload\n        /* \"supplychain.sol\":2444:2450  _index */\n      dup3\n      swap2\n        /* \"supplychain.sol\":1014:1024  msg.sender */\n      caller\n      swap2\n        /* \"supplychain.sol\":2444:2450  _index */\n      dup4\n      swap1\n        /* \"supplychain.sol\":987:1001  orders[_index] */\n      dup2\n      lt\n      tag_65\n      jumpi\n      invalid\n    tag_65:\n      0x0\n      swap2\n      dup3\n      mstore\n      0x20\n      swap1\n      swap2\n      keccak256\n        /* \"supplychain.sol\":987:1010  orders[_index].customer */\n      0x4\n        /* \"supplychain.sol\":987:1001  orders[_index] */\n      0x5\n      swap1\n      swap3\n      mul\n      add\n        /* \"supplychain.sol\":987:1010  orders[_index].customer */\n      add\n      sload\n      sub(exp(0x2, 0xa0), 0x1)\n      and\n        /* \"supplychain.sol\":987:1024  orders[_index].customer == msg.sender */\n      eq\n        /* \"supplychain.sol\":979:1025  require(orders[_index].customer == msg.sender) */\n      tag_67\n      jumpi\n      0x0\n      dup1\n      revert\n    tag_67:\n        /* \"supplychain.sol\":2487:2503  Status.Decliened */\n      0x4\n        /* \"supplychain.sol\":2463:2469  orders */\n      0x0\n        /* \"supplychain.sol\":2470:2476  _index */\n      dup4\n        /* \"supplychain.sol\":2463:2477  orders[_index] */\n      dup2\n      sload\n      dup2\n      lt\n      iszero\n      iszero\n      tag_69\n      jumpi\n      invalid\n    tag_69:\n      swap1\n      0x0\n      mstore\n      keccak256(0x0, 0x20)\n      swap1\n      0x5\n      mul\n      add\n        /* \"supplychain.sol\":2463:2484  orders[_index].status */\n      0x4\n      add\n      0x14\n        /* \"supplychain.sol\":2463:2503  orders[_index].status = Status.Decliened */\n      0x100\n      exp\n      dup2\n      sload\n      dup2\n      0xff\n      mul\n      not\n      and\n      swap1\n      dup4\n      0x4\n      dup2\n      gt\n      iszero\n      tag_71\n      jumpi\n      invalid\n    tag_71:\n      mul\n      or\n      swap1\n      sstore\n      pop\n        /* \"supplychain.sol\":2386:2514  function declineOrder(uint256 _index) public onlyCustomer(_index) {\r... */\n      pop\n      pop\n      jump\t// out\n        /* \"supplychain.sol\":2229:2377  function acceptOrder(uint256 _index) public onlyCustomer(_index) orderDelivered(_index){\r... */\n    tag_25:\n        /* \"supplychain.sol\":987:993  orders */\n      0x0\n        /* \"supplychain.sol\":987:1001  orders[_index] */\n      dup1\n      sload\n        /* \"supplychain.sol\":2286:2292  _index */\n      dup3\n      swap2\n        /* \"supplychain.sol\":1014:1024  msg.sender */\n      caller\n      swap2\n        /* \"supplychain.sol\":2286:2292  _index */\n      dup4\n      swap1\n        /* \"supplychain.sol\":987:1001  orders[_index] */\n      dup2\n      lt\n      tag_73\n      jumpi\n      invalid\n    tag_73:\n      0x0\n      swap2\n      dup3\n      mstore\n      0x20\n      swap1\n      swap2\n      keccak256\n        /* \"supplychain.sol\":987:1010  orders[_index].customer */\n      0x4\n        /* \"supplychain.sol\":987:1001  orders[_index] */\n      0x5\n      swap1\n      swap3\n      mul\n      add\n        /* \"supplychain.sol\":987:1010  orders[_index].customer */\n      add\n      sload\n      sub(exp(0x2, 0xa0), 0x1)\n      and\n        /* \"supplychain.sol\":987:1024  orders[_index].customer == msg.sender */\n      eq\n        /* \"supplychain.sol\":979:1025  require(orders[_index].customer == msg.sender) */\n      tag_75\n      jumpi\n      0x0\n      dup1\n      revert\n    tag_75:\n        /* \"supplychain.sol\":2309:2315  _index */\n      dup2\n        /* \"supplychain.sol\":882:897  Status.Accepted */\n      0x3\n        /* \"supplychain.sol\":857:863  orders */\n      0x0\n        /* \"supplychain.sol\":857:871  orders[_index] */\n      dup1\n      sload\n        /* \"supplychain.sol\":864:870  _index */\n      dup4\n      swap1\n        /* \"supplychain.sol\":857:871  orders[_index] */\n      dup2\n      lt\n      tag_78\n      jumpi\n      invalid\n    tag_78:\n      swap1\n      0x0\n      mstore\n      keccak256(0x0, 0x20)\n      swap1\n      0x5\n      mul\n      add\n        /* \"supplychain.sol\":857:878  orders[_index].status */\n      0x4\n      add\n      0x14\n      swap1\n      sload\n      swap1\n      0x100\n      exp\n      swap1\n      div\n      0xff\n      and\n        /* \"supplychain.sol\":857:897  orders[_index].status == Status.Accepted */\n      0x4\n      dup2\n      gt\n      iszero\n      tag_80\n      jumpi\n      invalid\n    tag_80:\n      eq\n        /* \"supplychain.sol\":849:898  require(orders[_index].status == Status.Accepted) */\n      tag_81\n      jumpi\n      0x0\n      dup1\n      revert\n    tag_81:\n        /* \"supplychain.sol\":2351:2366  Status.Accepted */\n      0x3\n        /* \"supplychain.sol\":2327:2333  orders */\n      0x0\n        /* \"supplychain.sol\":2334:2340  _index */\n      dup5\n        /* \"supplychain.sol\":2327:2341  orders[_index] */\n      dup2\n      sload\n      dup2\n      lt\n      iszero\n      iszero\n      tag_83\n      jumpi\n      invalid\n    tag_83:\n      swap1\n      0x0\n      mstore\n      keccak256(0x0, 0x20)\n      swap1\n      0x5\n      mul\n      add\n        /* \"supplychain.sol\":2327:2348  orders[_index].status */\n      0x4\n      add\n      0x14\n        /* \"supplychain.sol\":2327:2366  orders[_index].status = Status.Accepted */\n      0x100\n      exp\n      dup2\n      sload\n      dup2\n      0xff\n      mul\n      not\n      and\n      swap1\n      dup4\n      0x4\n      dup2\n      gt\n      iszero\n      tag_85\n      jumpi\n      invalid\n    tag_85:\n      mul\n      or\n      swap1\n      sstore\n      pop\n        /* \"supplychain.sol\":1036:1037  _ */\n      pop\n        /* \"supplychain.sol\":2229:2377  function acceptOrder(uint256 _index) public onlyCustomer(_index) orderDelivered(_index){\r... */\n      pop\n      pop\n      jump\t// out\n        /* \"supplychain.sol\":29:2523  contract SypplyChain{\r... */\n    tag_56:\n      0x40\n      dup1\n      mload\n      0xc0\n      dup2\n      add\n      dup3\n      mstore\n      0x60\n      dup1\n      dup3\n      mstore\n      0x20\n      dup3\n      add\n      dup2\n      swap1\n      mstore\n      0x0\n      swap3\n      dup3\n      add\n      dup4\n      swap1\n      mstore\n      dup2\n      add\n      dup3\n      swap1\n      mstore\n      0x80\n      dup2\n      add\n      dup3\n      swap1\n      mstore\n      swap1\n      0xa0\n      dup3\n      add\n      mstore\n      swap1\n      jump\t// out\n    tag_61:\n      dup3\n      dup1\n      sload\n      0x1\n      dup2\n      0x1\n      and\n      iszero\n      0x100\n      mul\n      sub\n      and\n      0x2\n      swap1\n      div\n      swap1\n      0x0\n      mstore\n      keccak256(0x0, 0x20)\n      swap1\n      0x1f\n      add\n      0x20\n      swap1\n      div\n      dup2\n      add\n      swap3\n      dup3\n      0x1f\n      lt\n      tag_88\n      jumpi\n      dup1\n      mload\n      not(0xff)\n      and\n      dup4\n      dup1\n      add\n      or\n      dup6\n      sstore\n      jump(tag_90)\n    tag_88:\n      dup3\n      dup1\n      add\n      0x1\n      add\n      dup6\n      sstore\n      dup3\n      iszero\n      tag_90\n      jumpi\n      swap2\n      dup3\n      add\n    tag_89:\n      dup3\n      dup2\n      gt\n      iszero\n      tag_90\n      jumpi\n      dup3\n      mload\n      dup3\n      sstore\n      swap2\n      0x20\n      add\n      swap2\n      swap1\n      0x1\n      add\n      swap1\n      jump(tag_89)\n    tag_90:\n      pop\n      tag_91\n      swap3\n      swap2\n      pop\n      jump\t// in(tag_92)\n    tag_91:\n      pop\n      swap1\n      jump\t// out\n    tag_92:\n      tag_54\n      swap2\n      swap1\n    tag_94:\n      dup1\n      dup3\n      gt\n      iszero\n      tag_91\n      jumpi\n      0x0\n      dup2\n      sstore\n      0x1\n      add\n      jump(tag_94)\n\n    auxdata: 0xa165627a7a72305820b6e7baa690eb05237e8eec9506e48bc61d6841365cf860ec685b257c9f5260560029\n}\n",
				"bytecode": {
					"linkReferences": {},
					"object": "608060405234801561001057600080fd5b50610729806100206000396000f3006080604052600436106100775763ffffffff7c01000000000000000000000000000000000000000000000000000000006000350416636c484042811461007c57806384e9d538146100965780639d4971b7146100ae578063aa6e2a72146100d5578063ccbdb85c14610182578063ef18e9ed1461019a575b600080fd5b34801561008857600080fd5b506100946004356101b2565b005b3480156100a257600080fd5b5061009460043561029f565b3480156100ba57600080fd5b506100c3610384565b60408051918252519081900360200190f35b3480156100e157600080fd5b506040805160206004803580820135601f81018490048402850184019095528484526100c394369492936024939284019190819084018382808284375050604080516020601f89358b018035918201839004830284018301909452808352979a99988101979196509182019450925082915084018382808284375094975050600160a060020a03853581169650602090950135909416935061038b92505050565b34801561018e57600080fd5b506100946004356104ee565b3480156101a657600080fd5b5061009460043561056d565b60008133600160a060020a03166000828154811015156101ce57fe5b6000918252602090912060036005909202010154600160a060020a0316146101f557600080fd5b826001600080548390811061020657fe5b906000526020600020906005020160040160149054906101000a900460ff16600481111561023057fe5b1461023a57600080fd5b600080548590811061024857fe5b6000918252602090912060059091020160048101805491945060029174ff0000000000000000000000000000000000000000191674010000000000000000000000000000000000000000835b021790555050505050565b60008133600160a060020a03166000828154811015156102bb57fe5b6000918252602090912060036005909202010154600160a060020a0316146102e257600080fd5b826000808054839081106102f257fe5b906000526020600020906005020160040160149054906101000a900460ff16600481111561031c57fe5b1461032657600080fd5b600080548590811061033457fe5b6000918252602090912060059091020160048101805491945060019174ff000000000000000000000000000000000000000019167401000000000000000000000000000000000000000083610294565b6000545b90565b6000610395610632565b6040805160c081018252878152602081018790523391810191909152600160a060020a0385811660608301528416608082015260a08101600090526000805460018101808355918052825180519394509192849260059092027f290decd9548b62a8d60345a988386fc84ba6bc95484008f6362f93160ef3e563019161042091839160200190610665565b5060208281015180516104399260018501920190610665565b50604082015160028201805473ffffffffffffffffffffffffffffffffffffffff19908116600160a060020a039384161790915560608401516003840180548316918416919091179055608084015160048085018054909316919093161780825560a08501519274ff00000000000000000000000000000000000000001990911690740100000000000000000000000000000000000000009084908111156104dd57fe5b021790555050505050949350505050565b60008054829133918390811061050057fe5b6000918252602090912060046005909202010154600160a060020a03161461052757600080fd5b600460008381548110151561053857fe5b906000526020600020906005020160040160146101000a81548160ff0219169083600481111561056457fe5b02179055505050565b60008054829133918390811061057f57fe5b6000918252602090912060046005909202010154600160a060020a0316146105a657600080fd5b81600360008054839081106105b757fe5b906000526020600020906005020160040160149054906101000a900460ff1660048111156105e157fe5b146105eb57600080fd5b60036000848154811015156105fc57fe5b906000526020600020906005020160040160146101000a81548160ff0219169083600481111561062857fe5b0217905550505050565b6040805160c08101825260608082526020820181905260009282018390528101829052608081018290529060a082015290565b828054600181600116156101000203166002900490600052602060002090601f016020900481019282601f106106a657805160ff19168380011785556106d3565b828001600101855582156106d3579182015b828111156106d35782518255916020019190600101906106b8565b506106df9291506106e3565b5090565b61038891905b808211156106df57600081556001016106e95600a165627a7a72305820b6e7baa690eb05237e8eec9506e48bc61d6841365cf860ec685b257c9f5260560029",
					"opcodes": "PUSH1 0x80 PUSH1 0x40 MSTORE CALLVALUE DUP1 ISZERO PUSH2 0x10 JUMPI PUSH1 0x0 DUP1 REVERT JUMPDEST POP PUSH2 0x729 DUP1 PUSH2 0x20 PUSH1 0x0 CODECOPY PUSH1 0x0 RETURN STOP PUSH1 0x80 PUSH1 0x40 MSTORE PUSH1 0x4 CALLDATASIZE LT PUSH2 0x77 JUMPI PUSH4 0xFFFFFFFF PUSH29 0x100000000000000000000000000000000000000000000000000000000 PUSH1 0x0 CALLDATALOAD DIV AND PUSH4 0x6C484042 DUP2 EQ PUSH2 0x7C JUMPI DUP1 PUSH4 0x84E9D538 EQ PUSH2 0x96 JUMPI DUP1 PUSH4 0x9D4971B7 EQ PUSH2 0xAE JUMPI DUP1 PUSH4 0xAA6E2A72 EQ PUSH2 0xD5 JUMPI DUP1 PUSH4 0xCCBDB85C EQ PUSH2 0x182 JUMPI DUP1 PUSH4 0xEF18E9ED EQ PUSH2 0x19A JUMPI JUMPDEST PUSH1 0x0 DUP1 REVERT JUMPDEST CALLVALUE DUP1 ISZERO PUSH2 0x88 JUMPI PUSH1 0x0 DUP1 REVERT JUMPDEST POP PUSH2 0x94 PUSH1 0x4 CALLDATALOAD PUSH2 0x1B2 JUMP JUMPDEST STOP JUMPDEST CALLVALUE DUP1 ISZERO PUSH2 0xA2 JUMPI PUSH1 0x0 DUP1 REVERT JUMPDEST POP PUSH2 0x94 PUSH1 0x4 CALLDATALOAD PUSH2 0x29F JUMP JUMPDEST CALLVALUE DUP1 ISZERO PUSH2 0xBA JUMPI PUSH1 0x0 DUP1 REVERT JUMPDEST POP PUSH2 0xC3 PUSH2 0x384 JUMP JUMPDEST PUSH1 0x40 DUP1 MLOAD SWAP2 DUP3 MSTORE MLOAD SWAP1 DUP2 SWAP1 SUB PUSH1 0x20 ADD SWAP1 RETURN JUMPDEST CALLVALUE DUP1 ISZERO PUSH2 0xE1 JUMPI PUSH1 0x0 DUP1 REVERT JUMPDEST POP PUSH1 0x40 DUP1 MLOAD PUSH1 0x20 PUSH1 0x4 DUP1 CALLDATALOAD DUP1 DUP3 ADD CALLDATALOAD PUSH1 0x1F DUP2 ADD DUP5 SWAP1 DIV DUP5 MUL DUP6 ADD DUP5 ADD SWAP1 SWAP6 MSTORE DUP5 DUP5 MSTORE PUSH2 0xC3 SWAP5 CALLDATASIZE SWAP5 SWAP3 SWAP4 PUSH1 0x24 SWAP4 SWAP3 DUP5 ADD SWAP2 SWAP1 DUP2 SWAP1 DUP5 ADD DUP4 DUP3 DUP1 DUP3 DUP5 CALLDATACOPY POP POP PUSH1 0x40 DUP1 MLOAD PUSH1 0x20 PUSH1 0x1F DUP10 CALLDATALOAD DUP12 ADD DUP1 CALLDATALOAD SWAP2 DUP3 ADD DUP4 SWAP1 DIV DUP4 MUL DUP5 ADD DUP4 ADD SWAP1 SWAP5 MSTORE DUP1 DUP4 MSTORE SWAP8 SWAP11 SWAP10 SWAP9 DUP2 ADD SWAP8 SWAP2 SWAP7 POP SWAP2 DUP3 ADD SWAP5 POP SWAP3 POP DUP3 SWAP2 POP DUP5 ADD DUP4 DUP3 DUP1 DUP3 DUP5 CALLDATACOPY POP SWAP5 SWAP8 POP POP PUSH1 0x1 PUSH1 0xA0 PUSH1 0x2 EXP SUB DUP6 CALLDATALOAD DUP2 AND SWAP7 POP PUSH1 0x20 SWAP1 SWAP6 ADD CALLDATALOAD SWAP1 SWAP5 AND SWAP4 POP PUSH2 0x38B SWAP3 POP POP POP JUMP JUMPDEST CALLVALUE DUP1 ISZERO PUSH2 0x18E JUMPI PUSH1 0x0 DUP1 REVERT JUMPDEST POP PUSH2 0x94 PUSH1 0x4 CALLDATALOAD PUSH2 0x4EE JUMP JUMPDEST CALLVALUE DUP1 ISZERO PUSH2 0x1A6 JUMPI PUSH1 0x0 DUP1 REVERT JUMPDEST POP PUSH2 0x94 PUSH1 0x4 CALLDATALOAD PUSH2 0x56D JUMP JUMPDEST PUSH1 0x0 DUP2 CALLER PUSH1 0x1 PUSH1 0xA0 PUSH1 0x2 EXP SUB AND PUSH1 0x0 DUP3 DUP2 SLOAD DUP2 LT ISZERO ISZERO PUSH2 0x1CE JUMPI INVALID JUMPDEST PUSH1 0x0 SWAP2 DUP3 MSTORE PUSH1 0x20 SWAP1 SWAP2 KECCAK256 PUSH1 0x3 PUSH1 0x5 SWAP1 SWAP3 MUL ADD ADD SLOAD PUSH1 0x1 PUSH1 0xA0 PUSH1 0x2 EXP SUB AND EQ PUSH2 0x1F5 JUMPI PUSH1 0x0 DUP1 REVERT JUMPDEST DUP3 PUSH1 0x1 PUSH1 0x0 DUP1 SLOAD DUP4 SWAP1 DUP2 LT PUSH2 0x206 JUMPI INVALID JUMPDEST SWAP1 PUSH1 0x0 MSTORE PUSH1 0x20 PUSH1 0x0 KECCAK256 SWAP1 PUSH1 0x5 MUL ADD PUSH1 0x4 ADD PUSH1 0x14 SWAP1 SLOAD SWAP1 PUSH2 0x100 EXP SWAP1 DIV PUSH1 0xFF AND PUSH1 0x4 DUP2 GT ISZERO PUSH2 0x230 JUMPI INVALID JUMPDEST EQ PUSH2 0x23A JUMPI PUSH1 0x0 DUP1 REVERT JUMPDEST PUSH1 0x0 DUP1 SLOAD DUP6 SWAP1 DUP2 LT PUSH2 0x248 JUMPI INVALID JUMPDEST PUSH1 0x0 SWAP2 DUP3 MSTORE PUSH1 0x20 SWAP1 SWAP2 KECCAK256 PUSH1 0x5 SWAP1 SWAP2 MUL ADD PUSH1 0x4 DUP2 ADD DUP1 SLOAD SWAP2 SWAP5 POP PUSH1 0x2 SWAP2 PUSH21 0xFF0000000000000000000000000000000000000000 NOT AND PUSH21 0x10000000000000000000000000000000000000000 DUP4 JUMPDEST MUL OR SWAP1 SSTORE POP POP POP POP POP JUMP JUMPDEST PUSH1 0x0 DUP2 CALLER PUSH1 0x1 PUSH1 0xA0 PUSH1 0x2 EXP SUB AND PUSH1 0x0 DUP3 DUP2 SLOAD DUP2 LT ISZERO ISZERO PUSH2 0x2BB JUMPI INVALID JUMPDEST PUSH1 0x0 SWAP2 DUP3 MSTORE PUSH1 0x20 SWAP1 SWAP2 KECCAK256 PUSH1 0x3 PUSH1 0x5 SWAP1 SWAP3 MUL ADD ADD SLOAD PUSH1 0x1 PUSH1 0xA0 PUSH1 0x2 EXP SUB AND EQ PUSH2 0x2E2 JUMPI PUSH1 0x0 DUP1 REVERT JUMPDEST DUP3 PUSH1 0x0 DUP1 DUP1 SLOAD DUP4 SWAP1 DUP2 LT PUSH2 0x2F2 JUMPI INVALID JUMPDEST SWAP1 PUSH1 0x0 MSTORE PUSH1 0x20 PUSH1 0x0 KECCAK256 SWAP1 PUSH1 0x5 MUL ADD PUSH1 0x4 ADD PUSH1 0x14 SWAP1 SLOAD SWAP1 PUSH2 0x100 EXP SWAP1 DIV PUSH1 0xFF AND PUSH1 0x4 DUP2 GT ISZERO PUSH2 0x31C JUMPI INVALID JUMPDEST EQ PUSH2 0x326 JUMPI PUSH1 0x0 DUP1 REVERT JUMPDEST PUSH1 0x0 DUP1 SLOAD DUP6 SWAP1 DUP2 LT PUSH2 0x334 JUMPI INVALID JUMPDEST PUSH1 0x0 SWAP2 DUP3 MSTORE PUSH1 0x20 SWAP1 SWAP2 KECCAK256 PUSH1 0x5 SWAP1 SWAP2 MUL ADD PUSH1 0x4 DUP2 ADD DUP1 SLOAD SWAP2 SWAP5 POP PUSH1 0x1 SWAP2 PUSH21 0xFF0000000000000000000000000000000000000000 NOT AND PUSH21 0x10000000000000000000000000000000000000000 DUP4 PUSH2 0x294 JUMP JUMPDEST PUSH1 0x0 SLOAD JUMPDEST SWAP1 JUMP JUMPDEST PUSH1 0x0 PUSH2 0x395 PUSH2 0x632 JUMP JUMPDEST PUSH1 0x40 DUP1 MLOAD PUSH1 0xC0 DUP2 ADD DUP3 MSTORE DUP8 DUP2 MSTORE PUSH1 0x20 DUP2 ADD DUP8 SWAP1 MSTORE CALLER SWAP2 DUP2 ADD SWAP2 SWAP1 SWAP2 MSTORE PUSH1 0x1 PUSH1 0xA0 PUSH1 0x2 EXP SUB DUP6 DUP2 AND PUSH1 0x60 DUP4 ADD MSTORE DUP5 AND PUSH1 0x80 DUP3 ADD MSTORE PUSH1 0xA0 DUP2 ADD PUSH1 0x0 SWAP1 MSTORE PUSH1 0x0 DUP1 SLOAD PUSH1 0x1 DUP2 ADD DUP1 DUP4 SSTORE SWAP2 DUP1 MSTORE DUP3 MLOAD DUP1 MLOAD SWAP4 SWAP5 POP SWAP2 SWAP3 DUP5 SWAP3 PUSH1 0x5 SWAP1 SWAP3 MUL PUSH32 0x290DECD9548B62A8D60345A988386FC84BA6BC95484008F6362F93160EF3E563 ADD SWAP2 PUSH2 0x420 SWAP2 DUP4 SWAP2 PUSH1 0x20 ADD SWAP1 PUSH2 0x665 JUMP JUMPDEST POP PUSH1 0x20 DUP3 DUP2 ADD MLOAD DUP1 MLOAD PUSH2 0x439 SWAP3 PUSH1 0x1 DUP6 ADD SWAP3 ADD SWAP1 PUSH2 0x665 JUMP JUMPDEST POP PUSH1 0x40 DUP3 ADD MLOAD PUSH1 0x2 DUP3 ADD DUP1 SLOAD PUSH20 0xFFFFFFFFFFFFFFFFFFFFFFFFFFFFFFFFFFFFFFFF NOT SWAP1 DUP2 AND PUSH1 0x1 PUSH1 0xA0 PUSH1 0x2 EXP SUB SWAP4 DUP5 AND OR SWAP1 SWAP2 SSTORE PUSH1 0x60 DUP5 ADD MLOAD PUSH1 0x3 DUP5 ADD DUP1 SLOAD DUP4 AND SWAP2 DUP5 AND SWAP2 SWAP1 SWAP2 OR SWAP1 SSTORE PUSH1 0x80 DUP5 ADD MLOAD PUSH1 0x4 DUP1 DUP6 ADD DUP1 SLOAD SWAP1 SWAP4 AND SWAP2 SWAP1 SWAP4 AND OR DUP1 DUP3 SSTORE PUSH1 0xA0 DUP6 ADD MLOAD SWAP3 PUSH21 0xFF0000000000000000000000000000000000000000 NOT SWAP1 SWAP2 AND SWAP1 PUSH21 0x10000000000000000000000000000000000000000 SWAP1 DUP5 SWAP1 DUP2 GT ISZERO PUSH2 0x4DD JUMPI INVALID JUMPDEST MUL OR SWAP1 SSTORE POP POP POP POP POP SWAP5 SWAP4 POP POP POP POP JUMP JUMPDEST PUSH1 0x0 DUP1 SLOAD DUP3 SWAP2 CALLER SWAP2 DUP4 SWAP1 DUP2 LT PUSH2 0x500 JUMPI INVALID JUMPDEST PUSH1 0x0 SWAP2 DUP3 MSTORE PUSH1 0x20 SWAP1 SWAP2 KECCAK256 PUSH1 0x4 PUSH1 0x5 SWAP1 SWAP3 MUL ADD ADD SLOAD PUSH1 0x1 PUSH1 0xA0 PUSH1 0x2 EXP SUB AND EQ PUSH2 0x527 JUMPI PUSH1 0x0 DUP1 REVERT JUMPDEST PUSH1 0x4 PUSH1 0x0 DUP4 DUP2 SLOAD DUP2 LT ISZERO ISZERO PUSH2 0x538 JUMPI INVALID JUMPDEST SWAP1 PUSH1 0x0 MSTORE PUSH1 0x20 PUSH1 0x0 KECCAK256 SWAP1 PUSH1 0x5 MUL ADD PUSH1 0x4 ADD PUSH1 0x14 PUSH2 0x100 EXP DUP2 SLOAD DUP2 PUSH1 0xFF MUL NOT AND SWAP1 DUP4 PUSH1 0x4 DUP2 GT ISZERO PUSH2 0x564 JUMPI INVALID JUMPDEST MUL OR SWAP1 SSTORE POP POP POP JUMP JUMPDEST PUSH1 0x0 DUP1 SLOAD DUP3 SWAP2 CALLER SWAP2 DUP4 SWAP1 DUP2 LT PUSH2 0x57F JUMPI INVALID JUMPDEST PUSH1 0x0 SWAP2 DUP3 MSTORE PUSH1 0x20 SWAP1 SWAP2 KECCAK256 PUSH1 0x4 PUSH1 0x5 SWAP1 SWAP3 MUL ADD ADD SLOAD PUSH1 0x1 PUSH1 0xA0 PUSH1 0x2 EXP SUB AND EQ PUSH2 0x5A6 JUMPI PUSH1 0x0 DUP1 REVERT JUMPDEST DUP2 PUSH1 0x3 PUSH1 0x0 DUP1 SLOAD DUP4 SWAP1 DUP2 LT PUSH2 0x5B7 JUMPI INVALID JUMPDEST SWAP1 PUSH1 0x0 MSTORE PUSH1 0x20 PUSH1 0x0 KECCAK256 SWAP1 PUSH1 0x5 MUL ADD PUSH1 0x4 ADD PUSH1 0x14 SWAP1 SLOAD SWAP1 PUSH2 0x100 EXP SWAP1 DIV PUSH1 0xFF AND PUSH1 0x4 DUP2 GT ISZERO PUSH2 0x5E1 JUMPI INVALID JUMPDEST EQ PUSH2 0x5EB JUMPI PUSH1 0x0 DUP1 REVERT JUMPDEST PUSH1 0x3 PUSH1 0x0 DUP5 DUP2 SLOAD DUP2 LT ISZERO ISZERO PUSH2 0x5FC JUMPI INVALID JUMPDEST SWAP1 PUSH1 0x0 MSTORE PUSH1 0x20 PUSH1 0x0 KECCAK256 SWAP1 PUSH1 0x5 MUL ADD PUSH1 0x4 ADD PUSH1 0x14 PUSH2 0x100 EXP DUP2 SLOAD DUP2 PUSH1 0xFF MUL NOT AND SWAP1 DUP4 PUSH1 0x4 DUP2 GT ISZERO PUSH2 0x628 JUMPI INVALID JUMPDEST MUL OR SWAP1 SSTORE POP POP POP POP JUMP JUMPDEST PUSH1 0x40 DUP1 MLOAD PUSH1 0xC0 DUP2 ADD DUP3 MSTORE PUSH1 0x60 DUP1 DUP3 MSTORE PUSH1 0x20 DUP3 ADD DUP2 SWAP1 MSTORE PUSH1 0x0 SWAP3 DUP3 ADD DUP4 SWAP1 MSTORE DUP2 ADD DUP3 SWAP1 MSTORE PUSH1 0x80 DUP2 ADD DUP3 SWAP1 MSTORE SWAP1 PUSH1 0xA0 DUP3 ADD MSTORE SWAP1 JUMP JUMPDEST DUP3 DUP1 SLOAD PUSH1 0x1 DUP2 PUSH1 0x1 AND ISZERO PUSH2 0x100 MUL SUB AND PUSH1 0x2 SWAP1 DIV SWAP1 PUSH1 0x0 MSTORE PUSH1 0x20 PUSH1 0x0 KECCAK256 SWAP1 PUSH1 0x1F ADD PUSH1 0x20 SWAP1 DIV DUP2 ADD SWAP3 DUP3 PUSH1 0x1F LT PUSH2 0x6A6 JUMPI DUP1 MLOAD PUSH1 0xFF NOT AND DUP4 DUP1 ADD OR DUP6 SSTORE PUSH2 0x6D3 JUMP JUMPDEST DUP3 DUP1 ADD PUSH1 0x1 ADD DUP6 SSTORE DUP3 ISZERO PUSH2 0x6D3 JUMPI SWAP2 DUP3 ADD JUMPDEST DUP3 DUP2 GT ISZERO PUSH2 0x6D3 JUMPI DUP3 MLOAD DUP3 SSTORE SWAP2 PUSH1 0x20 ADD SWAP2 SWAP1 PUSH1 0x1 ADD SWAP1 PUSH2 0x6B8 JUMP JUMPDEST POP PUSH2 0x6DF SWAP3 SWAP2 POP PUSH2 0x6E3 JUMP JUMPDEST POP SWAP1 JUMP JUMPDEST PUSH2 0x388 SWAP2 SWAP1 JUMPDEST DUP1 DUP3 GT ISZERO PUSH2 0x6DF JUMPI PUSH1 0x0 DUP2 SSTORE PUSH1 0x1 ADD PUSH2 0x6E9 JUMP STOP LOG1 PUSH6 0x627A7A723058 KECCAK256 0xb6 0xe7 0xba 0xa6 SWAP1 0xeb SDIV 0x23 PUSH31 0x8EEC9506E48BC61D6841365CF860EC685B257C9F5260560029000000000000 "
				},
				"gasEstimates": {
					"creation": {
						"codeDepositCost": "366600",
						"executionCost": "405",
						"totalCost": "367005"
					},
					"external": {
						"acceptOrder(uint256)": "22145",
						"createOrder(string,string,address,address)": "infinite",
						"declineOrder(uint256)": "21483",
						"getOrderLength()": "429",
						"startDeliveringOrder(uint256)": "22066",
						"stopDeliveringOrder(uint256)": "22033"
					}
				},
				"methodIdentifiers": {
					"acceptOrder(uint256)": "ef18e9ed",
					"createOrder(string,string,address,address)": "aa6e2a72",
					"declineOrder(uint256)": "ccbdb85c",
					"getOrderLength()": "9d4971b7",
					"startDeliveringOrder(uint256)": "84e9d538",
					"stopDeliveringOrder(uint256)": "6c484042"
				}
			},
			"userdoc": {
				"methods": {}
			}
		}
	}
}